{
  "contractName": "ExecutorWithTimelock",
  "abi": [
    {
      "inputs": [
        {
          "internalType": "address",
          "name": "admin",
          "type": "address"
        },
        {
          "internalType": "uint256",
          "name": "delay",
          "type": "uint256"
        },
        {
          "internalType": "uint256",
          "name": "gracePeriod",
          "type": "uint256"
        },
        {
          "internalType": "uint256",
          "name": "minimumDelay",
          "type": "uint256"
        },
        {
          "internalType": "uint256",
          "name": "maximumDelay",
          "type": "uint256"
        }
      ],
      "stateMutability": "nonpayable",
      "type": "constructor"
    },
    {
      "anonymous": false,
      "inputs": [
        {
          "indexed": false,
          "internalType": "bytes32",
          "name": "actionHash",
          "type": "bytes32"
        },
        {
          "indexed": true,
          "internalType": "address",
          "name": "target",
          "type": "address"
        },
        {
          "indexed": false,
          "internalType": "uint256",
          "name": "value",
          "type": "uint256"
        },
        {
          "indexed": false,
          "internalType": "string",
          "name": "signature",
          "type": "string"
        },
        {
          "indexed": false,
          "internalType": "bytes",
          "name": "data",
          "type": "bytes"
        },
        {
          "indexed": false,
          "internalType": "uint256",
          "name": "executionTime",
          "type": "uint256"
        },
        {
          "indexed": false,
          "internalType": "bool",
          "name": "withDelegatecall",
          "type": "bool"
        }
      ],
      "name": "CancelledAction",
      "type": "event"
    },
    {
      "anonymous": false,
      "inputs": [
        {
          "indexed": false,
          "internalType": "bytes32",
          "name": "actionHash",
          "type": "bytes32"
        },
        {
          "indexed": true,
          "internalType": "address",
          "name": "target",
          "type": "address"
        },
        {
          "indexed": false,
          "internalType": "uint256",
          "name": "value",
          "type": "uint256"
        },
        {
          "indexed": false,
          "internalType": "string",
          "name": "signature",
          "type": "string"
        },
        {
          "indexed": false,
          "internalType": "bytes",
          "name": "data",
          "type": "bytes"
        },
        {
          "indexed": false,
          "internalType": "uint256",
          "name": "executionTime",
          "type": "uint256"
        },
        {
          "indexed": false,
          "internalType": "bool",
          "name": "withDelegatecall",
          "type": "bool"
        },
        {
          "indexed": false,
          "internalType": "bytes",
          "name": "resultData",
          "type": "bytes"
        }
      ],
      "name": "ExecutedAction",
      "type": "event"
    },
    {
      "anonymous": false,
      "inputs": [
        {
          "indexed": false,
          "internalType": "address",
          "name": "newAdmin",
          "type": "address"
        }
      ],
      "name": "NewAdmin",
      "type": "event"
    },
    {
      "anonymous": false,
      "inputs": [
        {
          "indexed": false,
          "internalType": "uint256",
          "name": "delay",
          "type": "uint256"
        }
      ],
      "name": "NewDelay",
      "type": "event"
    },
    {
      "anonymous": false,
      "inputs": [
        {
          "indexed": false,
          "internalType": "address",
          "name": "newPendingAdmin",
          "type": "address"
        }
      ],
      "name": "NewPendingAdmin",
      "type": "event"
    },
    {
      "anonymous": false,
      "inputs": [
        {
          "indexed": false,
          "internalType": "bytes32",
          "name": "actionHash",
          "type": "bytes32"
        },
        {
          "indexed": true,
          "internalType": "address",
          "name": "target",
          "type": "address"
        },
        {
          "indexed": false,
          "internalType": "uint256",
          "name": "value",
          "type": "uint256"
        },
        {
          "indexed": false,
          "internalType": "string",
          "name": "signature",
          "type": "string"
        },
        {
          "indexed": false,
          "internalType": "bytes",
          "name": "data",
          "type": "bytes"
        },
        {
          "indexed": false,
          "internalType": "uint256",
          "name": "executionTime",
          "type": "uint256"
        },
        {
          "indexed": false,
          "internalType": "bool",
          "name": "withDelegatecall",
          "type": "bool"
        }
      ],
      "name": "QueuedAction",
      "type": "event"
    },
    {
      "inputs": [],
      "name": "GRACE_PERIOD",
      "outputs": [
        {
          "internalType": "uint256",
          "name": "",
          "type": "uint256"
        }
      ],
      "stateMutability": "view",
      "type": "function"
    },
    {
      "inputs": [],
      "name": "MAXIMUM_DELAY",
      "outputs": [
        {
          "internalType": "uint256",
          "name": "",
          "type": "uint256"
        }
      ],
      "stateMutability": "view",
      "type": "function"
    },
    {
      "inputs": [],
      "name": "MINIMUM_DELAY",
      "outputs": [
        {
          "internalType": "uint256",
          "name": "",
          "type": "uint256"
        }
      ],
      "stateMutability": "view",
      "type": "function"
    },
    {
      "stateMutability": "payable",
      "type": "receive"
    },
    {
      "inputs": [
        {
          "internalType": "uint256",
          "name": "delay",
          "type": "uint256"
        }
      ],
      "name": "setDelay",
      "outputs": [],
      "stateMutability": "nonpayable",
      "type": "function"
    },
    {
      "inputs": [],
      "name": "acceptAdmin",
      "outputs": [],
      "stateMutability": "nonpayable",
      "type": "function"
    },
    {
      "inputs": [
        {
          "internalType": "address",
          "name": "newPendingAdmin",
          "type": "address"
        }
      ],
      "name": "setPendingAdmin",
      "outputs": [],
      "stateMutability": "nonpayable",
      "type": "function"
    },
    {
      "inputs": [
        {
          "internalType": "address",
          "name": "target",
          "type": "address"
        },
        {
          "internalType": "uint256",
          "name": "value",
          "type": "uint256"
        },
        {
          "internalType": "string",
          "name": "signature",
          "type": "string"
        },
        {
          "internalType": "bytes",
          "name": "data",
          "type": "bytes"
        },
        {
          "internalType": "uint256",
          "name": "executionTime",
          "type": "uint256"
        },
        {
          "internalType": "bool",
          "name": "withDelegatecall",
          "type": "bool"
        }
      ],
      "name": "queueTransaction",
      "outputs": [
        {
          "internalType": "bytes32",
          "name": "",
          "type": "bytes32"
        }
      ],
      "stateMutability": "nonpayable",
      "type": "function"
    },
    {
      "inputs": [
        {
          "internalType": "address",
          "name": "target",
          "type": "address"
        },
        {
          "internalType": "uint256",
          "name": "value",
          "type": "uint256"
        },
        {
          "internalType": "string",
          "name": "signature",
          "type": "string"
        },
        {
          "internalType": "bytes",
          "name": "data",
          "type": "bytes"
        },
        {
          "internalType": "uint256",
          "name": "executionTime",
          "type": "uint256"
        },
        {
          "internalType": "bool",
          "name": "withDelegatecall",
          "type": "bool"
        }
      ],
      "name": "cancelTransaction",
      "outputs": [
        {
          "internalType": "bytes32",
          "name": "",
          "type": "bytes32"
        }
      ],
      "stateMutability": "nonpayable",
      "type": "function"
    },
    {
      "inputs": [
        {
          "internalType": "address",
          "name": "target",
          "type": "address"
        },
        {
          "internalType": "uint256",
          "name": "value",
          "type": "uint256"
        },
        {
          "internalType": "string",
          "name": "signature",
          "type": "string"
        },
        {
          "internalType": "bytes",
          "name": "data",
          "type": "bytes"
        },
        {
          "internalType": "uint256",
          "name": "executionTime",
          "type": "uint256"
        },
        {
          "internalType": "bool",
          "name": "withDelegatecall",
          "type": "bool"
        }
      ],
      "name": "executeTransaction",
      "outputs": [
        {
          "internalType": "bytes",
          "name": "",
          "type": "bytes"
        }
      ],
      "stateMutability": "payable",
      "type": "function"
    },
    {
      "inputs": [],
      "name": "getAdmin",
      "outputs": [
        {
          "internalType": "address",
          "name": "",
          "type": "address"
        }
      ],
      "stateMutability": "view",
      "type": "function"
    },
    {
      "inputs": [],
      "name": "getPendingAdmin",
      "outputs": [
        {
          "internalType": "address",
          "name": "",
          "type": "address"
        }
      ],
      "stateMutability": "view",
      "type": "function"
    },
    {
      "inputs": [],
      "name": "getDelay",
      "outputs": [
        {
          "internalType": "uint256",
          "name": "",
          "type": "uint256"
        }
      ],
      "stateMutability": "view",
      "type": "function"
    },
    {
      "inputs": [
        {
          "internalType": "bytes32",
          "name": "actionHash",
          "type": "bytes32"
        }
      ],
      "name": "isActionQueued",
      "outputs": [
        {
          "internalType": "bool",
          "name": "",
          "type": "bool"
        }
      ],
      "stateMutability": "view",
      "type": "function"
    },
    {
      "inputs": [
        {
          "internalType": "contract ISuperKarmaGovernance",
          "name": "governance",
          "type": "address"
        },
        {
          "internalType": "uint256",
          "name": "proposalId",
          "type": "uint256"
        }
      ],
      "name": "isProposalOverGracePeriod",
      "outputs": [
        {
          "internalType": "bool",
          "name": "",
          "type": "bool"
        }
      ],
      "stateMutability": "view",
      "type": "function"
    }
  ],
  "bytecode": "0x60e06040523480156200001157600080fd5b506040516200171038038062001710833981016040819052620000349162000130565b81841015620000605760405162461bcd60e51b8152600401620000579062000199565b60405180910390fd5b80841115620000835760405162461bcd60e51b81526004016200005790620001d0565b6002849055600080546001600160a01b0319166001600160a01b038716179055608083905260a082905260c08190526040517f948b1f6a42ee138b7e34058ba85a37f716d55ff25ff05a763f15bed6a04c8d2c90620000e490869062000207565b60405180910390a17f71614071b88dee5e0b2ae578a9dd7b2ebbe9ae832ba419dc0242cd065a290b6c856040516200011d919062000185565b60405180910390a1505050505062000210565b600080600080600060a0868803121562000148578081fd5b85516001600160a01b03811681146200015f578182fd5b602087015160408801516060890151608090990151929a91995097965090945092505050565b6001600160a01b0391909116815260200190565b6020808252601a908201527f44454c41595f53484f525445525f5448414e5f4d494e494d554d000000000000604082015260600190565b60208082526019908201527f44454c41595f4c4f4e4745525f5448414e5f4d4158494d554d00000000000000604082015260600190565b90815260200190565b60805160a05160c0516114bf620002516000398061046e5280610a3252508061082e52806109f25250806105475280610867528061099452506114bf6000f3fe6080604052600436106100e15760003560e01c8063b1b43ae51161007f578063cebc9a8211610059578063cebc9a8214610228578063d04681561461023d578063e177246e14610252578063f670a5f914610272576100e8565b8063b1b43ae5146101d1578063b1fc8796146101e6578063c1a287e214610213576100e8565b80636e9960c3116100bb5780636e9960c31461015a5780637d645fab1461017c5780638902ab65146101915780638d8fe2e3146101b1576100e8565b80630e18b681146100ed5780631dc40b51146101045780634dd18bf51461013a576100e8565b366100e857005b600080fd5b3480156100f957600080fd5b50610102610292565b005b34801561011057600080fd5b5061012461011f366004610d69565b61031c565b60405161013191906110e0565b60405180910390f35b34801561014657600080fd5b50610102610155366004610d4d565b6103e8565b34801561016657600080fd5b5061016f61045d565b604051610131919061106d565b34801561018857600080fd5b5061012461046c565b6101a461019f366004610d69565b610490565b6040516101319190611169565b3480156101bd57600080fd5b506101246101cc366004610d69565b610743565b3480156101dd57600080fd5b5061012461082c565b3480156101f257600080fd5b50610206610201366004610e03565b610850565b60405161013191906110d5565b34801561021f57600080fd5b50610124610865565b34801561023457600080fd5b50610124610889565b34801561024957600080fd5b5061016f61088f565b34801561025e57600080fd5b5061010261026d366004610e03565b61089e565b34801561027e57600080fd5b5061020661028d366004610e1b565b6108fb565b6001546001600160a01b031633146102c55760405162461bcd60e51b81526004016102bc9061117c565b60405180910390fd5b60008054336001600160a01b031991821681179092556001805490911690556040517f71614071b88dee5e0b2ae578a9dd7b2ebbe9ae832ba419dc0242cd065a290b6c916103129161106d565b60405180910390a1565b600080546001600160a01b031633146103475760405162461bcd60e51b81526004016102bc9061127f565b600087878787878760405160200161036496959493929190611081565b60408051601f19818403018152828252805160209182012060008181526003909252919020805460ff1916905591506001600160a01b038916907f87c481aa909c37502caa37394ab791c26b68fa4fa5ae56de104de36444ae9069906103d59084908b908b908b908b908b906110e9565b60405180910390a2979650505050505050565b3330146104075760405162461bcd60e51b81526004016102bc9061139c565b600180546001600160a01b0319166001600160a01b0383161790556040517f69d78e38a01985fbb1462961809b4b2d65531bc93b2b94037f3334b82ca4a7569061045290839061106d565b60405180910390a150565b6000546001600160a01b031690565b7f000000000000000000000000000000000000000000000000000000000000000081565b6000546060906001600160a01b031633146104bd5760405162461bcd60e51b81526004016102bc9061127f565b60008787878787876040516020016104da96959493929190611081565b60408051601f1981840301815291815281516020928301206000818152600390935291205490915060ff166105215760405162461bcd60e51b81526004016102bc906112d5565b834210156105415760405162461bcd60e51b81526004016102bc906111e2565b61056b847f00000000000000000000000000000000000000000000000000000000000000006109c4565b42111561058a5760405162461bcd60e51b81526004016102bc906112a6565b6000818152600360205260409020805460ff1916905585516060906105b05750846105dc565b8680519060200120866040516020016105ca929190611020565b60405160208183030381529060405290505b60006060851561066957893410156106065760405162461bcd60e51b81526004016102bc9061136e565b8a6001600160a01b03168360405161061e9190611051565b600060405180830381855af49150503d8060008114610659576040519150601f19603f3d011682016040523d82523d6000602084013e61065e565b606091505b5090925090506106cb565b8a6001600160a01b03168a846040516106829190611051565b60006040518083038185875af1925050503d80600081146106bf576040519150601f19603f3d011682016040523d82523d6000602084013e6106c4565b606091505b5090925090505b816106e85760405162461bcd60e51b81526004016102bc90611300565b8a6001600160a01b03167f97825080b472fa91fe888b62ec128814d60dec546a2dafb955e50923f4a1b7e7858c8c8c8c8c8860405161072d9796959493929190611108565b60405180910390a29a9950505050505050505050565b600080546001600160a01b0316331461076e5760405162461bcd60e51b81526004016102bc9061127f565b60025461077c9042906109c4565b83101561079b5760405162461bcd60e51b81526004016102bc90611211565b60008787878787876040516020016107b896959493929190611081565b60408051601f19818403018152828252805160209182012060008181526003909252919020805460ff1916600117905591506001600160a01b038916907f2191aed4c4733c76e08a9e7e1da0b8d87fa98753f22df49231ddc66e0f05f022906103d59084908b908b908b908b908b906110e9565b7f000000000000000000000000000000000000000000000000000000000000000081565b60009081526003602052604090205460ff1690565b7f000000000000000000000000000000000000000000000000000000000000000081565b60025490565b6001546001600160a01b031690565b3330146108bd5760405162461bcd60e51b81526004016102bc9061139c565b6108c6816109f0565b60028190556040517f948b1f6a42ee138b7e34058ba85a37f716d55ff25ff05a763f15bed6a04c8d2c906104529083906110e0565b6000610905610a73565b604051633656de2160e01b81526001600160a01b03851690633656de21906109319086906004016110e0565b60006040518083038186803b15801561094957600080fd5b505afa15801561095d573d6000803e3d6000fd5b505050506040513d6000823e601f3d908101601f191682016040526109859190810190610e46565b6101408101519091506109b8907f00000000000000000000000000000000000000000000000000000000000000006109c4565b42119150505b92915050565b6000828201838110156109e95760405162461bcd60e51b81526004016102bc906111ab565b9392505050565b7f0000000000000000000000000000000000000000000000000000000000000000811015610a305760405162461bcd60e51b81526004016102bc90611248565b7f0000000000000000000000000000000000000000000000000000000000000000811115610a705760405162461bcd60e51b81526004016102bc90611337565b50565b6040518061022001604052806000815260200160006001600160a01b0316815260200160006001600160a01b031681526020016060815260200160608152602001606081526020016060815260200160608152602001600081526020016000815260200160008152602001600081526020016000815260200160001515815260200160001515815260200160006001600160a01b03168152602001600080191681525090565b80516109be81611466565b600082601f830112610b34578081fd5b8151610b47610b42826113f2565b6113cb565b818152915060208083019084810181840286018201871015610b6857600080fd5b60005b84811015610b90578151610b7e81611466565b84529282019290820190600101610b6b565b505050505092915050565b600082601f830112610bab578081fd5b8151610bb9610b42826113f2565b818152915060208083019084810181840286018201871015610bda57600080fd5b60005b84811015610b90578151610bf08161147b565b84529282019290820190600101610bdd565b600082601f830112610c12578081fd5b8151610c20610b42826113f2565b818152915060208083019084810160005b84811015610b90578151870188603f820112610c4c57600080fd5b83810151610c5c610b4282611412565b81815260408b81848601011115610c7257600080fd5b610c8183888401838701611436565b50865250509282019290820190600101610c31565b600082601f830112610ca6578081fd5b8151610cb4610b42826113f2565b818152915060208083019084810181840286018201871015610cd557600080fd5b60005b84811015610b9057815184529282019290820190600101610cd8565b80516109be8161147b565b600082601f830112610d0f578081fd5b8135610d1d610b4282611412565b9150808252836020828501011115610d3457600080fd5b8060208401602084013760009082016020015292915050565b600060208284031215610d5e578081fd5b81356109e981611466565b60008060008060008060c08789031215610d81578182fd5b8635610d8c81611466565b955060208701359450604087013567ffffffffffffffff80821115610daf578384fd5b610dbb8a838b01610cff565b95506060890135915080821115610dd0578384fd5b50610ddd89828a01610cff565b9350506080870135915060a0870135610df58161147b565b809150509295509295509295565b600060208284031215610e14578081fd5b5035919050565b60008060408385031215610e2d578182fd5b8235610e3881611466565b946020939093013593505050565b600060208284031215610e57578081fd5b815167ffffffffffffffff80821115610e6e578283fd5b8184019150610220808387031215610e84578384fd5b610e8d816113cb565b905082518152610ea08660208501610b19565b6020820152610eb28660408501610b19565b6040820152606083015182811115610ec8578485fd5b610ed487828601610b24565b606083015250608083015182811115610eeb578485fd5b610ef787828601610c96565b60808301525060a083015182811115610f0e578485fd5b610f1a87828601610c02565b60a08301525060c083015182811115610f31578485fd5b610f3d87828601610c02565b60c08301525060e083015182811115610f54578485fd5b610f6087828601610b9b565b60e083015250610100838101519082015261012080840151908201526101408084015190820152610160808401519082015261018080840151908201526101a09150610fae86838501610cf4565b828201526101c09150610fc386838501610cf4565b828201526101e09150610fd886838501610b19565b9181019190915261020091820151918101919091529392505050565b6000815180845261100c816020860160208601611436565b601f01601f19169290920160200192915050565b6001600160e01b0319831681528151600090611043816004850160208701611436565b919091016004019392505050565b60008251611063818460208701611436565b9190910192915050565b6001600160a01b0391909116815260200190565b600060018060a01b038816825286602083015260c060408301526110a860c0830187610ff4565b82810360608401526110ba8187610ff4565b6080840195909552505090151560a090910152949350505050565b901515815260200190565b90815260200190565b600087825286602083015260c060408301526110a860c0830187610ff4565b600088825287602083015260e0604083015261112760e0830188610ff4565b82810360608401526111398188610ff4565b905085608084015284151560a084015282810360c084015261115b8185610ff4565b9a9950505050505050505050565b6000602082526109e96020830184610ff4565b60208082526015908201527427a7262cafa12cafa822a72224a723afa0a226a4a760591b604082015260600190565b6020808252601b908201527f536166654d6174683a206164646974696f6e206f766572666c6f770000000000604082015260600190565b602080825260159082015274151253515313d0d2d7d393d517d192539254d21151605a1b604082015260600190565b6020808252601d908201527f455845435554494f4e5f54494d455f554e444552455354494d41544544000000604082015260600190565b6020808252601a908201527f44454c41595f53484f525445525f5448414e5f4d494e494d554d000000000000604082015260600190565b6020808252600d908201526c27a7262cafa12cafa0a226a4a760991b604082015260600190565b60208082526015908201527411d49050d157d411549253d117d192539254d21151605a1b604082015260600190565b6020808252601190820152701050d51253d397d393d517d45551555151607a1b604082015260600190565b60208082526017908201527f4641494c45445f414354494f4e5f455845435554494f4e000000000000000000604082015260600190565b60208082526019908201527f44454c41595f4c4f4e4745525f5448414e5f4d4158494d554d00000000000000604082015260600190565b6020808252601490820152734e4f545f454e4f5547485f4d53475f56414c554560601b604082015260600190565b6020808252601590820152744f4e4c595f42595f544849535f54494d454c4f434b60581b604082015260600190565b60405181810167ffffffffffffffff811182821017156113ea57600080fd5b604052919050565b600067ffffffffffffffff821115611408578081fd5b5060209081020190565b600067ffffffffffffffff821115611428578081fd5b50601f01601f191660200190565b60005b83811015611451578181015183820152602001611439565b83811115611460576000848401525b50505050565b6001600160a01b0381168114610a7057600080fd5b8015158114610a7057600080fdfea2646970667358221220ea44b9f5c16c883576fda8fbcbac259dc8ca42bc1d44a3d5844379624c40a89a64736f6c63430007000033",
  "immutableReferences": {
    "3733": [
      {
        "length": 32,
        "start": 1351
      },
      {
        "length": 32,
        "start": 2151
      },
      {
        "length": 32,
        "start": 2452
      }
    ],
    "3736": [
      {
        "length": 32,
        "start": 2094
      },
      {
        "length": 32,
        "start": 2546
      }
    ],
    "3739": [
      {
        "length": 32,
        "start": 1134
      },
      {
        "length": 32,
        "start": 2610
      }
    ]
  },
  "source": "// SPDX-License-Identifier: agpl-3.0\r\npragma solidity 0.7.0;\r\npragma experimental ABIEncoderV2;\r\n\r\nimport {IExecutorWithTimelock} from './interfaces/IExecutorWithTimelock.sol';\r\nimport {ISuperKarmaGovernance} from './interfaces/ISuperKarmaGovernance.sol';\r\nimport '@openzeppelin/contracts/math/SafeMath.sol';\r\n\r\n/**\r\n * @title Time Locked Executor Contract, inherited by SuperKarma Governance Executors\r\n * @dev Contract that can queue, execute, cancel transactions voted by Governance\r\n * Queued transactions can be executed after a delay and until\r\n * Grace period is not over.\r\n * @author SuperKarma\r\n **/\r\ncontract ExecutorWithTimelock is IExecutorWithTimelock {\r\n    using SafeMath for uint256;\r\n\r\n    uint256 public immutable override GRACE_PERIOD;\r\n    uint256 public immutable override MINIMUM_DELAY;\r\n    uint256 public immutable override MAXIMUM_DELAY;\r\n\r\n    address private _admin;\r\n    address private _pendingAdmin;\r\n    uint256 private _delay;\r\n\r\n    mapping(bytes32 => bool) private _queuedTransactions;\r\n\r\n    struct ProposalWithoutVotes {\r\n        uint256 id;\r\n        address creator;\r\n        IExecutorWithTimelock executor;\r\n        address[] targets;\r\n        uint256[] values;\r\n        string[] signatures;\r\n        bytes[] calldatas;\r\n        bool[] withDelegatecalls;\r\n        uint256 startBlock;\r\n        uint256 endBlock;\r\n        uint256 executionTime;\r\n        uint256 forVotes;\r\n        uint256 againstVotes;\r\n        bool executed;\r\n        bool canceled;\r\n        address strategy;\r\n        bytes32 ipfsHash;\r\n    }\r\n\r\n    /**\r\n     * @dev Constructor\r\n     * @param admin admin address, that can call the main functions, (Governance)\r\n     * @param delay minimum time between queueing and execution of proposal\r\n     * @param gracePeriod time after `delay` while a proposal can be executed\r\n     * @param minimumDelay lower threshold of `delay`, in seconds\r\n     * @param maximumDelay upper threhold of `delay`, in seconds\r\n     **/\r\n    constructor(\r\n        address admin,\r\n        uint256 delay,\r\n        uint256 gracePeriod,\r\n        uint256 minimumDelay,\r\n        uint256 maximumDelay\r\n    ) public {\r\n        require(delay >= minimumDelay, 'DELAY_SHORTER_THAN_MINIMUM');\r\n        require(delay <= maximumDelay, 'DELAY_LONGER_THAN_MAXIMUM');\r\n        _delay = delay;\r\n        _admin = admin;\r\n\r\n        GRACE_PERIOD = gracePeriod;\r\n        MINIMUM_DELAY = minimumDelay;\r\n        MAXIMUM_DELAY = maximumDelay;\r\n\r\n        emit NewDelay(delay);\r\n        emit NewAdmin(admin);\r\n    }\r\n\r\n    modifier onlyAdmin() {\r\n        require(msg.sender == _admin, 'ONLY_BY_ADMIN');\r\n        _;\r\n    }\r\n\r\n    modifier onlyTimelock() {\r\n        require(msg.sender == address(this), 'ONLY_BY_THIS_TIMELOCK');\r\n        _;\r\n    }\r\n\r\n    modifier onlyPendingAdmin() {\r\n        require(msg.sender == _pendingAdmin, 'ONLY_BY_PENDING_ADMIN');\r\n        _;\r\n    }\r\n\r\n    /**\r\n     * @dev Set the delay\r\n     * @param delay delay between queue and execution of proposal\r\n     **/\r\n    function setDelay(uint256 delay) public onlyTimelock {\r\n        _validateDelay(delay);\r\n        _delay = delay;\r\n\r\n        emit NewDelay(delay);\r\n    }\r\n\r\n    /**\r\n     * @dev Function enabling pending admin to become admin\r\n     **/\r\n    function acceptAdmin() public onlyPendingAdmin {\r\n        _admin = msg.sender;\r\n        _pendingAdmin = address(0);\r\n\r\n        emit NewAdmin(msg.sender);\r\n    }\r\n\r\n    /**\r\n     * @dev Setting a new pending admin (that can then become admin)\r\n     * Can only be called by this executor (i.e via proposal)\r\n     * @param newPendingAdmin address of the new admin\r\n     **/\r\n    function setPendingAdmin(address newPendingAdmin) public onlyTimelock {\r\n        _pendingAdmin = newPendingAdmin;\r\n\r\n        emit NewPendingAdmin(newPendingAdmin);\r\n    }\r\n\r\n    /**\r\n     * @dev Function, called by Governance, that queue a transaction, returns action hash\r\n     * @param target smart contract target\r\n     * @param value wei value of the transaction\r\n     * @param signature function signature of the transaction\r\n     * @param data function arguments of the transaction or callData if signature empty\r\n     * @param executionTime time at which to execute the transaction\r\n     * @param withDelegatecall boolean, true = transaction delegatecalls the target, else calls the target\r\n     * @return the action Hash\r\n     **/\r\n    function queueTransaction(\r\n        address target,\r\n        uint256 value,\r\n        string memory signature,\r\n        bytes memory data,\r\n        uint256 executionTime,\r\n        bool withDelegatecall\r\n    ) public override onlyAdmin returns (bytes32) {\r\n        require(executionTime >= block.timestamp.add(_delay), 'EXECUTION_TIME_UNDERESTIMATED');\r\n\r\n        bytes32 actionHash = keccak256(\r\n            abi.encode(target, value, signature, data, executionTime, withDelegatecall)\r\n        );\r\n        _queuedTransactions[actionHash] = true;\r\n\r\n        emit QueuedAction(actionHash, target, value, signature, data, executionTime, withDelegatecall);\r\n        return actionHash;\r\n    }\r\n\r\n    /**\r\n     * @dev Function, called by Governance, that cancels a transaction, returns action hash\r\n     * @param target smart contract target\r\n     * @param value wei value of the transaction\r\n     * @param signature function signature of the transaction\r\n     * @param data function arguments of the transaction or callData if signature empty\r\n     * @param executionTime time at which to execute the transaction\r\n     * @param withDelegatecall boolean, true = transaction delegatecalls the target, else calls the target\r\n     * @return the action Hash of the canceled tx\r\n     **/\r\n    function cancelTransaction(\r\n        address target,\r\n        uint256 value,\r\n        string memory signature,\r\n        bytes memory data,\r\n        uint256 executionTime,\r\n        bool withDelegatecall\r\n    ) public override onlyAdmin returns (bytes32) {\r\n        bytes32 actionHash = keccak256(\r\n            abi.encode(target, value, signature, data, executionTime, withDelegatecall)\r\n        );\r\n        _queuedTransactions[actionHash] = false;\r\n\r\n        emit CancelledAction(actionHash, target, value, signature, data, executionTime, withDelegatecall);\r\n        return actionHash;\r\n    }\r\n\r\n    /**\r\n     * @dev Function, called by Governance, that cancels a transaction, returns the callData executed\r\n     * @param target smart contract target\r\n     * @param value wei value of the transaction\r\n     * @param signature function signature of the transaction\r\n     * @param data function arguments of the transaction or callData if signature empty\r\n     * @param executionTime time at which to execute the transaction\r\n     * @param withDelegatecall boolean, true = transaction delegatecalls the target, else calls the target\r\n     * @return the callData executed as memory bytes\r\n     **/\r\n    function executeTransaction(\r\n        address target,\r\n        uint256 value,\r\n        string memory signature,\r\n        bytes memory data,\r\n        uint256 executionTime,\r\n        bool withDelegatecall\r\n    ) public payable override onlyAdmin returns (bytes memory) {\r\n        bytes32 actionHash = keccak256(\r\n            abi.encode(target, value, signature, data, executionTime, withDelegatecall)\r\n        );\r\n        require(_queuedTransactions[actionHash], 'ACTION_NOT_QUEUED');\r\n        require(block.timestamp >= executionTime, 'TIMELOCK_NOT_FINISHED');\r\n        require(block.timestamp <= executionTime.add(GRACE_PERIOD), 'GRACE_PERIOD_FINISHED');\r\n\r\n        _queuedTransactions[actionHash] = false;\r\n\r\n        bytes memory callData;\r\n\r\n        if (bytes(signature).length == 0) {\r\n            callData = data;\r\n        } else {\r\n            callData = abi.encodePacked(bytes4(keccak256(bytes(signature))), data);\r\n        }\r\n\r\n        bool success;\r\n        bytes memory resultData;\r\n        if (withDelegatecall) {\r\n            require(msg.value >= value, 'NOT_ENOUGH_MSG_VALUE');\r\n            // solium-disable-next-line security/no-call-value\r\n            (success, resultData) = target.delegatecall(callData);\r\n        } else {\r\n            // solium-disable-next-line security/no-call-value\r\n            (success, resultData) = target.call{value: value}(callData);\r\n        }\r\n\r\n        require(success, 'FAILED_ACTION_EXECUTION');\r\n\r\n        emit ExecutedAction(\r\n            actionHash,\r\n            target,\r\n            value,\r\n            signature,\r\n            data,\r\n            executionTime,\r\n            withDelegatecall,\r\n            resultData\r\n        );\r\n\r\n        return resultData;\r\n    }\r\n\r\n    /**\r\n     * @dev Getter of the current admin address (should be governance)\r\n     * @return The address of the current admin\r\n     **/\r\n    function getAdmin() external view override returns (address) {\r\n        return _admin;\r\n    }\r\n\r\n    /**\r\n     * @dev Getter of the current pending admin address\r\n     * @return The address of the pending admin\r\n     **/\r\n    function getPendingAdmin() external view override returns (address) {\r\n        return _pendingAdmin;\r\n    }\r\n\r\n    /**\r\n     * @dev Getter of the delay between queuing and execution\r\n     * @return The delay in seconds\r\n     **/\r\n    function getDelay() external view override returns (uint256) {\r\n        return _delay;\r\n    }\r\n\r\n    /**\r\n     * @dev Returns whether an action (via actionHash) is queued\r\n     * @param actionHash hash of the action to be checked\r\n     * keccak256(abi.encode(target, value, signature, data, executionTime, withDelegatecall))\r\n     * @return true if underlying action of actionHash is queued\r\n     **/\r\n    function isActionQueued(bytes32 actionHash) external view override returns (bool) {\r\n        return _queuedTransactions[actionHash];\r\n    }\r\n\r\n    /**\r\n     * @dev Checks whether a proposal is over its grace period\r\n     * @param governance Governance contract\r\n     * @param proposalId Id of the proposal against which to test\r\n     * @return true of proposal is over grace period\r\n     **/\r\n    function isProposalOverGracePeriod(ISuperKarmaGovernance governance, uint256 proposalId)\r\n        external\r\n        view\r\n        override\r\n        returns (bool)\r\n    {\r\n        ISuperKarmaGovernance.ProposalWithoutVotes memory proposal = governance.getProposalById(proposalId);\r\n\r\n        return (block.timestamp > proposal.executionTime.add(GRACE_PERIOD));\r\n    }\r\n\r\n    function _validateDelay(uint256 delay) internal view {\r\n        require(delay >= MINIMUM_DELAY, 'DELAY_SHORTER_THAN_MINIMUM');\r\n        require(delay <= MAXIMUM_DELAY, 'DELAY_LONGER_THAN_MAXIMUM');\r\n    }\r\n\r\n    receive() external payable {}\r\n}\r\n",
  "sourcePath": "C:\\Users\\James\\projects\\erc20-vue-template\\blockchain\\contracts\\governance\\ExecutorWithTimelock.sol",
  "compiler": {
    "name": "solc",
    "version": "0.7.0+commit.9e61f92b.Emscripten.clang"
  },
  "schemaVersion": "3.3.2",
  "updatedAt": "2021-07-05T19:25:53.498Z",
  "devdoc": {
    "author": "SuperKarma*",
    "details": "Contract that can queue, execute, cancel transactions voted by Governance Queued transactions can be executed after a delay and until Grace period is not over.",
    "kind": "dev",
    "methods": {
      "acceptAdmin()": {
        "details": "Function enabling pending admin to become admin*"
      },
      "cancelTransaction(address,uint256,string,bytes,uint256,bool)": {
        "details": "Function, called by Governance, that cancels a transaction, returns action hash",
        "params": {
          "data": "function arguments of the transaction or callData if signature empty",
          "executionTime": "time at which to execute the transaction",
          "signature": "function signature of the transaction",
          "target": "smart contract target",
          "value": "wei value of the transaction",
          "withDelegatecall": "boolean, true = transaction delegatecalls the target, else calls the target"
        },
        "returns": {
          "_0": "the action Hash of the canceled tx*"
        }
      },
      "constructor": {
        "details": "Constructor",
        "params": {
          "admin": "admin address, that can call the main functions, (Governance)",
          "delay": "minimum time between queueing and execution of proposal",
          "gracePeriod": "time after `delay` while a proposal can be executed",
          "maximumDelay": "upper threhold of `delay`, in seconds*",
          "minimumDelay": "lower threshold of `delay`, in seconds"
        }
      },
      "executeTransaction(address,uint256,string,bytes,uint256,bool)": {
        "details": "Function, called by Governance, that cancels a transaction, returns the callData executed",
        "params": {
          "data": "function arguments of the transaction or callData if signature empty",
          "executionTime": "time at which to execute the transaction",
          "signature": "function signature of the transaction",
          "target": "smart contract target",
          "value": "wei value of the transaction",
          "withDelegatecall": "boolean, true = transaction delegatecalls the target, else calls the target"
        },
        "returns": {
          "_0": "the callData executed as memory bytes*"
        }
      },
      "getAdmin()": {
        "details": "Getter of the current admin address (should be governance)",
        "returns": {
          "_0": "The address of the current admin*"
        }
      },
      "getDelay()": {
        "details": "Getter of the delay between queuing and execution",
        "returns": {
          "_0": "The delay in seconds*"
        }
      },
      "getPendingAdmin()": {
        "details": "Getter of the current pending admin address",
        "returns": {
          "_0": "The address of the pending admin*"
        }
      },
      "isActionQueued(bytes32)": {
        "details": "Returns whether an action (via actionHash) is queued",
        "params": {
          "actionHash": "hash of the action to be checked keccak256(abi.encode(target, value, signature, data, executionTime, withDelegatecall))"
        },
        "returns": {
          "_0": "true if underlying action of actionHash is queued*"
        }
      },
      "isProposalOverGracePeriod(address,uint256)": {
        "details": "Checks whether a proposal is over its grace period",
        "params": {
          "governance": "Governance contract",
          "proposalId": "Id of the proposal against which to test"
        },
        "returns": {
          "_0": "true of proposal is over grace period*"
        }
      },
      "queueTransaction(address,uint256,string,bytes,uint256,bool)": {
        "details": "Function, called by Governance, that queue a transaction, returns action hash",
        "params": {
          "data": "function arguments of the transaction or callData if signature empty",
          "executionTime": "time at which to execute the transaction",
          "signature": "function signature of the transaction",
          "target": "smart contract target",
          "value": "wei value of the transaction",
          "withDelegatecall": "boolean, true = transaction delegatecalls the target, else calls the target"
        },
        "returns": {
          "_0": "the action Hash*"
        }
      },
      "setDelay(uint256)": {
        "details": "Set the delay",
        "params": {
          "delay": "delay between queue and execution of proposal*"
        }
      },
      "setPendingAdmin(address)": {
        "details": "Setting a new pending admin (that can then become admin) Can only be called by this executor (i.e via proposal)",
        "params": {
          "newPendingAdmin": "address of the new admin*"
        }
      }
    },
    "stateVariables": {
      "GRACE_PERIOD": {
        "details": "Getter of grace period constant",
        "return": "grace period in seconds*"
      },
      "MAXIMUM_DELAY": {
        "details": "Getter of maximum delay constant",
        "return": "maximum delay in seconds*"
      },
      "MINIMUM_DELAY": {
        "details": "Getter of minimum delay constant",
        "return": "minimum delay in seconds*"
      }
    },
    "title": "Time Locked Executor Contract, inherited by SuperKarma Governance Executors",
    "version": 1
  },
  "userdoc": {
    "kind": "user",
    "methods": {},
    "version": 1
  }
}