{
  "contractName": "Executor",
  "abi": [
    {
      "inputs": [
        {
          "internalType": "address",
          "name": "admin",
          "type": "address"
        },
        {
          "internalType": "uint256",
          "name": "delay",
          "type": "uint256"
        },
        {
          "internalType": "uint256",
          "name": "gracePeriod",
          "type": "uint256"
        },
        {
          "internalType": "uint256",
          "name": "minimumDelay",
          "type": "uint256"
        },
        {
          "internalType": "uint256",
          "name": "maximumDelay",
          "type": "uint256"
        },
        {
          "internalType": "uint256",
          "name": "propositionThreshold",
          "type": "uint256"
        },
        {
          "internalType": "uint256",
          "name": "voteDuration",
          "type": "uint256"
        },
        {
          "internalType": "uint256",
          "name": "voteDifferential",
          "type": "uint256"
        },
        {
          "internalType": "uint256",
          "name": "minimumQuorum",
          "type": "uint256"
        }
      ],
      "stateMutability": "nonpayable",
      "type": "constructor"
    },
    {
      "anonymous": false,
      "inputs": [
        {
          "indexed": false,
          "internalType": "bytes32",
          "name": "actionHash",
          "type": "bytes32"
        },
        {
          "indexed": true,
          "internalType": "address",
          "name": "target",
          "type": "address"
        },
        {
          "indexed": false,
          "internalType": "uint256",
          "name": "value",
          "type": "uint256"
        },
        {
          "indexed": false,
          "internalType": "string",
          "name": "signature",
          "type": "string"
        },
        {
          "indexed": false,
          "internalType": "bytes",
          "name": "data",
          "type": "bytes"
        },
        {
          "indexed": false,
          "internalType": "uint256",
          "name": "executionTime",
          "type": "uint256"
        },
        {
          "indexed": false,
          "internalType": "bool",
          "name": "withDelegatecall",
          "type": "bool"
        }
      ],
      "name": "CancelledAction",
      "type": "event"
    },
    {
      "anonymous": false,
      "inputs": [
        {
          "indexed": false,
          "internalType": "bytes32",
          "name": "actionHash",
          "type": "bytes32"
        },
        {
          "indexed": true,
          "internalType": "address",
          "name": "target",
          "type": "address"
        },
        {
          "indexed": false,
          "internalType": "uint256",
          "name": "value",
          "type": "uint256"
        },
        {
          "indexed": false,
          "internalType": "string",
          "name": "signature",
          "type": "string"
        },
        {
          "indexed": false,
          "internalType": "bytes",
          "name": "data",
          "type": "bytes"
        },
        {
          "indexed": false,
          "internalType": "uint256",
          "name": "executionTime",
          "type": "uint256"
        },
        {
          "indexed": false,
          "internalType": "bool",
          "name": "withDelegatecall",
          "type": "bool"
        },
        {
          "indexed": false,
          "internalType": "bytes",
          "name": "resultData",
          "type": "bytes"
        }
      ],
      "name": "ExecutedAction",
      "type": "event"
    },
    {
      "anonymous": false,
      "inputs": [
        {
          "indexed": false,
          "internalType": "address",
          "name": "newAdmin",
          "type": "address"
        }
      ],
      "name": "NewAdmin",
      "type": "event"
    },
    {
      "anonymous": false,
      "inputs": [
        {
          "indexed": false,
          "internalType": "uint256",
          "name": "delay",
          "type": "uint256"
        }
      ],
      "name": "NewDelay",
      "type": "event"
    },
    {
      "anonymous": false,
      "inputs": [
        {
          "indexed": false,
          "internalType": "address",
          "name": "newPendingAdmin",
          "type": "address"
        }
      ],
      "name": "NewPendingAdmin",
      "type": "event"
    },
    {
      "anonymous": false,
      "inputs": [
        {
          "indexed": false,
          "internalType": "bytes32",
          "name": "actionHash",
          "type": "bytes32"
        },
        {
          "indexed": true,
          "internalType": "address",
          "name": "target",
          "type": "address"
        },
        {
          "indexed": false,
          "internalType": "uint256",
          "name": "value",
          "type": "uint256"
        },
        {
          "indexed": false,
          "internalType": "string",
          "name": "signature",
          "type": "string"
        },
        {
          "indexed": false,
          "internalType": "bytes",
          "name": "data",
          "type": "bytes"
        },
        {
          "indexed": false,
          "internalType": "uint256",
          "name": "executionTime",
          "type": "uint256"
        },
        {
          "indexed": false,
          "internalType": "bool",
          "name": "withDelegatecall",
          "type": "bool"
        }
      ],
      "name": "QueuedAction",
      "type": "event"
    },
    {
      "inputs": [],
      "name": "GRACE_PERIOD",
      "outputs": [
        {
          "internalType": "uint256",
          "name": "",
          "type": "uint256"
        }
      ],
      "stateMutability": "view",
      "type": "function",
      "constant": true
    },
    {
      "inputs": [],
      "name": "MAXIMUM_DELAY",
      "outputs": [
        {
          "internalType": "uint256",
          "name": "",
          "type": "uint256"
        }
      ],
      "stateMutability": "view",
      "type": "function",
      "constant": true
    },
    {
      "inputs": [],
      "name": "MINIMUM_DELAY",
      "outputs": [
        {
          "internalType": "uint256",
          "name": "",
          "type": "uint256"
        }
      ],
      "stateMutability": "view",
      "type": "function",
      "constant": true
    },
    {
      "inputs": [],
      "name": "MINIMUM_QUORUM",
      "outputs": [
        {
          "internalType": "uint256",
          "name": "",
          "type": "uint256"
        }
      ],
      "stateMutability": "view",
      "type": "function",
      "constant": true
    },
    {
      "inputs": [],
      "name": "ONE_HUNDRED_WITH_PRECISION",
      "outputs": [
        {
          "internalType": "uint256",
          "name": "",
          "type": "uint256"
        }
      ],
      "stateMutability": "view",
      "type": "function",
      "constant": true
    },
    {
      "inputs": [],
      "name": "PROPOSITION_THRESHOLD",
      "outputs": [
        {
          "internalType": "uint256",
          "name": "",
          "type": "uint256"
        }
      ],
      "stateMutability": "view",
      "type": "function",
      "constant": true
    },
    {
      "inputs": [],
      "name": "VOTE_DIFFERENTIAL",
      "outputs": [
        {
          "internalType": "uint256",
          "name": "",
          "type": "uint256"
        }
      ],
      "stateMutability": "view",
      "type": "function",
      "constant": true
    },
    {
      "inputs": [],
      "name": "VOTING_DURATION",
      "outputs": [
        {
          "internalType": "uint256",
          "name": "",
          "type": "uint256"
        }
      ],
      "stateMutability": "view",
      "type": "function",
      "constant": true
    },
    {
      "inputs": [],
      "name": "acceptAdmin",
      "outputs": [],
      "stateMutability": "nonpayable",
      "type": "function"
    },
    {
      "inputs": [
        {
          "internalType": "address",
          "name": "target",
          "type": "address"
        },
        {
          "internalType": "uint256",
          "name": "value",
          "type": "uint256"
        },
        {
          "internalType": "string",
          "name": "signature",
          "type": "string"
        },
        {
          "internalType": "bytes",
          "name": "data",
          "type": "bytes"
        },
        {
          "internalType": "uint256",
          "name": "executionTime",
          "type": "uint256"
        },
        {
          "internalType": "bool",
          "name": "withDelegatecall",
          "type": "bool"
        }
      ],
      "name": "cancelTransaction",
      "outputs": [
        {
          "internalType": "bytes32",
          "name": "",
          "type": "bytes32"
        }
      ],
      "stateMutability": "nonpayable",
      "type": "function"
    },
    {
      "inputs": [
        {
          "internalType": "address",
          "name": "target",
          "type": "address"
        },
        {
          "internalType": "uint256",
          "name": "value",
          "type": "uint256"
        },
        {
          "internalType": "string",
          "name": "signature",
          "type": "string"
        },
        {
          "internalType": "bytes",
          "name": "data",
          "type": "bytes"
        },
        {
          "internalType": "uint256",
          "name": "executionTime",
          "type": "uint256"
        },
        {
          "internalType": "bool",
          "name": "withDelegatecall",
          "type": "bool"
        }
      ],
      "name": "executeTransaction",
      "outputs": [
        {
          "internalType": "bytes",
          "name": "",
          "type": "bytes"
        }
      ],
      "stateMutability": "payable",
      "type": "function",
      "payable": true
    },
    {
      "inputs": [],
      "name": "getAdmin",
      "outputs": [
        {
          "internalType": "address",
          "name": "",
          "type": "address"
        }
      ],
      "stateMutability": "view",
      "type": "function",
      "constant": true
    },
    {
      "inputs": [],
      "name": "getDelay",
      "outputs": [
        {
          "internalType": "uint256",
          "name": "",
          "type": "uint256"
        }
      ],
      "stateMutability": "view",
      "type": "function",
      "constant": true
    },
    {
      "inputs": [
        {
          "internalType": "contract ISuperKarmaGovernance",
          "name": "governance",
          "type": "address"
        },
        {
          "internalType": "uint256",
          "name": "blockNumber",
          "type": "uint256"
        }
      ],
      "name": "getMinimumPropositionPowerNeeded",
      "outputs": [
        {
          "internalType": "uint256",
          "name": "",
          "type": "uint256"
        }
      ],
      "stateMutability": "view",
      "type": "function",
      "constant": true
    },
    {
      "inputs": [
        {
          "internalType": "uint256",
          "name": "votingSupply",
          "type": "uint256"
        }
      ],
      "name": "getMinimumVotingPowerNeeded",
      "outputs": [
        {
          "internalType": "uint256",
          "name": "",
          "type": "uint256"
        }
      ],
      "stateMutability": "view",
      "type": "function",
      "constant": true
    },
    {
      "inputs": [],
      "name": "getPendingAdmin",
      "outputs": [
        {
          "internalType": "address",
          "name": "",
          "type": "address"
        }
      ],
      "stateMutability": "view",
      "type": "function",
      "constant": true
    },
    {
      "inputs": [
        {
          "internalType": "bytes32",
          "name": "actionHash",
          "type": "bytes32"
        }
      ],
      "name": "isActionQueued",
      "outputs": [
        {
          "internalType": "bool",
          "name": "",
          "type": "bool"
        }
      ],
      "stateMutability": "view",
      "type": "function",
      "constant": true
    },
    {
      "inputs": [
        {
          "internalType": "contract ISuperKarmaGovernance",
          "name": "governance",
          "type": "address"
        },
        {
          "internalType": "uint256",
          "name": "proposalId",
          "type": "uint256"
        }
      ],
      "name": "isProposalOverGracePeriod",
      "outputs": [
        {
          "internalType": "bool",
          "name": "",
          "type": "bool"
        }
      ],
      "stateMutability": "view",
      "type": "function",
      "constant": true
    },
    {
      "inputs": [
        {
          "internalType": "contract ISuperKarmaGovernance",
          "name": "governance",
          "type": "address"
        },
        {
          "internalType": "uint256",
          "name": "proposalId",
          "type": "uint256"
        }
      ],
      "name": "isProposalPassed",
      "outputs": [
        {
          "internalType": "bool",
          "name": "",
          "type": "bool"
        }
      ],
      "stateMutability": "view",
      "type": "function",
      "constant": true
    },
    {
      "inputs": [
        {
          "internalType": "contract ISuperKarmaGovernance",
          "name": "governance",
          "type": "address"
        },
        {
          "internalType": "address",
          "name": "user",
          "type": "address"
        },
        {
          "internalType": "uint256",
          "name": "blockNumber",
          "type": "uint256"
        }
      ],
      "name": "isPropositionPowerEnough",
      "outputs": [
        {
          "internalType": "bool",
          "name": "",
          "type": "bool"
        }
      ],
      "stateMutability": "view",
      "type": "function",
      "constant": true
    },
    {
      "inputs": [
        {
          "internalType": "contract ISuperKarmaGovernance",
          "name": "governance",
          "type": "address"
        },
        {
          "internalType": "uint256",
          "name": "proposalId",
          "type": "uint256"
        }
      ],
      "name": "isQuorumValid",
      "outputs": [
        {
          "internalType": "bool",
          "name": "",
          "type": "bool"
        }
      ],
      "stateMutability": "view",
      "type": "function",
      "constant": true
    },
    {
      "inputs": [
        {
          "internalType": "contract ISuperKarmaGovernance",
          "name": "governance",
          "type": "address"
        },
        {
          "internalType": "uint256",
          "name": "proposalId",
          "type": "uint256"
        }
      ],
      "name": "isVoteDifferentialValid",
      "outputs": [
        {
          "internalType": "bool",
          "name": "",
          "type": "bool"
        }
      ],
      "stateMutability": "view",
      "type": "function",
      "constant": true
    },
    {
      "inputs": [
        {
          "internalType": "address",
          "name": "target",
          "type": "address"
        },
        {
          "internalType": "uint256",
          "name": "value",
          "type": "uint256"
        },
        {
          "internalType": "string",
          "name": "signature",
          "type": "string"
        },
        {
          "internalType": "bytes",
          "name": "data",
          "type": "bytes"
        },
        {
          "internalType": "uint256",
          "name": "executionTime",
          "type": "uint256"
        },
        {
          "internalType": "bool",
          "name": "withDelegatecall",
          "type": "bool"
        }
      ],
      "name": "queueTransaction",
      "outputs": [
        {
          "internalType": "bytes32",
          "name": "",
          "type": "bytes32"
        }
      ],
      "stateMutability": "nonpayable",
      "type": "function"
    },
    {
      "inputs": [
        {
          "internalType": "uint256",
          "name": "delay",
          "type": "uint256"
        }
      ],
      "name": "setDelay",
      "outputs": [],
      "stateMutability": "nonpayable",
      "type": "function"
    },
    {
      "inputs": [
        {
          "internalType": "address",
          "name": "newPendingAdmin",
          "type": "address"
        }
      ],
      "name": "setPendingAdmin",
      "outputs": [],
      "stateMutability": "nonpayable",
      "type": "function"
    },
    {
      "inputs": [
        {
          "internalType": "contract ISuperKarmaGovernance",
          "name": "governance",
          "type": "address"
        },
        {
          "internalType": "address",
          "name": "user",
          "type": "address"
        },
        {
          "internalType": "uint256",
          "name": "blockNumber",
          "type": "uint256"
        }
      ],
      "name": "validateCreatorOfProposal",
      "outputs": [
        {
          "internalType": "bool",
          "name": "",
          "type": "bool"
        }
      ],
      "stateMutability": "view",
      "type": "function",
      "constant": true
    },
    {
      "inputs": [
        {
          "internalType": "contract ISuperKarmaGovernance",
          "name": "governance",
          "type": "address"
        },
        {
          "internalType": "address",
          "name": "user",
          "type": "address"
        },
        {
          "internalType": "uint256",
          "name": "blockNumber",
          "type": "uint256"
        }
      ],
      "name": "validateProposalCancellation",
      "outputs": [
        {
          "internalType": "bool",
          "name": "",
          "type": "bool"
        }
      ],
      "stateMutability": "view",
      "type": "function",
      "constant": true
    },
    {
      "stateMutability": "payable",
      "type": "receive",
      "payable": true
    }
  ],
  "bytecode": "0x6101606040523480156200001257600080fd5b506040516200212b3803806200212b833981016040819052620000359162000159565b838383838c8c8c8c8c818410156200006a5760405162461bcd60e51b81526004016200006190620001ed565b60405180910390fd5b808411156200008d5760405162461bcd60e51b8152600401620000619062000224565b6002849055600080546001600160a01b0319166001600160a01b038716179055608083905260a082905260c08190526040517f948b1f6a42ee138b7e34058ba85a37f716d55ff25ff05a763f15bed6a04c8d2c90620000ee9086906200025b565b60405180910390a17f71614071b88dee5e0b2ae578a9dd7b2ebbe9ae832ba419dc0242cd065a290b6c85604051620001279190620001d9565b60405180910390a150505060e09590955250610100929092526101205261014052506200026498505050505050505050565b60008060008060008060008060006101208a8c03121562000178578485fd5b89516001600160a01b03811681146200018f578586fd5b8099505060208a0151975060408a0151965060608a0151955060808a0151945060a08a0151935060c08a0151925060e08a015191506101008a015190509295985092959850929598565b6001600160a01b0391909116815260200190565b6020808252601a908201527f44454c41595f53484f525445525f5448414e5f4d494e494d554d000000000000604082015260600190565b60208082526019908201527f44454c41595f4c4f4e4745525f5448414e5f4d4158494d554d00000000000000604082015260600190565b90815260200190565b60805160a05160c05160e051610100516101205161014051611e50620002db60003980610ea65280610fba5250806108fa5280610d2d525080610d5152508061105f52806111c952508061096d52806112be525080610eca528061127e525080610a465280610f0352806111995250611e506000f3fe6080604052600436106101a05760003560e01c8063a438d208116100ec578063d04681561161008a578063e50f840011610064578063e50f840014610445578063f48cb13414610465578063f670a5f914610485578063fd58afd4146104a5576101a7565b8063d0468156146103f0578063d0d9029814610405578063e177246e14610425576101a7565b8063b1b43ae5116100c6578063b1b43ae514610391578063b1fc8796146103a6578063c1a287e2146103c6578063cebc9a82146103db576101a7565b8063a438d20814610347578063ace432091461035c578063b159beac1461037c576101a7565b806366121042116101595780637d645fab116101335780637d645fab146102dd5780638902ab65146102f25780638d8fe2e3146103125780639125fb5814610332576101a7565b8063661210421461027b5780636e9960c31461029b5780637aa50080146102bd576101a7565b806306fbb3ab146101ac5780630e18b681146101e25780631d73fd6d146101f95780631dc40b511461021b57806331a7bc411461023b5780634dd18bf51461025b576101a7565b366101a757005b600080fd5b3480156101b857600080fd5b506101cc6101c7366004611703565b6104ba565b6040516101d991906119ee565b60405180910390f35b3480156101ee57600080fd5b506101f76104e0565b005b34801561020557600080fd5b5061020e61056a565b6040516101d991906119f9565b34801561022757600080fd5b5061020e610236366004611611565b610570565b34801561024757600080fd5b506101cc6102563660046116c3565b61063c565b34801561026757600080fd5b506101f76102763660046115d9565b610652565b34801561028757600080fd5b506101cc6102963660046116c3565b6106c7565b3480156102a757600080fd5b506102b06107d0565b6040516101d9919061196d565b3480156102c957600080fd5b506101cc6102d8366004611703565b6107df565b3480156102e957600080fd5b5061020e61096b565b610305610300366004611611565b61098f565b6040516101d99190611a82565b34801561031e57600080fd5b5061020e61032d366004611611565b610c42565b34801561033e57600080fd5b5061020e610d2b565b34801561035357600080fd5b5061020e610d4f565b34801561036857600080fd5b506101cc610377366004611703565b610d73565b34801561038857600080fd5b5061020e610ea4565b34801561039d57600080fd5b5061020e610ec8565b3480156103b257600080fd5b506101cc6103c13660046116ab565b610eec565b3480156103d257600080fd5b5061020e610f01565b3480156103e757600080fd5b5061020e610f25565b3480156103fc57600080fd5b506102b0610f2b565b34801561041157600080fd5b506101cc6104203660046116c3565b610f3a565b34801561043157600080fd5b506101f76104403660046116ab565b610f4f565b34801561045157600080fd5b5061020e6104603660046116ab565b610fac565b34801561047157600080fd5b5061020e610480366004611703565b610fde565b34801561049157600080fd5b506101cc6104a0366004611703565b611100565b3480156104b157600080fd5b5061020e6111c7565b60006104c68383610d73565b80156104d757506104d783836107df565b90505b92915050565b6001546001600160a01b031633146105135760405162461bcd60e51b815260040161050a90611a95565b60405180910390fd5b60008054336001600160a01b031991821681179092556001805490911690556040517f71614071b88dee5e0b2ae578a9dd7b2ebbe9ae832ba419dc0242cd065a290b6c916105609161196d565b60405180910390a1565b61271081565b600080546001600160a01b0316331461059b5760405162461bcd60e51b815260040161050a90611c10565b60008787878787876040516020016105b89695949392919061199a565b60408051601f19818403018152828252805160209182012060008181526003909252919020805460ff1916905591506001600160a01b038916907f87c481aa909c37502caa37394ab791c26b68fa4fa5ae56de104de36444ae9069906106299084908b908b908b908b908b90611a02565b60405180910390a2979650505050505050565b60006106498484846106c7565b15949350505050565b3330146106715760405162461bcd60e51b815260040161050a90611d2d565b600180546001600160a01b0319166001600160a01b0383161790556040517f69d78e38a01985fbb1462961809b4b2d65531bc93b2b94037f3334b82ca4a756906106bc90839061196d565b60405180910390a150565b600080846001600160a01b03166306be3e8e6040518163ffffffff1660e01b815260040160206040518083038186803b15801561070357600080fd5b505afa158015610717573d6000803e3d6000fd5b505050506040513d601f19601f8201168201806040525081019061073b91906115f5565b90506107478584610fde565b604051631420edcb60e31b81526001600160a01b0383169063a1076e58906107759088908890600401611981565b60206040518083038186803b15801561078d57600080fd5b505afa1580156107a1573d6000803e3d6000fd5b505050506040513d601f19601f820116820180604052508101906107c591906118dc565b101595945050505050565b6000546001600160a01b031690565b60006107e96112ff565b604051633656de2160e01b81526001600160a01b03851690633656de21906108159086906004016119f9565b60006040518083038186803b15801561082d57600080fd5b505afa158015610841573d6000803e3d6000fd5b505050506040513d6000823e601f3d908101601f19168201604052610869919081019061172e565b90506000816101e001516001600160a01b0316637a71f9d78361010001516040518263ffffffff1660e01b81526004016108a391906119f9565b60206040518083038186803b1580156108bb57600080fd5b505afa1580156108cf573d6000803e3d6000fd5b505050506040513d601f19601f820116820180604052508101906108f391906118dc565b90506109437f000000000000000000000000000000000000000000000000000000000000000061093d836109376127108761018001516111eb90919063ffffffff16565b90611225565b90611257565b610961826109376127108661016001516111eb90919063ffffffff16565b1195945050505050565b7f000000000000000000000000000000000000000000000000000000000000000081565b6000546060906001600160a01b031633146109bc5760405162461bcd60e51b815260040161050a90611c10565b60008787878787876040516020016109d99695949392919061199a565b60408051601f1981840301815291815281516020928301206000818152600390935291205490915060ff16610a205760405162461bcd60e51b815260040161050a90611c66565b83421015610a405760405162461bcd60e51b815260040161050a90611b32565b610a6a847f0000000000000000000000000000000000000000000000000000000000000000611257565b421115610a895760405162461bcd60e51b815260040161050a90611c37565b6000818152600360205260409020805460ff191690558551606090610aaf575084610adb565b868051906020012086604051602001610ac9929190611920565b60405160208183030381529060405290505b600060608515610b685789341015610b055760405162461bcd60e51b815260040161050a90611cff565b8a6001600160a01b031683604051610b1d9190611951565b600060405180830381855af49150503d8060008114610b58576040519150601f19603f3d011682016040523d82523d6000602084013e610b5d565b606091505b509092509050610bca565b8a6001600160a01b03168a84604051610b819190611951565b60006040518083038185875af1925050503d8060008114610bbe576040519150601f19603f3d011682016040523d82523d6000602084013e610bc3565b606091505b5090925090505b81610be75760405162461bcd60e51b815260040161050a90611c91565b8a6001600160a01b03167f97825080b472fa91fe888b62ec128814d60dec546a2dafb955e50923f4a1b7e7858c8c8c8c8c88604051610c2c9796959493929190611a21565b60405180910390a29a9950505050505050505050565b600080546001600160a01b03163314610c6d5760405162461bcd60e51b815260040161050a90611c10565b600254610c7b904290611257565b831015610c9a5760405162461bcd60e51b815260040161050a90611b61565b6000878787878787604051602001610cb79695949392919061199a565b60408051601f19818403018152828252805160209182012060008181526003909252919020805460ff1916600117905591506001600160a01b038916907f2191aed4c4733c76e08a9e7e1da0b8d87fa98753f22df49231ddc66e0f05f022906106299084908b908b908b908b908b90611a02565b7f000000000000000000000000000000000000000000000000000000000000000081565b7f000000000000000000000000000000000000000000000000000000000000000081565b6000610d7d6112ff565b604051633656de2160e01b81526001600160a01b03851690633656de2190610da99086906004016119f9565b60006040518083038186803b158015610dc157600080fd5b505afa158015610dd5573d6000803e3d6000fd5b505050506040513d6000823e601f3d908101601f19168201604052610dfd919081019061172e565b90506000816101e001516001600160a01b0316637a71f9d78361010001516040518263ffffffff1660e01b8152600401610e3791906119f9565b60206040518083038186803b158015610e4f57600080fd5b505afa158015610e63573d6000803e3d6000fd5b505050506040513d601f19601f82011682018060405250810190610e8791906118dc565b9050610e9281610fac565b82610160015110159250505092915050565b7f000000000000000000000000000000000000000000000000000000000000000081565b7f000000000000000000000000000000000000000000000000000000000000000081565b60009081526003602052604090205460ff1690565b7f000000000000000000000000000000000000000000000000000000000000000081565b60025490565b6001546001600160a01b031690565b6000610f478484846106c7565b949350505050565b333014610f6e5760405162461bcd60e51b815260040161050a90611d2d565b610f778161127c565b60028190556040517f948b1f6a42ee138b7e34058ba85a37f716d55ff25ff05a763f15bed6a04c8d2c906106bc9083906119f9565b60006104da612710610937847f00000000000000000000000000000000000000000000000000000000000000006111eb565b600080836001600160a01b03166306be3e8e6040518163ffffffff1660e01b815260040160206040518083038186803b15801561101a57600080fd5b505afa15801561102e573d6000803e3d6000fd5b505050506040513d601f19601f8201168201806040525081019061105291906115f5565b9050610f476127106109377f0000000000000000000000000000000000000000000000000000000000000000846001600160a01b031663f6b50203886040518263ffffffff1660e01b81526004016110aa91906119f9565b60206040518083038186803b1580156110c257600080fd5b505afa1580156110d6573d6000803e3d6000fd5b505050506040513d601f19601f820116820180604052508101906110fa91906118dc565b906111eb565b600061110a6112ff565b604051633656de2160e01b81526001600160a01b03851690633656de21906111369086906004016119f9565b60006040518083038186803b15801561114e57600080fd5b505afa158015611162573d6000803e3d6000fd5b505050506040513d6000823e601f3d908101601f1916820160405261118a919081019061172e565b6101408101519091506111bd907f0000000000000000000000000000000000000000000000000000000000000000611257565b4211949350505050565b7f000000000000000000000000000000000000000000000000000000000000000081565b6000826111fa575060006104da565b8282028284828161120757fe5b04146104d75760405162461bcd60e51b815260040161050a90611b98565b60008082116112465760405162461bcd60e51b815260040161050a90611afb565b81838161124f57fe5b049392505050565b6000828201838110156104d75760405162461bcd60e51b815260040161050a90611ac4565b7f00000000000000000000000000000000000000000000000000000000000000008110156112bc5760405162461bcd60e51b815260040161050a90611bd9565b7f00000000000000000000000000000000000000000000000000000000000000008111156112fc5760405162461bcd60e51b815260040161050a90611cc8565b50565b6040518061022001604052806000815260200160006001600160a01b0316815260200160006001600160a01b031681526020016060815260200160608152602001606081526020016060815260200160608152602001600081526020016000815260200160008152602001600081526020016000815260200160001515815260200160001515815260200160006001600160a01b03168152602001600080191681525090565b80516104da81611df7565b600082601f8301126113c0578081fd5b81516113d36113ce82611d83565b611d5c565b8181529150602080830190848101818402860182018710156113f457600080fd5b60005b8481101561141c57815161140a81611df7565b845292820192908201906001016113f7565b505050505092915050565b600082601f830112611437578081fd5b81516114456113ce82611d83565b81815291506020808301908481018184028601820187101561146657600080fd5b60005b8481101561141c57815161147c81611e0c565b84529282019290820190600101611469565b600082601f83011261149e578081fd5b81516114ac6113ce82611d83565b818152915060208083019084810160005b8481101561141c578151870188603f8201126114d857600080fd5b838101516114e86113ce82611da3565b81815260408b818486010111156114fe57600080fd5b61150d83888401838701611dc7565b508652505092820192908201906001016114bd565b600082601f830112611532578081fd5b81516115406113ce82611d83565b81815291506020808301908481018184028601820187101561156157600080fd5b60005b8481101561141c57815184529282019290820190600101611564565b80516104da81611e0c565b600082601f83011261159b578081fd5b81356115a96113ce82611da3565b91508082528360208285010111156115c057600080fd5b8060208401602084013760009082016020015292915050565b6000602082840312156115ea578081fd5b81356104d781611df7565b600060208284031215611606578081fd5b81516104d781611df7565b60008060008060008060c08789031215611629578182fd5b863561163481611df7565b955060208701359450604087013567ffffffffffffffff80821115611657578384fd5b6116638a838b0161158b565b95506060890135915080821115611678578384fd5b5061168589828a0161158b565b9350506080870135915060a087013561169d81611e0c565b809150509295509295509295565b6000602082840312156116bc578081fd5b5035919050565b6000806000606084860312156116d7578081fd5b83356116e281611df7565b925060208401356116f281611df7565b929592945050506040919091013590565b60008060408385031215611715578182fd5b823561172081611df7565b946020939093013593505050565b60006020828403121561173f578081fd5b815167ffffffffffffffff80821115611756578283fd5b818401915061022080838703121561176c578384fd5b61177581611d5c565b90508251815261178886602085016113a5565b602082015261179a86604085016113a5565b60408201526060830151828111156117b0578485fd5b6117bc878286016113b0565b6060830152506080830151828111156117d3578485fd5b6117df87828601611522565b60808301525060a0830151828111156117f6578485fd5b6118028782860161148e565b60a08301525060c083015182811115611819578485fd5b6118258782860161148e565b60c08301525060e08301518281111561183c578485fd5b61184887828601611427565b60e083015250610100838101519082015261012080840151908201526101408084015190820152610160808401519082015261018080840151908201526101a0915061189686838501611580565b828201526101c091506118ab86838501611580565b828201526101e091506118c0868385016113a5565b9181019190915261020091820151918101919091529392505050565b6000602082840312156118ed578081fd5b5051919050565b6000815180845261190c816020860160208601611dc7565b601f01601f19169290920160200192915050565b6001600160e01b0319831681528151600090611943816004850160208701611dc7565b919091016004019392505050565b60008251611963818460208701611dc7565b9190910192915050565b6001600160a01b0391909116815260200190565b6001600160a01b03929092168252602082015260400190565b600060018060a01b038816825286602083015260c060408301526119c160c08301876118f4565b82810360608401526119d381876118f4565b6080840195909552505090151560a090910152949350505050565b901515815260200190565b90815260200190565b600087825286602083015260c060408301526119c160c08301876118f4565b600088825287602083015260e06040830152611a4060e08301886118f4565b8281036060840152611a5281886118f4565b905085608084015284151560a084015282810360c0840152611a7481856118f4565b9a9950505050505050505050565b6000602082526104d760208301846118f4565b60208082526015908201527427a7262cafa12cafa822a72224a723afa0a226a4a760591b604082015260600190565b6020808252601b908201527f536166654d6174683a206164646974696f6e206f766572666c6f770000000000604082015260600190565b6020808252601a908201527f536166654d6174683a206469766973696f6e206279207a65726f000000000000604082015260600190565b602080825260159082015274151253515313d0d2d7d393d517d192539254d21151605a1b604082015260600190565b6020808252601d908201527f455845435554494f4e5f54494d455f554e444552455354494d41544544000000604082015260600190565b60208082526021908201527f536166654d6174683a206d756c7469706c69636174696f6e206f766572666c6f6040820152607760f81b606082015260800190565b6020808252601a908201527f44454c41595f53484f525445525f5448414e5f4d494e494d554d000000000000604082015260600190565b6020808252600d908201526c27a7262cafa12cafa0a226a4a760991b604082015260600190565b60208082526015908201527411d49050d157d411549253d117d192539254d21151605a1b604082015260600190565b6020808252601190820152701050d51253d397d393d517d45551555151607a1b604082015260600190565b60208082526017908201527f4641494c45445f414354494f4e5f455845435554494f4e000000000000000000604082015260600190565b60208082526019908201527f44454c41595f4c4f4e4745525f5448414e5f4d4158494d554d00000000000000604082015260600190565b6020808252601490820152734e4f545f454e4f5547485f4d53475f56414c554560601b604082015260600190565b6020808252601590820152744f4e4c595f42595f544849535f54494d454c4f434b60581b604082015260600190565b60405181810167ffffffffffffffff81118282101715611d7b57600080fd5b604052919050565b600067ffffffffffffffff821115611d99578081fd5b5060209081020190565b600067ffffffffffffffff821115611db9578081fd5b50601f01601f191660200190565b60005b83811015611de2578181015183820152602001611dca565b83811115611df1576000848401525b50505050565b6001600160a01b03811681146112fc57600080fd5b80151581146112fc57600080fdfea26469706673582212201381db5a7b90a5f84a3be06d1342431862e1afc6769177cba2f1259fd1cb64e164736f6c63430007000033",
  "immutableReferences": {
    "2570": [
      {
        "length": 32,
        "start": 2630
      },
      {
        "length": 32,
        "start": 3843
      },
      {
        "length": 32,
        "start": 4505
      }
    ],
    "2573": [
      {
        "length": 32,
        "start": 3786
      },
      {
        "length": 32,
        "start": 4734
      }
    ],
    "2576": [
      {
        "length": 32,
        "start": 2413
      },
      {
        "length": 32,
        "start": 4798
      }
    ],
    "3297": [
      {
        "length": 32,
        "start": 4191
      },
      {
        "length": 32,
        "start": 4553
      }
    ],
    "3300": [
      {
        "length": 32,
        "start": 3409
      }
    ],
    "3303": [
      {
        "length": 32,
        "start": 2298
      },
      {
        "length": 32,
        "start": 3373
      }
    ],
    "3306": [
      {
        "length": 32,
        "start": 3750
      },
      {
        "length": 32,
        "start": 4026
      }
    ]
  },
  "source": "// SPDX-License-Identifier: agpl-3.0\r\npragma solidity 0.7.0;\r\npragma experimental ABIEncoderV2;\r\n\r\nimport {ExecutorWithTimelock} from './ExecutorWithTimelock.sol';\r\nimport {ProposalValidator} from './ProposalValidator.sol';\r\n\r\n/**\r\n * @title Time Locked, Validator, Executor Contract\r\n * @dev Contract\r\n * - Validate Proposal creations/ cancellation\r\n * - Validate Vote Quorum and Vote success on proposal\r\n * - Queue, Execute, Cancel, successful proposals' transactions.\r\n * @author Aave\r\n **/\r\ncontract Executor is ExecutorWithTimelock, ProposalValidator {\r\n    constructor(\r\n        address admin,\r\n        uint256 delay,\r\n        uint256 gracePeriod,\r\n        uint256 minimumDelay,\r\n        uint256 maximumDelay,\r\n        uint256 propositionThreshold,\r\n        uint256 voteDuration,\r\n        uint256 voteDifferential,\r\n        uint256 minimumQuorum\r\n    )\r\n        public\r\n        ExecutorWithTimelock(admin, delay, gracePeriod, minimumDelay, maximumDelay)\r\n        ProposalValidator(propositionThreshold, voteDuration, voteDifferential, minimumQuorum)\r\n    {}\r\n}\r\n",
  "sourcePath": "C:/Users/James/projects/erc20-vue-template/blockchain/contracts/governance/Executor.sol",
  "compiler": {
    "name": "solc",
    "version": "0.7.0+commit.9e61f92b.Emscripten.clang"
  },
  "schemaVersion": "3.3.2",
  "updatedAt": "2021-07-05T19:32:25.655Z",
  "networkType": "ethereum",
  "devdoc": {
    "author": "Aave*",
    "details": "Contract - Validate Proposal creations/ cancellation - Validate Vote Quorum and Vote success on proposal - Queue, Execute, Cancel, successful proposals' transactions.",
    "kind": "dev",
    "methods": {
      "acceptAdmin()": {
        "details": "Function enabling pending admin to become admin*"
      },
      "cancelTransaction(address,uint256,string,bytes,uint256,bool)": {
        "details": "Function, called by Governance, that cancels a transaction, returns action hash",
        "params": {
          "data": "function arguments of the transaction or callData if signature empty",
          "executionTime": "time at which to execute the transaction",
          "signature": "function signature of the transaction",
          "target": "smart contract target",
          "value": "wei value of the transaction",
          "withDelegatecall": "boolean, true = transaction delegatecalls the target, else calls the target"
        },
        "returns": {
          "_0": "the action Hash of the canceled tx*"
        }
      },
      "executeTransaction(address,uint256,string,bytes,uint256,bool)": {
        "details": "Function, called by Governance, that cancels a transaction, returns the callData executed",
        "params": {
          "data": "function arguments of the transaction or callData if signature empty",
          "executionTime": "time at which to execute the transaction",
          "signature": "function signature of the transaction",
          "target": "smart contract target",
          "value": "wei value of the transaction",
          "withDelegatecall": "boolean, true = transaction delegatecalls the target, else calls the target"
        },
        "returns": {
          "_0": "the callData executed as memory bytes*"
        }
      },
      "getAdmin()": {
        "details": "Getter of the current admin address (should be governance)",
        "returns": {
          "_0": "The address of the current admin*"
        }
      },
      "getDelay()": {
        "details": "Getter of the delay between queuing and execution",
        "returns": {
          "_0": "The delay in seconds*"
        }
      },
      "getMinimumPropositionPowerNeeded(address,uint256)": {
        "details": "Returns the minimum Proposition Power needed to create a proposition.",
        "params": {
          "blockNumber": "Blocknumber at which to evaluate",
          "governance": "Governance Contract"
        },
        "returns": {
          "_0": "minimum Proposition Power needed*"
        }
      },
      "getMinimumVotingPowerNeeded(uint256)": {
        "details": "Calculates the minimum amount of Voting Power needed for a proposal to Pass",
        "params": {
          "votingSupply": "Total number of oustanding voting tokens"
        },
        "returns": {
          "_0": "voting power needed for a proposal to pass*"
        }
      },
      "getPendingAdmin()": {
        "details": "Getter of the current pending admin address",
        "returns": {
          "_0": "The address of the pending admin*"
        }
      },
      "isActionQueued(bytes32)": {
        "details": "Returns whether an action (via actionHash) is queued",
        "params": {
          "actionHash": "hash of the action to be checked keccak256(abi.encode(target, value, signature, data, executionTime, withDelegatecall))"
        },
        "returns": {
          "_0": "true if underlying action of actionHash is queued*"
        }
      },
      "isProposalOverGracePeriod(address,uint256)": {
        "details": "Checks whether a proposal is over its grace period",
        "params": {
          "governance": "Governance contract",
          "proposalId": "Id of the proposal against which to test"
        },
        "returns": {
          "_0": "true of proposal is over grace period*"
        }
      },
      "isProposalPassed(address,uint256)": {
        "details": "Returns whether a proposal passed or not",
        "params": {
          "governance": "Governance Contract",
          "proposalId": "Id of the proposal to set"
        },
        "returns": {
          "_0": "true if proposal passed*"
        }
      },
      "isPropositionPowerEnough(address,address,uint256)": {
        "details": "Returns whether a user has enough Proposition Power to make a proposal.",
        "params": {
          "blockNumber": "Block Number against which to make the challenge.",
          "governance": "Governance Contract",
          "user": "Address of the user to be challenged."
        },
        "returns": {
          "_0": "true if user has enough power*"
        }
      },
      "isQuorumValid(address,uint256)": {
        "details": "Check whether a proposal has reached quorum, ie has enough FOR-voting-power Here quorum is not to understand as number of votes reached, but number of for-votes reached",
        "params": {
          "governance": "Governance Contract",
          "proposalId": "Id of the proposal to verify"
        },
        "returns": {
          "_0": "voting power needed for a proposal to pass*"
        }
      },
      "isVoteDifferentialValid(address,uint256)": {
        "details": "Check whether a proposal has enough extra FOR-votes than AGAINST-votes FOR VOTES - AGAINST VOTES > VOTE_DIFFERENTIAL * voting supply",
        "params": {
          "governance": "Governance Contract",
          "proposalId": "Id of the proposal to verify"
        },
        "returns": {
          "_0": "true if enough For-Votes*"
        }
      },
      "queueTransaction(address,uint256,string,bytes,uint256,bool)": {
        "details": "Function, called by Governance, that queue a transaction, returns action hash",
        "params": {
          "data": "function arguments of the transaction or callData if signature empty",
          "executionTime": "time at which to execute the transaction",
          "signature": "function signature of the transaction",
          "target": "smart contract target",
          "value": "wei value of the transaction",
          "withDelegatecall": "boolean, true = transaction delegatecalls the target, else calls the target"
        },
        "returns": {
          "_0": "the action Hash*"
        }
      },
      "setDelay(uint256)": {
        "details": "Set the delay",
        "params": {
          "delay": "delay between queue and execution of proposal*"
        }
      },
      "setPendingAdmin(address)": {
        "details": "Setting a new pending admin (that can then become admin) Can only be called by this executor (i.e via proposal)",
        "params": {
          "newPendingAdmin": "address of the new admin*"
        }
      },
      "validateCreatorOfProposal(address,address,uint256)": {
        "details": "Called to validate a proposal (e.g when creating new proposal in Governance)",
        "params": {
          "blockNumber": "Block Number against which to make the test (e.g proposal creation block -1).",
          "governance": "Governance Contract",
          "user": "Address of the proposal creator"
        },
        "returns": {
          "_0": "boolean, true if can be created*"
        }
      },
      "validateProposalCancellation(address,address,uint256)": {
        "details": "Called to validate the cancellation of a proposal Needs to creator to have lost proposition power threashold",
        "params": {
          "blockNumber": "Block Number against which to make the test (e.g proposal creation block -1).",
          "governance": "Governance Contract",
          "user": "Address of the proposal creator"
        },
        "returns": {
          "_0": "boolean, true if can be cancelled*"
        }
      }
    },
    "title": "Time Locked, Validator, Executor Contract",
    "version": 1
  },
  "userdoc": {
    "kind": "user",
    "methods": {},
    "version": 1
  }
}