{
  "contractName": "GovernanceStrategy",
  "abi": [
    {
      "inputs": [
        {
          "internalType": "address",
          "name": "_sKARMA",
          "type": "address"
        }
      ],
      "stateMutability": "nonpayable",
      "type": "constructor"
    },
    {
      "inputs": [],
      "name": "sKARMA",
      "outputs": [
        {
          "internalType": "address",
          "name": "",
          "type": "address"
        }
      ],
      "stateMutability": "view",
      "type": "function",
      "constant": true
    },
    {
      "inputs": [
        {
          "internalType": "uint256",
          "name": "blockNumber",
          "type": "uint256"
        }
      ],
      "name": "getTotalPropositionSupplyAt",
      "outputs": [
        {
          "internalType": "uint256",
          "name": "",
          "type": "uint256"
        }
      ],
      "stateMutability": "view",
      "type": "function",
      "constant": true
    },
    {
      "inputs": [
        {
          "internalType": "uint256",
          "name": "blockNumber",
          "type": "uint256"
        }
      ],
      "name": "getTotalVotingSupplyAt",
      "outputs": [
        {
          "internalType": "uint256",
          "name": "",
          "type": "uint256"
        }
      ],
      "stateMutability": "view",
      "type": "function",
      "constant": true
    },
    {
      "inputs": [
        {
          "internalType": "address",
          "name": "user",
          "type": "address"
        },
        {
          "internalType": "uint256",
          "name": "blockNumber",
          "type": "uint256"
        }
      ],
      "name": "getPropositionPowerAt",
      "outputs": [
        {
          "internalType": "uint256",
          "name": "",
          "type": "uint256"
        }
      ],
      "stateMutability": "view",
      "type": "function",
      "constant": true
    },
    {
      "inputs": [
        {
          "internalType": "address",
          "name": "user",
          "type": "address"
        },
        {
          "internalType": "uint256",
          "name": "blockNumber",
          "type": "uint256"
        }
      ],
      "name": "getVotingPowerAt",
      "outputs": [
        {
          "internalType": "uint256",
          "name": "",
          "type": "uint256"
        }
      ],
      "stateMutability": "view",
      "type": "function",
      "constant": true
    }
  ],
  "bytecode": "0x60a060405234801561001057600080fd5b506040516103f53803806103f583398101604081905261002f91610044565b60601b6001600160601b031916608052610072565b600060208284031215610055578081fd5b81516001600160a01b038116811461006b578182fd5b9392505050565b60805160601c61035d6100986000398060e6528061014552806101e4525061035d6000f3fe608060405234801561001057600080fd5b50600436106100575760003560e01c80637a71f9d71461005c5780639b599acd14610085578063a1076e581461009a578063eaeded5f146100ad578063f6b50203146100c0575b600080fd5b61006f61006a3660046102ab565b6100d3565b60405161007c919061031e565b60405180910390f35b61008d6100e4565b60405161007c91906102db565b61006f6100a8366004610275565b610108565b61006f6100bb366004610275565b61011d565b61006f6100ce3660046102ab565b61012b565b60006100de8261012b565b92915050565b7f000000000000000000000000000000000000000000000000000000000000000081565b6000610116838360016101ca565b9392505050565b6000610116838360006101ca565b604051630981b24d60e41b81526000906001600160a01b037f0000000000000000000000000000000000000000000000000000000000000000169063981b24d09061017a90859060040161031e565b60206040518083038186803b15801561019257600080fd5b505afa1580156101a6573d6000803e3d6000fd5b505050506040513d601f19601f820116820180604052508101906100de91906102c3565b60405163c2ffbb9160e01b81526000906001600160a01b037f0000000000000000000000000000000000000000000000000000000000000000169063c2ffbb919061021d908790879087906004016102ef565b60206040518083038186803b15801561023557600080fd5b505afa158015610249573d6000803e3d6000fd5b505050506040513d601f19601f8201168201806040525081019061026d91906102c3565b949350505050565b60008060408385031215610287578182fd5b82356001600160a01b038116811461029d578283fd5b946020939093013593505050565b6000602082840312156102bc578081fd5b5035919050565b6000602082840312156102d4578081fd5b5051919050565b6001600160a01b0391909116815260200190565b6001600160a01b038416815260208101839052606081016002831061031057fe5b826040830152949350505050565b9081526020019056fea264697066735822122075527c4808da7dd48868cf2faa10451804421c73d7a13f4b00aa381e719e343164736f6c63430007000033",
  "immutableReferences": {
    "3174": [
      {
        "length": 32,
        "start": 230
      },
      {
        "length": 32,
        "start": 325
      },
      {
        "length": 32,
        "start": 484
      }
    ]
  },
  "source": "// SPDX-License-Identifier: agpl-3.0\r\npragma solidity 0.7.0;\r\npragma experimental ABIEncoderV2;\r\n\r\nimport {IGovernanceStrategy} from './interfaces/IGovernanceStrategy.sol';\r\nimport {IERC20} from './interfaces/IERC20.sol';\r\nimport {IGovernancePowerDelegationToken} from './interfaces/IGovernancePowerDelegationToken.sol';\r\n\r\n/**\r\n * @title Governance Strategy contract\r\n * @dev Smart contract containing logic to measure users' relative power to propose and vote.\r\n * User Power = User Power from SuperKarma Token + User Power from stkSuperKarma Token.\r\n * User Power from Token = Token Power + Token Power as Delegatee [- Token Power if user has delegated]\r\n * Two wrapper functions linked to SuperKarma Tokens's GovernancePowerDelegationERC20.sol implementation\r\n * - getPropositionPowerAt: fetching a user Proposition Power at a specified block\r\n * - getVotingPowerAt: fetching a user Voting Power at a specified block\r\n * @author SuperKarma\r\n **/\r\ncontract GovernanceStrategy is IGovernanceStrategy {\r\n    address public immutable sKARMA;\r\n\r\n    /**\r\n     * @dev Constructor, register tokens used for Voting and Proposition Powers.\r\n     * @param _sKARMA The address of the AAVE Token contract.\r\n     **/\r\n    constructor(address _sKARMA) public {\r\n        sKARMA = _sKARMA;\r\n    }\r\n\r\n    /**\r\n     * @dev Returns the total supply of Proposition Tokens Available for Governance\r\n     * = AAVE Available for governance      + stkAAVE available\r\n     * The supply of AAVE staked in stkAAVE are not taken into account so:\r\n     * = (Supply of AAVE - AAVE in stkAAVE) + (Supply of stkAAVE)\r\n     * = Supply of AAVE, Since the supply of stkAAVE is equal to the number of AAVE staked\r\n     * @param blockNumber Blocknumber at which to evaluate\r\n     * @return total supply at blockNumber\r\n     **/\r\n    function getTotalPropositionSupplyAt(uint256 blockNumber) public view override returns (uint256) {\r\n        return IERC20(sKARMA).totalSupplyAt(blockNumber);\r\n    }\r\n\r\n    /**\r\n     * @dev Returns the total supply of Outstanding Voting Tokens\r\n     * @param blockNumber Blocknumber at which to evaluate\r\n     * @return total supply at blockNumber\r\n     **/\r\n    function getTotalVotingSupplyAt(uint256 blockNumber) public view override returns (uint256) {\r\n        return getTotalPropositionSupplyAt(blockNumber);\r\n    }\r\n\r\n    /**\r\n     * @dev Returns the Proposition Power of a user at a specific block number.\r\n     * @param user Address of the user.\r\n     * @param blockNumber Blocknumber at which to fetch Proposition Power\r\n     * @return Power number\r\n     **/\r\n    function getPropositionPowerAt(address user, uint256 blockNumber) public view override returns (uint256) {\r\n        return\r\n            _getPowerByTypeAt(\r\n                user,\r\n                blockNumber,\r\n                IGovernancePowerDelegationToken.DelegationType.PROPOSITION_POWER\r\n            );\r\n    }\r\n\r\n    /**\r\n     * @dev Returns the Vote Power of a user at a specific block number.\r\n     * @param user Address of the user.\r\n     * @param blockNumber Blocknumber at which to fetch Vote Power\r\n     * @return Vote number\r\n     **/\r\n    function getVotingPowerAt(address user, uint256 blockNumber) public view override returns (uint256) {\r\n        return\r\n            _getPowerByTypeAt(user, blockNumber, IGovernancePowerDelegationToken.DelegationType.VOTING_POWER);\r\n    }\r\n\r\n    function _getPowerByTypeAt(\r\n        address user,\r\n        uint256 blockNumber,\r\n        IGovernancePowerDelegationToken.DelegationType powerType\r\n    ) internal view returns (uint256) {\r\n        return IGovernancePowerDelegationToken(sKARMA).getPowerAtBlock(user, blockNumber, powerType);\r\n    }\r\n}\r\n",
  "sourcePath": "C:/Users/James/projects/erc20-vue-template/blockchain/contracts/governance/GovernanceStrategy.sol",
  "compiler": {
    "name": "solc",
    "version": "0.7.0+commit.9e61f92b.Emscripten.clang"
  },
  "schemaVersion": "3.3.2",
  "updatedAt": "2021-07-05T19:32:25.652Z",
  "networkType": "ethereum",
  "devdoc": {
    "author": "SuperKarma*",
    "details": "Smart contract containing logic to measure users' relative power to propose and vote. User Power = User Power from SuperKarma Token + User Power from stkSuperKarma Token. User Power from Token = Token Power + Token Power as Delegatee [- Token Power if user has delegated] Two wrapper functions linked to SuperKarma Tokens's GovernancePowerDelegationERC20.sol implementation - getPropositionPowerAt: fetching a user Proposition Power at a specified block - getVotingPowerAt: fetching a user Voting Power at a specified block",
    "kind": "dev",
    "methods": {
      "constructor": {
        "details": "Constructor, register tokens used for Voting and Proposition Powers.",
        "params": {
          "_sKARMA": "The address of the AAVE Token contract.*"
        }
      },
      "getPropositionPowerAt(address,uint256)": {
        "details": "Returns the Proposition Power of a user at a specific block number.",
        "params": {
          "blockNumber": "Blocknumber at which to fetch Proposition Power",
          "user": "Address of the user."
        },
        "returns": {
          "_0": "Power number*"
        }
      },
      "getTotalPropositionSupplyAt(uint256)": {
        "details": "Returns the total supply of Proposition Tokens Available for Governance = AAVE Available for governance      + stkAAVE available The supply of AAVE staked in stkAAVE are not taken into account so: = (Supply of AAVE - AAVE in stkAAVE) + (Supply of stkAAVE) = Supply of AAVE, Since the supply of stkAAVE is equal to the number of AAVE staked",
        "params": {
          "blockNumber": "Blocknumber at which to evaluate"
        },
        "returns": {
          "_0": "total supply at blockNumber*"
        }
      },
      "getTotalVotingSupplyAt(uint256)": {
        "details": "Returns the total supply of Outstanding Voting Tokens",
        "params": {
          "blockNumber": "Blocknumber at which to evaluate"
        },
        "returns": {
          "_0": "total supply at blockNumber*"
        }
      },
      "getVotingPowerAt(address,uint256)": {
        "details": "Returns the Vote Power of a user at a specific block number.",
        "params": {
          "blockNumber": "Blocknumber at which to fetch Vote Power",
          "user": "Address of the user."
        },
        "returns": {
          "_0": "Vote number*"
        }
      }
    },
    "title": "Governance Strategy contract",
    "version": 1
  },
  "userdoc": {
    "kind": "user",
    "methods": {},
    "version": 1
  }
}