{
  "contractName": "ProposalValidator",
  "abi": [
    {
      "inputs": [
        {
          "internalType": "uint256",
          "name": "propositionThreshold",
          "type": "uint256"
        },
        {
          "internalType": "uint256",
          "name": "votingDuration",
          "type": "uint256"
        },
        {
          "internalType": "uint256",
          "name": "voteDifferential",
          "type": "uint256"
        },
        {
          "internalType": "uint256",
          "name": "minimumQuorum",
          "type": "uint256"
        }
      ],
      "stateMutability": "nonpayable",
      "type": "constructor"
    },
    {
      "inputs": [],
      "name": "MINIMUM_QUORUM",
      "outputs": [
        {
          "internalType": "uint256",
          "name": "",
          "type": "uint256"
        }
      ],
      "stateMutability": "view",
      "type": "function"
    },
    {
      "inputs": [],
      "name": "ONE_HUNDRED_WITH_PRECISION",
      "outputs": [
        {
          "internalType": "uint256",
          "name": "",
          "type": "uint256"
        }
      ],
      "stateMutability": "view",
      "type": "function"
    },
    {
      "inputs": [],
      "name": "PROPOSITION_THRESHOLD",
      "outputs": [
        {
          "internalType": "uint256",
          "name": "",
          "type": "uint256"
        }
      ],
      "stateMutability": "view",
      "type": "function"
    },
    {
      "inputs": [],
      "name": "VOTE_DIFFERENTIAL",
      "outputs": [
        {
          "internalType": "uint256",
          "name": "",
          "type": "uint256"
        }
      ],
      "stateMutability": "view",
      "type": "function"
    },
    {
      "inputs": [],
      "name": "VOTING_DURATION",
      "outputs": [
        {
          "internalType": "uint256",
          "name": "",
          "type": "uint256"
        }
      ],
      "stateMutability": "view",
      "type": "function"
    },
    {
      "inputs": [
        {
          "internalType": "contract ISuperKarmaGovernance",
          "name": "governance",
          "type": "address"
        },
        {
          "internalType": "address",
          "name": "user",
          "type": "address"
        },
        {
          "internalType": "uint256",
          "name": "blockNumber",
          "type": "uint256"
        }
      ],
      "name": "validateCreatorOfProposal",
      "outputs": [
        {
          "internalType": "bool",
          "name": "",
          "type": "bool"
        }
      ],
      "stateMutability": "view",
      "type": "function"
    },
    {
      "inputs": [
        {
          "internalType": "contract ISuperKarmaGovernance",
          "name": "governance",
          "type": "address"
        },
        {
          "internalType": "address",
          "name": "user",
          "type": "address"
        },
        {
          "internalType": "uint256",
          "name": "blockNumber",
          "type": "uint256"
        }
      ],
      "name": "validateProposalCancellation",
      "outputs": [
        {
          "internalType": "bool",
          "name": "",
          "type": "bool"
        }
      ],
      "stateMutability": "view",
      "type": "function"
    },
    {
      "inputs": [
        {
          "internalType": "contract ISuperKarmaGovernance",
          "name": "governance",
          "type": "address"
        },
        {
          "internalType": "address",
          "name": "user",
          "type": "address"
        },
        {
          "internalType": "uint256",
          "name": "blockNumber",
          "type": "uint256"
        }
      ],
      "name": "isPropositionPowerEnough",
      "outputs": [
        {
          "internalType": "bool",
          "name": "",
          "type": "bool"
        }
      ],
      "stateMutability": "view",
      "type": "function"
    },
    {
      "inputs": [
        {
          "internalType": "contract ISuperKarmaGovernance",
          "name": "governance",
          "type": "address"
        },
        {
          "internalType": "uint256",
          "name": "blockNumber",
          "type": "uint256"
        }
      ],
      "name": "getMinimumPropositionPowerNeeded",
      "outputs": [
        {
          "internalType": "uint256",
          "name": "",
          "type": "uint256"
        }
      ],
      "stateMutability": "view",
      "type": "function"
    },
    {
      "inputs": [
        {
          "internalType": "contract ISuperKarmaGovernance",
          "name": "governance",
          "type": "address"
        },
        {
          "internalType": "uint256",
          "name": "proposalId",
          "type": "uint256"
        }
      ],
      "name": "isProposalPassed",
      "outputs": [
        {
          "internalType": "bool",
          "name": "",
          "type": "bool"
        }
      ],
      "stateMutability": "view",
      "type": "function"
    },
    {
      "inputs": [
        {
          "internalType": "uint256",
          "name": "votingSupply",
          "type": "uint256"
        }
      ],
      "name": "getMinimumVotingPowerNeeded",
      "outputs": [
        {
          "internalType": "uint256",
          "name": "",
          "type": "uint256"
        }
      ],
      "stateMutability": "view",
      "type": "function"
    },
    {
      "inputs": [
        {
          "internalType": "contract ISuperKarmaGovernance",
          "name": "governance",
          "type": "address"
        },
        {
          "internalType": "uint256",
          "name": "proposalId",
          "type": "uint256"
        }
      ],
      "name": "isQuorumValid",
      "outputs": [
        {
          "internalType": "bool",
          "name": "",
          "type": "bool"
        }
      ],
      "stateMutability": "view",
      "type": "function"
    },
    {
      "inputs": [
        {
          "internalType": "contract ISuperKarmaGovernance",
          "name": "governance",
          "type": "address"
        },
        {
          "internalType": "uint256",
          "name": "proposalId",
          "type": "uint256"
        }
      ],
      "name": "isVoteDifferentialValid",
      "outputs": [
        {
          "internalType": "bool",
          "name": "",
          "type": "bool"
        }
      ],
      "stateMutability": "view",
      "type": "function"
    }
  ],
  "bytecode": "0x61010060405234801561001157600080fd5b50604051610fc0380380610fc083398101604081905261003091610047565b60809390935260a09190915260c05260e05261007c565b6000806000806080858703121561005c578384fd5b505082516020840151604085015160609095015191969095509092509050565b60805160a05160c05160e051610f006100c060003980610609528061064e52508061041d52806104905250806104b45250806106f352806107965250610f006000f3fe608060405234801561001057600080fd5b50600436106100cf5760003560e01c8063a438d2081161008c578063d0d9029811610066578063d0d9029814610176578063e50f840014610189578063f48cb1341461019c578063fd58afd4146101af576100cf565b8063a438d20814610153578063ace432091461015b578063b159beac1461016e576100cf565b806306fbb3ab146100d45780631d73fd6d146100fd57806331a7bc411461011257806366121042146101255780637aa50080146101385780639125fb581461014b575b600080fd5b6100e76100e2366004610b86565b6101b7565b6040516100f49190610da8565b60405180910390f35b6101056101dd565b6040516100f49190610e62565b6100e7610120366004610b46565b6101e3565b6100e7610133366004610b46565b6101f9565b6100e7610146366004610b86565b610302565b61010561048e565b6101056104b2565b6100e7610169366004610b86565b6104d6565b610105610607565b6100e7610184366004610b46565b61062b565b610105610197366004610d5f565b610640565b6101056101aa366004610b86565b610672565b610105610794565b60006101c383836104d6565b80156101d457506101d48383610302565b90505b92915050565b61271081565b60006101f08484846101f9565b15949350505050565b600080846001600160a01b03166306be3e8e6040518163ffffffff1660e01b815260040160206040518083038186803b15801561023557600080fd5b505afa158015610249573d6000803e3d6000fd5b505050506040513d601f19601f8201168201806040525081019061026d9190610b2a565b90506102798584610672565b604051631420edcb60e31b81526001600160a01b0383169063a1076e58906102a79088908890600401610d8f565b60206040518083038186803b1580156102bf57600080fd5b505afa1580156102d3573d6000803e3d6000fd5b505050506040513d601f19601f820116820180604052508101906102f79190610d77565b101595945050505050565b600061030c610852565b604051633656de2160e01b81526001600160a01b03851690633656de2190610338908690600401610e62565b60006040518083038186803b15801561035057600080fd5b505afa158015610364573d6000803e3d6000fd5b505050506040513d6000823e601f3d908101601f1916820160405261038c9190810190610bb1565b90506000816101e001516001600160a01b0316637a71f9d78361010001516040518263ffffffff1660e01b81526004016103c69190610e62565b60206040518083038186803b1580156103de57600080fd5b505afa1580156103f2573d6000803e3d6000fd5b505050506040513d601f19601f820116820180604052508101906104169190610d77565b90506104667f00000000000000000000000000000000000000000000000000000000000000006104608361045a6127108761018001516107b890919063ffffffff16565b906107fb565b9061082d565b6104848261045a6127108661016001516107b890919063ffffffff16565b1195945050505050565b7f000000000000000000000000000000000000000000000000000000000000000081565b7f000000000000000000000000000000000000000000000000000000000000000081565b60006104e0610852565b604051633656de2160e01b81526001600160a01b03851690633656de219061050c908690600401610e62565b60006040518083038186803b15801561052457600080fd5b505afa158015610538573d6000803e3d6000fd5b505050506040513d6000823e601f3d908101601f191682016040526105609190810190610bb1565b90506000816101e001516001600160a01b0316637a71f9d78361010001516040518263ffffffff1660e01b815260040161059a9190610e62565b60206040518083038186803b1580156105b257600080fd5b505afa1580156105c6573d6000803e3d6000fd5b505050506040513d601f19601f820116820180604052508101906105ea9190610d77565b90506105f581610640565b82610160015110159250505092915050565b7f000000000000000000000000000000000000000000000000000000000000000081565b60006106388484846101f9565b949350505050565b60006101d761271061045a847f00000000000000000000000000000000000000000000000000000000000000006107b8565b600080836001600160a01b03166306be3e8e6040518163ffffffff1660e01b815260040160206040518083038186803b1580156106ae57600080fd5b505afa1580156106c2573d6000803e3d6000fd5b505050506040513d601f19601f820116820180604052508101906106e69190610b2a565b905061063861271061045a7f0000000000000000000000000000000000000000000000000000000000000000846001600160a01b031663f6b50203886040518263ffffffff1660e01b815260040161073e9190610e62565b60206040518083038186803b15801561075657600080fd5b505afa15801561076a573d6000803e3d6000fd5b505050506040513d601f19601f8201168201806040525081019061078e9190610d77565b906107b8565b7f000000000000000000000000000000000000000000000000000000000000000081565b6000826107c7575060006101d7565b828202828482816107d457fe5b04146101d45760405162461bcd60e51b81526004016107f290610e21565b60405180910390fd5b600080821161081c5760405162461bcd60e51b81526004016107f290610dea565b81838161082557fe5b049392505050565b6000828201838110156101d45760405162461bcd60e51b81526004016107f290610db3565b6040518061022001604052806000815260200160006001600160a01b0316815260200160006001600160a01b031681526020016060815260200160608152602001606081526020016060815260200160608152602001600081526020016000815260200160008152602001600081526020016000815260200160001515815260200160001515815260200160006001600160a01b03168152602001600080191681525090565b80516101d781610eb2565b600082601f830112610913578081fd5b815161092661092182610e92565b610e6b565b81815291506020808301908481018184028601820187101561094757600080fd5b60005b8481101561096f57815161095d81610eb2565b8452928201929082019060010161094a565b505050505092915050565b600082601f83011261098a578081fd5b815161099861092182610e92565b8181529150602080830190848101818402860182018710156109b957600080fd5b60005b8481101561096f576109ce8883610b1a565b845292820192908201906001016109bc565b6000601f83818401126109f1578182fd5b82516109ff61092182610e92565b818152925060208084019085810160005b84811015610ab0578151880189603f820112610a2b57600080fd5b8381015167ffffffffffffffff811115610a4457600080fd5b610a55818901601f19168601610e6b565b81815260408c81848601011115610a6b57600080fd5b60005b83811015610a89578481018201518382018901528701610a6e565b83811115610a9a5760008885850101525b5050865250509282019290820190600101610a10565b50505050505092915050565b600082601f830112610acc578081fd5b8151610ada61092182610e92565b818152915060208083019084810181840286018201871015610afb57600080fd5b60005b8481101561096f57815184529282019290820190600101610afe565b805180151581146101d757600080fd5b600060208284031215610b3b578081fd5b81516101d481610eb2565b600080600060608486031215610b5a578182fd5b8335610b6581610eb2565b92506020840135610b7581610eb2565b929592945050506040919091013590565b60008060408385031215610b98578182fd5b8235610ba381610eb2565b946020939093013593505050565b600060208284031215610bc2578081fd5b815167ffffffffffffffff80821115610bd9578283fd5b8184019150610220808387031215610bef578384fd5b610bf881610e6b565b905082518152610c0b86602085016108f8565b6020820152610c1d86604085016108f8565b6040820152606083015182811115610c33578485fd5b610c3f87828601610903565b606083015250608083015182811115610c56578485fd5b610c6287828601610abc565b60808301525060a083015182811115610c79578485fd5b610c85878286016109e0565b60a08301525060c083015182811115610c9c578485fd5b610ca8878286016109e0565b60c08301525060e083015182811115610cbf578485fd5b610ccb8782860161097a565b60e083015250610100838101519082015261012080840151908201526101408084015190820152610160808401519082015261018080840151908201526101a09150610d1986838501610b1a565b828201526101c09150610d2e86838501610b1a565b828201526101e09150610d43868385016108f8565b9181019190915261020091820151918101919091529392505050565b600060208284031215610d70578081fd5b5035919050565b600060208284031215610d88578081fd5b5051919050565b6001600160a01b03929092168252602082015260400190565b901515815260200190565b6020808252601b908201527f536166654d6174683a206164646974696f6e206f766572666c6f770000000000604082015260600190565b6020808252601a908201527f536166654d6174683a206469766973696f6e206279207a65726f000000000000604082015260600190565b60208082526021908201527f536166654d6174683a206d756c7469706c69636174696f6e206f766572666c6f6040820152607760f81b606082015260800190565b90815260200190565b60405181810167ffffffffffffffff81118282101715610e8a57600080fd5b604052919050565b600067ffffffffffffffff821115610ea8578081fd5b5060209081020190565b6001600160a01b0381168114610ec757600080fd5b5056fea2646970667358221220ee676f207f4756e2f48878ac5227620fcefc5246f4ca1c869f9a9dbe8a229ba364736f6c63430007000033",
  "immutableReferences": {
    "4460": [
      {
        "length": 32,
        "start": 1779
      },
      {
        "length": 32,
        "start": 1942
      }
    ],
    "4463": [
      {
        "length": 32,
        "start": 1204
      }
    ],
    "4466": [
      {
        "length": 32,
        "start": 1053
      },
      {
        "length": 32,
        "start": 1168
      }
    ],
    "4469": [
      {
        "length": 32,
        "start": 1545
      },
      {
        "length": 32,
        "start": 1614
      }
    ]
  },
  "source": "// SPDX-License-Identifier: agpl-3.0\r\npragma solidity 0.7.0;\r\npragma experimental ABIEncoderV2;\r\n\r\nimport {ISuperKarmaGovernance} from './interfaces/ISuperKarmaGovernance.sol';\r\nimport {IGovernanceStrategy} from './interfaces/IGovernanceStrategy.sol';\r\nimport {IProposalValidator} from './interfaces/IProposalValidator.sol';\r\nimport '@openzeppelin/contracts/math/SafeMath.sol';\r\n\r\n/**\r\n * @title Proposal Validator Contract, inherited by  SuperKarma Governance Executors\r\n * @dev Validates/Invalidations propositions state modifications.\r\n * Proposition Power functions: Validates proposition creations/ cancellation\r\n * Voting Power functions: Validates success of propositions.\r\n * @author SuperKarma\r\n **/\r\ncontract ProposalValidator is IProposalValidator {\r\n    using SafeMath for uint256;\r\n\r\n    uint256 public immutable override PROPOSITION_THRESHOLD;\r\n    uint256 public immutable override VOTING_DURATION;\r\n    uint256 public immutable override VOTE_DIFFERENTIAL;\r\n    uint256 public immutable override MINIMUM_QUORUM;\r\n    uint256 public constant override ONE_HUNDRED_WITH_PRECISION = 10000; // Equivalent to 100%, but scaled for precision\r\n\r\n    /**\r\n     * @dev Constructor\r\n     * @param propositionThreshold minimum percentage of supply needed to submit a proposal\r\n     * - In ONE_HUNDRED_WITH_PRECISION units\r\n     * @param votingDuration duration in blocks of the voting period\r\n     * @param voteDifferential percentage of supply that `for` votes need to be over `against`\r\n     *   in order for the proposal to pass\r\n     * - In ONE_HUNDRED_WITH_PRECISION units\r\n     * @param minimumQuorum minimum percentage of the supply in FOR-voting-power need for a proposal to pass\r\n     * - In ONE_HUNDRED_WITH_PRECISION units\r\n     **/\r\n    constructor(\r\n        uint256 propositionThreshold,\r\n        uint256 votingDuration,\r\n        uint256 voteDifferential,\r\n        uint256 minimumQuorum\r\n    ) public {\r\n        PROPOSITION_THRESHOLD = propositionThreshold;\r\n        VOTING_DURATION = votingDuration;\r\n        VOTE_DIFFERENTIAL = voteDifferential;\r\n        MINIMUM_QUORUM = minimumQuorum;\r\n    }\r\n\r\n    /**\r\n     * @dev Called to validate a proposal (e.g when creating new proposal in Governance)\r\n     * @param governance Governance Contract\r\n     * @param user Address of the proposal creator\r\n     * @param blockNumber Block Number against which to make the test (e.g proposal creation block -1).\r\n     * @return boolean, true if can be created\r\n     **/\r\n    function validateCreatorOfProposal(\r\n        ISuperKarmaGovernance governance,\r\n        address user,\r\n        uint256 blockNumber\r\n    ) external view override returns (bool) {\r\n        return isPropositionPowerEnough(governance, user, blockNumber);\r\n    }\r\n\r\n    /**\r\n     * @dev Called to validate the cancellation of a proposal\r\n     * Needs to creator to have lost proposition power threashold\r\n     * @param governance Governance Contract\r\n     * @param user Address of the proposal creator\r\n     * @param blockNumber Block Number against which to make the test (e.g proposal creation block -1).\r\n     * @return boolean, true if can be cancelled\r\n     **/\r\n    function validateProposalCancellation(\r\n        ISuperKarmaGovernance governance,\r\n        address user,\r\n        uint256 blockNumber\r\n    ) external view override returns (bool) {\r\n        return !isPropositionPowerEnough(governance, user, blockNumber);\r\n    }\r\n\r\n    /**\r\n     * @dev Returns whether a user has enough Proposition Power to make a proposal.\r\n     * @param governance Governance Contract\r\n     * @param user Address of the user to be challenged.\r\n     * @param blockNumber Block Number against which to make the challenge.\r\n     * @return true if user has enough power\r\n     **/\r\n    function isPropositionPowerEnough(\r\n        ISuperKarmaGovernance governance,\r\n        address user,\r\n        uint256 blockNumber\r\n    ) public view override returns (bool) {\r\n        IGovernanceStrategy currentGovernanceStrategy = IGovernanceStrategy(\r\n            governance.getGovernanceStrategy()\r\n        );\r\n        return\r\n            currentGovernanceStrategy.getPropositionPowerAt(user, blockNumber) >=\r\n            getMinimumPropositionPowerNeeded(governance, blockNumber);\r\n    }\r\n\r\n    /**\r\n     * @dev Returns the minimum Proposition Power needed to create a proposition.\r\n     * @param governance Governance Contract\r\n     * @param blockNumber Blocknumber at which to evaluate\r\n     * @return minimum Proposition Power needed\r\n     **/\r\n    function getMinimumPropositionPowerNeeded(ISuperKarmaGovernance governance, uint256 blockNumber)\r\n        public\r\n        view\r\n        override\r\n        returns (uint256)\r\n    {\r\n        IGovernanceStrategy currentGovernanceStrategy = IGovernanceStrategy(\r\n            governance.getGovernanceStrategy()\r\n        );\r\n        return\r\n            currentGovernanceStrategy.getTotalPropositionSupplyAt(blockNumber).mul(PROPOSITION_THRESHOLD).div(\r\n                ONE_HUNDRED_WITH_PRECISION\r\n            );\r\n    }\r\n\r\n    /**\r\n     * @dev Returns whether a proposal passed or not\r\n     * @param governance Governance Contract\r\n     * @param proposalId Id of the proposal to set\r\n     * @return true if proposal passed\r\n     **/\r\n    function isProposalPassed(ISuperKarmaGovernance governance, uint256 proposalId)\r\n        external\r\n        view\r\n        override\r\n        returns (bool)\r\n    {\r\n        return (isQuorumValid(governance, proposalId) && isVoteDifferentialValid(governance, proposalId));\r\n    }\r\n\r\n    /**\r\n     * @dev Calculates the minimum amount of Voting Power needed for a proposal to Pass\r\n     * @param votingSupply Total number of oustanding voting tokens\r\n     * @return voting power needed for a proposal to pass\r\n     **/\r\n    function getMinimumVotingPowerNeeded(uint256 votingSupply) public view override returns (uint256) {\r\n        return votingSupply.mul(MINIMUM_QUORUM).div(ONE_HUNDRED_WITH_PRECISION);\r\n    }\r\n\r\n    /**\r\n     * @dev Check whether a proposal has reached quorum, ie has enough FOR-voting-power\r\n     * Here quorum is not to understand as number of votes reached, but number of for-votes reached\r\n     * @param governance Governance Contract\r\n     * @param proposalId Id of the proposal to verify\r\n     * @return voting power needed for a proposal to pass\r\n     **/\r\n    function isQuorumValid(ISuperKarmaGovernance governance, uint256 proposalId)\r\n        public\r\n        view\r\n        override\r\n        returns (bool)\r\n    {\r\n        ISuperKarmaGovernance.ProposalWithoutVotes memory proposal = governance.getProposalById(proposalId);\r\n        uint256 votingSupply = IGovernanceStrategy(proposal.strategy).getTotalVotingSupplyAt(\r\n            proposal.startBlock\r\n        );\r\n\r\n        return proposal.forVotes >= getMinimumVotingPowerNeeded(votingSupply);\r\n    }\r\n\r\n    /**\r\n     * @dev Check whether a proposal has enough extra FOR-votes than AGAINST-votes\r\n     * FOR VOTES - AGAINST VOTES > VOTE_DIFFERENTIAL * voting supply\r\n     * @param governance Governance Contract\r\n     * @param proposalId Id of the proposal to verify\r\n     * @return true if enough For-Votes\r\n     **/\r\n    function isVoteDifferentialValid(ISuperKarmaGovernance governance, uint256 proposalId)\r\n        public\r\n        view\r\n        override\r\n        returns (bool)\r\n    {\r\n        ISuperKarmaGovernance.ProposalWithoutVotes memory proposal = governance.getProposalById(proposalId);\r\n        uint256 votingSupply = IGovernanceStrategy(proposal.strategy).getTotalVotingSupplyAt(\r\n            proposal.startBlock\r\n        );\r\n\r\n        return (proposal.forVotes.mul(ONE_HUNDRED_WITH_PRECISION).div(votingSupply) >\r\n            proposal.againstVotes.mul(ONE_HUNDRED_WITH_PRECISION).div(votingSupply).add(VOTE_DIFFERENTIAL));\r\n    }\r\n}\r\n",
  "sourcePath": "C:\\Users\\James\\projects\\erc20-vue-template\\blockchain\\contracts\\governance\\ProposalValidator.sol",
  "compiler": {
    "name": "solc",
    "version": "0.7.0+commit.9e61f92b.Emscripten.clang"
  },
  "schemaVersion": "3.3.2",
  "updatedAt": "2021-07-05T19:25:53.510Z",
  "devdoc": {
    "author": "SuperKarma*",
    "details": "Validates/Invalidations propositions state modifications. Proposition Power functions: Validates proposition creations/ cancellation Voting Power functions: Validates success of propositions.",
    "kind": "dev",
    "methods": {
      "constructor": {
        "details": "Constructor",
        "params": {
          "minimumQuorum": "minimum percentage of the supply in FOR-voting-power need for a proposal to pass - In ONE_HUNDRED_WITH_PRECISION units*",
          "propositionThreshold": "minimum percentage of supply needed to submit a proposal - In ONE_HUNDRED_WITH_PRECISION units",
          "voteDifferential": "percentage of supply that `for` votes need to be over `against`   in order for the proposal to pass - In ONE_HUNDRED_WITH_PRECISION units",
          "votingDuration": "duration in blocks of the voting period"
        }
      },
      "getMinimumPropositionPowerNeeded(address,uint256)": {
        "details": "Returns the minimum Proposition Power needed to create a proposition.",
        "params": {
          "blockNumber": "Blocknumber at which to evaluate",
          "governance": "Governance Contract"
        },
        "returns": {
          "_0": "minimum Proposition Power needed*"
        }
      },
      "getMinimumVotingPowerNeeded(uint256)": {
        "details": "Calculates the minimum amount of Voting Power needed for a proposal to Pass",
        "params": {
          "votingSupply": "Total number of oustanding voting tokens"
        },
        "returns": {
          "_0": "voting power needed for a proposal to pass*"
        }
      },
      "isProposalPassed(address,uint256)": {
        "details": "Returns whether a proposal passed or not",
        "params": {
          "governance": "Governance Contract",
          "proposalId": "Id of the proposal to set"
        },
        "returns": {
          "_0": "true if proposal passed*"
        }
      },
      "isPropositionPowerEnough(address,address,uint256)": {
        "details": "Returns whether a user has enough Proposition Power to make a proposal.",
        "params": {
          "blockNumber": "Block Number against which to make the challenge.",
          "governance": "Governance Contract",
          "user": "Address of the user to be challenged."
        },
        "returns": {
          "_0": "true if user has enough power*"
        }
      },
      "isQuorumValid(address,uint256)": {
        "details": "Check whether a proposal has reached quorum, ie has enough FOR-voting-power Here quorum is not to understand as number of votes reached, but number of for-votes reached",
        "params": {
          "governance": "Governance Contract",
          "proposalId": "Id of the proposal to verify"
        },
        "returns": {
          "_0": "voting power needed for a proposal to pass*"
        }
      },
      "isVoteDifferentialValid(address,uint256)": {
        "details": "Check whether a proposal has enough extra FOR-votes than AGAINST-votes FOR VOTES - AGAINST VOTES > VOTE_DIFFERENTIAL * voting supply",
        "params": {
          "governance": "Governance Contract",
          "proposalId": "Id of the proposal to verify"
        },
        "returns": {
          "_0": "true if enough For-Votes*"
        }
      },
      "validateCreatorOfProposal(address,address,uint256)": {
        "details": "Called to validate a proposal (e.g when creating new proposal in Governance)",
        "params": {
          "blockNumber": "Block Number against which to make the test (e.g proposal creation block -1).",
          "governance": "Governance Contract",
          "user": "Address of the proposal creator"
        },
        "returns": {
          "_0": "boolean, true if can be created*"
        }
      },
      "validateProposalCancellation(address,address,uint256)": {
        "details": "Called to validate the cancellation of a proposal Needs to creator to have lost proposition power threashold",
        "params": {
          "blockNumber": "Block Number against which to make the test (e.g proposal creation block -1).",
          "governance": "Governance Contract",
          "user": "Address of the proposal creator"
        },
        "returns": {
          "_0": "boolean, true if can be cancelled*"
        }
      }
    },
    "stateVariables": {
      "MINIMUM_QUORUM": {
        "details": "Get quorum threshold constant value to compare with % of for votes/total supply",
        "return": "the quorum threshold value (100 <=> 1%)*"
      },
      "ONE_HUNDRED_WITH_PRECISION": {
        "details": "precision helper: 100% = 10000",
        "return": "one hundred percents with our chosen precision*"
      },
      "PROPOSITION_THRESHOLD": {
        "details": "Get proposition threshold constant value",
        "return": "the proposition threshold value (100 <=> 1%)*"
      },
      "VOTE_DIFFERENTIAL": {
        "details": "Get the vote differential threshold constant value to compare with % of for votes/total supply - % of against votes/total supply",
        "return": "the vote differential threshold value (100 <=> 1%)*"
      },
      "VOTING_DURATION": {
        "details": "Get voting duration constant value",
        "return": "the voting duration value in seconds*"
      }
    },
    "title": "Proposal Validator Contract, inherited by  SuperKarma Governance Executors",
    "version": 1
  },
  "userdoc": {
    "kind": "user",
    "methods": {},
    "version": 1
  }
}