{
  "contractName": "SuperKarmaGovernanceV2",
  "abi": [
    {
      "inputs": [
        {
          "internalType": "address",
          "name": "governanceStrategy",
          "type": "address"
        },
        {
          "internalType": "uint256",
          "name": "votingDelay",
          "type": "uint256"
        },
        {
          "internalType": "address",
          "name": "guardian",
          "type": "address"
        },
        {
          "internalType": "address[]",
          "name": "executors",
          "type": "address[]"
        }
      ],
      "stateMutability": "nonpayable",
      "type": "constructor"
    },
    {
      "anonymous": false,
      "inputs": [
        {
          "indexed": false,
          "internalType": "address",
          "name": "executor",
          "type": "address"
        }
      ],
      "name": "ExecutorAuthorized",
      "type": "event"
    },
    {
      "anonymous": false,
      "inputs": [
        {
          "indexed": false,
          "internalType": "address",
          "name": "executor",
          "type": "address"
        }
      ],
      "name": "ExecutorUnauthorized",
      "type": "event"
    },
    {
      "anonymous": false,
      "inputs": [
        {
          "indexed": true,
          "internalType": "address",
          "name": "newStrategy",
          "type": "address"
        },
        {
          "indexed": true,
          "internalType": "address",
          "name": "initiatorChange",
          "type": "address"
        }
      ],
      "name": "GovernanceStrategyChanged",
      "type": "event"
    },
    {
      "anonymous": false,
      "inputs": [
        {
          "indexed": true,
          "internalType": "address",
          "name": "previousOwner",
          "type": "address"
        },
        {
          "indexed": true,
          "internalType": "address",
          "name": "newOwner",
          "type": "address"
        }
      ],
      "name": "OwnershipTransferred",
      "type": "event"
    },
    {
      "anonymous": false,
      "inputs": [
        {
          "indexed": false,
          "internalType": "uint256",
          "name": "id",
          "type": "uint256"
        }
      ],
      "name": "ProposalCanceled",
      "type": "event"
    },
    {
      "anonymous": false,
      "inputs": [
        {
          "indexed": false,
          "internalType": "uint256",
          "name": "id",
          "type": "uint256"
        },
        {
          "indexed": true,
          "internalType": "address",
          "name": "creator",
          "type": "address"
        },
        {
          "indexed": true,
          "internalType": "contract IExecutorWithTimelock",
          "name": "executor",
          "type": "address"
        },
        {
          "indexed": false,
          "internalType": "address[]",
          "name": "targets",
          "type": "address[]"
        },
        {
          "indexed": false,
          "internalType": "uint256[]",
          "name": "values",
          "type": "uint256[]"
        },
        {
          "indexed": false,
          "internalType": "string[]",
          "name": "signatures",
          "type": "string[]"
        },
        {
          "indexed": false,
          "internalType": "bytes[]",
          "name": "calldatas",
          "type": "bytes[]"
        },
        {
          "indexed": false,
          "internalType": "bool[]",
          "name": "withDelegatecalls",
          "type": "bool[]"
        },
        {
          "indexed": false,
          "internalType": "uint256",
          "name": "startBlock",
          "type": "uint256"
        },
        {
          "indexed": false,
          "internalType": "uint256",
          "name": "endBlock",
          "type": "uint256"
        },
        {
          "indexed": false,
          "internalType": "address",
          "name": "strategy",
          "type": "address"
        },
        {
          "indexed": false,
          "internalType": "bytes32",
          "name": "ipfsHash",
          "type": "bytes32"
        }
      ],
      "name": "ProposalCreated",
      "type": "event"
    },
    {
      "anonymous": false,
      "inputs": [
        {
          "indexed": false,
          "internalType": "uint256",
          "name": "id",
          "type": "uint256"
        },
        {
          "indexed": true,
          "internalType": "address",
          "name": "initiatorExecution",
          "type": "address"
        }
      ],
      "name": "ProposalExecuted",
      "type": "event"
    },
    {
      "anonymous": false,
      "inputs": [
        {
          "indexed": false,
          "internalType": "uint256",
          "name": "id",
          "type": "uint256"
        },
        {
          "indexed": false,
          "internalType": "uint256",
          "name": "executionTime",
          "type": "uint256"
        },
        {
          "indexed": true,
          "internalType": "address",
          "name": "initiatorQueueing",
          "type": "address"
        }
      ],
      "name": "ProposalQueued",
      "type": "event"
    },
    {
      "anonymous": false,
      "inputs": [
        {
          "indexed": false,
          "internalType": "uint256",
          "name": "id",
          "type": "uint256"
        },
        {
          "indexed": true,
          "internalType": "address",
          "name": "voter",
          "type": "address"
        },
        {
          "indexed": false,
          "internalType": "bool",
          "name": "support",
          "type": "bool"
        },
        {
          "indexed": false,
          "internalType": "uint256",
          "name": "votingPower",
          "type": "uint256"
        }
      ],
      "name": "VoteEmitted",
      "type": "event"
    },
    {
      "anonymous": false,
      "inputs": [
        {
          "indexed": false,
          "internalType": "uint256",
          "name": "newVotingDelay",
          "type": "uint256"
        },
        {
          "indexed": true,
          "internalType": "address",
          "name": "initiatorChange",
          "type": "address"
        }
      ],
      "name": "VotingDelayChanged",
      "type": "event"
    },
    {
      "inputs": [],
      "name": "DOMAIN_TYPEHASH",
      "outputs": [
        {
          "internalType": "bytes32",
          "name": "",
          "type": "bytes32"
        }
      ],
      "stateMutability": "view",
      "type": "function",
      "constant": true
    },
    {
      "inputs": [],
      "name": "NAME",
      "outputs": [
        {
          "internalType": "string",
          "name": "",
          "type": "string"
        }
      ],
      "stateMutability": "view",
      "type": "function",
      "constant": true
    },
    {
      "inputs": [],
      "name": "VOTE_EMITTED_TYPEHASH",
      "outputs": [
        {
          "internalType": "bytes32",
          "name": "",
          "type": "bytes32"
        }
      ],
      "stateMutability": "view",
      "type": "function",
      "constant": true
    },
    {
      "inputs": [],
      "name": "owner",
      "outputs": [
        {
          "internalType": "address",
          "name": "",
          "type": "address"
        }
      ],
      "stateMutability": "view",
      "type": "function",
      "constant": true
    },
    {
      "inputs": [],
      "name": "renounceOwnership",
      "outputs": [],
      "stateMutability": "nonpayable",
      "type": "function"
    },
    {
      "inputs": [
        {
          "internalType": "address",
          "name": "newOwner",
          "type": "address"
        }
      ],
      "name": "transferOwnership",
      "outputs": [],
      "stateMutability": "nonpayable",
      "type": "function"
    },
    {
      "inputs": [
        {
          "internalType": "contract IExecutorWithTimelock",
          "name": "executor",
          "type": "address"
        },
        {
          "internalType": "address[]",
          "name": "targets",
          "type": "address[]"
        },
        {
          "internalType": "uint256[]",
          "name": "values",
          "type": "uint256[]"
        },
        {
          "internalType": "string[]",
          "name": "signatures",
          "type": "string[]"
        },
        {
          "internalType": "bytes[]",
          "name": "calldatas",
          "type": "bytes[]"
        },
        {
          "internalType": "bool[]",
          "name": "withDelegatecalls",
          "type": "bool[]"
        },
        {
          "internalType": "bytes32",
          "name": "ipfsHash",
          "type": "bytes32"
        }
      ],
      "name": "create",
      "outputs": [
        {
          "internalType": "uint256",
          "name": "",
          "type": "uint256"
        }
      ],
      "stateMutability": "nonpayable",
      "type": "function"
    },
    {
      "inputs": [
        {
          "internalType": "uint256",
          "name": "proposalId",
          "type": "uint256"
        }
      ],
      "name": "cancel",
      "outputs": [],
      "stateMutability": "nonpayable",
      "type": "function"
    },
    {
      "inputs": [
        {
          "internalType": "uint256",
          "name": "proposalId",
          "type": "uint256"
        }
      ],
      "name": "queue",
      "outputs": [],
      "stateMutability": "nonpayable",
      "type": "function"
    },
    {
      "inputs": [
        {
          "internalType": "uint256",
          "name": "proposalId",
          "type": "uint256"
        }
      ],
      "name": "execute",
      "outputs": [],
      "stateMutability": "payable",
      "type": "function",
      "payable": true
    },
    {
      "inputs": [
        {
          "internalType": "uint256",
          "name": "proposalId",
          "type": "uint256"
        },
        {
          "internalType": "bool",
          "name": "support",
          "type": "bool"
        }
      ],
      "name": "submitVote",
      "outputs": [],
      "stateMutability": "nonpayable",
      "type": "function"
    },
    {
      "inputs": [
        {
          "internalType": "uint256",
          "name": "proposalId",
          "type": "uint256"
        },
        {
          "internalType": "bool",
          "name": "support",
          "type": "bool"
        },
        {
          "internalType": "uint8",
          "name": "v",
          "type": "uint8"
        },
        {
          "internalType": "bytes32",
          "name": "r",
          "type": "bytes32"
        },
        {
          "internalType": "bytes32",
          "name": "s",
          "type": "bytes32"
        }
      ],
      "name": "submitVoteBySignature",
      "outputs": [],
      "stateMutability": "nonpayable",
      "type": "function"
    },
    {
      "inputs": [
        {
          "internalType": "address",
          "name": "governanceStrategy",
          "type": "address"
        }
      ],
      "name": "setGovernanceStrategy",
      "outputs": [],
      "stateMutability": "nonpayable",
      "type": "function"
    },
    {
      "inputs": [
        {
          "internalType": "uint256",
          "name": "votingDelay",
          "type": "uint256"
        }
      ],
      "name": "setVotingDelay",
      "outputs": [],
      "stateMutability": "nonpayable",
      "type": "function"
    },
    {
      "inputs": [
        {
          "internalType": "address[]",
          "name": "executors",
          "type": "address[]"
        }
      ],
      "name": "authorizeExecutors",
      "outputs": [],
      "stateMutability": "nonpayable",
      "type": "function"
    },
    {
      "inputs": [
        {
          "internalType": "address[]",
          "name": "executors",
          "type": "address[]"
        }
      ],
      "name": "unauthorizeExecutors",
      "outputs": [],
      "stateMutability": "nonpayable",
      "type": "function"
    },
    {
      "inputs": [],
      "name": "__abdicate",
      "outputs": [],
      "stateMutability": "nonpayable",
      "type": "function"
    },
    {
      "inputs": [],
      "name": "getGovernanceStrategy",
      "outputs": [
        {
          "internalType": "address",
          "name": "",
          "type": "address"
        }
      ],
      "stateMutability": "view",
      "type": "function",
      "constant": true
    },
    {
      "inputs": [],
      "name": "getVotingDelay",
      "outputs": [
        {
          "internalType": "uint256",
          "name": "",
          "type": "uint256"
        }
      ],
      "stateMutability": "view",
      "type": "function",
      "constant": true
    },
    {
      "inputs": [
        {
          "internalType": "address",
          "name": "executor",
          "type": "address"
        }
      ],
      "name": "isExecutorAuthorized",
      "outputs": [
        {
          "internalType": "bool",
          "name": "",
          "type": "bool"
        }
      ],
      "stateMutability": "view",
      "type": "function",
      "constant": true
    },
    {
      "inputs": [],
      "name": "getGuardian",
      "outputs": [
        {
          "internalType": "address",
          "name": "",
          "type": "address"
        }
      ],
      "stateMutability": "view",
      "type": "function",
      "constant": true
    },
    {
      "inputs": [],
      "name": "getProposalsCount",
      "outputs": [
        {
          "internalType": "uint256",
          "name": "",
          "type": "uint256"
        }
      ],
      "stateMutability": "view",
      "type": "function",
      "constant": true
    },
    {
      "inputs": [
        {
          "internalType": "uint256",
          "name": "proposalId",
          "type": "uint256"
        }
      ],
      "name": "getProposalById",
      "outputs": [
        {
          "components": [
            {
              "internalType": "uint256",
              "name": "id",
              "type": "uint256"
            },
            {
              "internalType": "address",
              "name": "creator",
              "type": "address"
            },
            {
              "internalType": "contract IExecutorWithTimelock",
              "name": "executor",
              "type": "address"
            },
            {
              "internalType": "address[]",
              "name": "targets",
              "type": "address[]"
            },
            {
              "internalType": "uint256[]",
              "name": "values",
              "type": "uint256[]"
            },
            {
              "internalType": "string[]",
              "name": "signatures",
              "type": "string[]"
            },
            {
              "internalType": "bytes[]",
              "name": "calldatas",
              "type": "bytes[]"
            },
            {
              "internalType": "bool[]",
              "name": "withDelegatecalls",
              "type": "bool[]"
            },
            {
              "internalType": "uint256",
              "name": "startBlock",
              "type": "uint256"
            },
            {
              "internalType": "uint256",
              "name": "endBlock",
              "type": "uint256"
            },
            {
              "internalType": "uint256",
              "name": "executionTime",
              "type": "uint256"
            },
            {
              "internalType": "uint256",
              "name": "forVotes",
              "type": "uint256"
            },
            {
              "internalType": "uint256",
              "name": "againstVotes",
              "type": "uint256"
            },
            {
              "internalType": "bool",
              "name": "executed",
              "type": "bool"
            },
            {
              "internalType": "bool",
              "name": "canceled",
              "type": "bool"
            },
            {
              "internalType": "address",
              "name": "strategy",
              "type": "address"
            },
            {
              "internalType": "bytes32",
              "name": "ipfsHash",
              "type": "bytes32"
            }
          ],
          "internalType": "struct SuperKarmaGovernanceV2.ProposalWithoutVotes",
          "name": "",
          "type": "tuple"
        }
      ],
      "stateMutability": "view",
      "type": "function",
      "constant": true
    },
    {
      "inputs": [
        {
          "internalType": "uint256",
          "name": "proposalId",
          "type": "uint256"
        },
        {
          "internalType": "address",
          "name": "voter",
          "type": "address"
        }
      ],
      "name": "getVoteOnProposal",
      "outputs": [
        {
          "components": [
            {
              "internalType": "bool",
              "name": "support",
              "type": "bool"
            },
            {
              "internalType": "uint248",
              "name": "votingPower",
              "type": "uint248"
            }
          ],
          "internalType": "struct SuperKarmaGovernanceV2.Vote",
          "name": "",
          "type": "tuple"
        }
      ],
      "stateMutability": "view",
      "type": "function",
      "constant": true
    },
    {
      "inputs": [
        {
          "internalType": "uint256",
          "name": "proposalId",
          "type": "uint256"
        }
      ],
      "name": "getProposalState",
      "outputs": [
        {
          "internalType": "enum SuperKarmaGovernanceV2.ProposalState",
          "name": "",
          "type": "uint8"
        }
      ],
      "stateMutability": "view",
      "type": "function",
      "constant": true
    }
  ],
  "bytecode": "0x60806040523480156200001157600080fd5b506040516200364738038062003647833981016040819052620000349162000280565b600062000040620000d0565b600080546001600160a01b0319166001600160a01b0383169081178255604051929350917f8be0079c531659141344cd1fd0a4f28419497f9722a3daafe3b4186f6b6457e0908290a3506200009584620000d4565b620000a08362000121565b600680546001600160a01b0319166001600160a01b038416179055620000c68162000165565b5050505062000410565b3390565b600180546001600160a01b0319166001600160a01b0383169081179091556040513391907f9e8e9f668db69a2cefb172dabe284d0d3aea2b7ee64212a205bd033bd03a3d5590600090a350565b600281905560405133907fc46fc23e244f0720a98ddbac6efb5bb40d212cf15e6478fc4b3017648715289d906200015a908490620003a7565b60405180910390a250565b6200016f620000d0565b6001600160a01b031662000182620001f3565b6001600160a01b031614620001b45760405162461bcd60e51b8152600401620001ab9062000372565b60405180910390fd5b60005b8151811015620001ef57620001e6828281518110620001d257fe5b60200260200101516200020260201b60201c565b600101620001b7565b5050565b6000546001600160a01b031690565b6001600160a01b03811660009081526005602052604090819020805460ff19166001179055517f52762435f58790076157ea2a4914a5a4d0aa0eb421588891377692f7fd3bc08290620002579083906200035e565b60405180910390a150565b80516001600160a01b03811681146200027a57600080fd5b92915050565b6000806000806080858703121562000296578384fd5b8451620002a381620003f7565b8094505060208086015193506040860151620002bf81620003f7565b60608701519093506001600160401b03811115620002db578283fd5b8601601f81018813620002ec578283fd5b805162000303620002fd82620003d7565b620003b0565b81815283810190838501858402850186018c101562000320578687fd5b8694505b838510156200034e57620003398c8262000262565b83526001949094019391850191850162000324565b50979a9699509497505050505050565b6001600160a01b0391909116815260200190565b6020808252818101527f4f776e61626c653a2063616c6c6572206973206e6f7420746865206f776e6572604082015260600190565b90815260200190565b6040518181016001600160401b0381118282101715620003cf57600080fd5b604052919050565b60006001600160401b03821115620003ed578081fd5b5060209081020190565b6001600160a01b03811681146200040d57600080fd5b50565b61322780620004206000396000f3fe6080604052600436106101665760003560e01c8063760fbc13116100d1578063a3f4df7e1161008a578063ddf0b00911610064578063ddf0b00914610403578063f2fde38b14610423578063f8741a9c14610443578063fe0d94c11461046357610166565b8063a3f4df7e146103ac578063a75b87d2146103ce578063af1e0bd3146103e357610166565b8063760fbc131461030b5780638da5cb5b146103205780639080936f1461033557806398e527d3146103625780639aad6f6a14610377578063a2b170b01461039757610166565b80634185ff83116101235780634185ff831461023c578063548b514e14610269578063612c56fa1461029657806364c786d9146102b657806370b0f660146102d6578063715018a6146102f657610166565b806306be3e8e1461016b5780631a1caf7f1461019657806320606b70146101b857806334b18c26146101da5780633656de21146101ef57806340e58ee51461021c575b600080fd5b34801561017757600080fd5b50610180610476565b60405161018d9190612a22565b60405180910390f35b3480156101a257600080fd5b506101b66101b13660046125c5565b610485565b005b3480156101c457600080fd5b506101cd610501565b60405161018d9190612ae7565b3480156101e657600080fd5b506101cd610525565b3480156101fb57600080fd5b5061020f61020a36600461278e565b610549565b60405161018d9190612ee8565b34801561022857600080fd5b506101b661023736600461278e565b6108fa565b34801561024857600080fd5b5061025c6102573660046127a6565b610bcc565b60405161018d9190613042565b34801561027557600080fd5b506102896102843660046125a9565b610c25565b60405161018d9190612adc565b3480156102a257600080fd5b506101b66102b13660046127d5565b610c43565b3480156102c257600080fd5b506101b66102d13660046125c5565b610c4e565b3480156102e257600080fd5b506101b66102f136600461278e565b610cbd565b34801561030257600080fd5b506101b6610d08565b34801561031757600080fd5b506101b6610d91565b34801561032c57600080fd5b50610180610dcd565b34801561034157600080fd5b5061035561035036600461278e565b610ddc565b60405161018d9190612b6e565b34801561036e57600080fd5b506101cd610fad565b34801561038357600080fd5b506101b66103923660046125a9565b610fb3565b3480156103a357600080fd5b506101cd610ffb565b3480156103b857600080fd5b506103c1611001565b60405161018d9190612b82565b3480156103da57600080fd5b50610180611035565b3480156103ef57600080fd5b506101b66103fe3660046127f9565b611044565b34801561040f57600080fd5b506101b661041e36600461278e565b6111ec565b34801561042f57600080fd5b506101b661043e3660046125a9565b6114e8565b34801561044f57600080fd5b506101cd61045e3660046126a7565b6115a8565b6101b661047136600461278e565b611931565b6001546001600160a01b031690565b61048d611b30565b6001600160a01b031661049e610dcd565b6001600160a01b0316146104cd5760405162461bcd60e51b81526004016104c490612dbd565b60405180910390fd5b60005b81518110156104fd576104f58282815181106104e857fe5b6020026020010151611b34565b6001016104d0565b5050565b7f8cad95687ba82c2ce50e74f7b754645e5117c3a5bec8151c0726d5857980a86681565b7f4e031542a9553ed1c4e810c54674ab4b984243e335b246aa3de73663bf4c11ee81565b610551611fb6565b6000828152600460205260409020610567611fb6565b60408051610220810182528354815260018401546001600160a01b039081166020808401919091526002860154909116828401526003850180548451818402810184019095528085529293606085019390928301828280156105f257602002820191906000526020600020905b81546001600160a01b031681526001909101906020018083116105d4575b505050505081526020018360040180548060200260200160405190810160405280929190818152602001828054801561064a57602002820191906000526020600020905b815481526020019060010190808311610636575b5050505050815260200183600501805480602002602001604051908101604052809291908181526020016000905b828210156107235760008481526020908190208301805460408051601f600260001961010060018716150201909416939093049283018590048502810185019091528181529283018282801561070f5780601f106106e45761010080835404028352916020019161070f565b820191906000526020600020905b8154815290600101906020018083116106f257829003601f168201915b505050505081526020019060010190610678565b50505050815260200183600601805480602002602001604051908101604052809291908181526020016000905b828210156107fb5760008481526020908190208301805460408051601f60026000196101006001871615020190941693909304928301859004850281018501909152818152928301828280156107e75780601f106107bc576101008083540402835291602001916107e7565b820191906000526020600020905b8154815290600101906020018083116107ca57829003601f168201915b505050505081526020019060010190610750565b5050505081526020018360070180548060200260200160405190810160405280929190818152602001828054801561087257602002820191906000526020600020906000905b825461010083900a900460ff1615158152602060019283018181049485019490930390920291018084116108415790505b50505091835250506008840154602082015260098401546040820152600a8401546060820152600b8401546080820152600c84015460a0820152600d84015460ff808216151560c0840152610100808304909116151560e0840152620100009091046001600160a01b031690820152600e90930154610120909301929092525090505b919050565b600061090582610ddc565b9050600781600781111561091557fe5b1415801561092f5750600181600781111561092c57fe5b14155b80156109475750600681600781111561094457fe5b14155b6109635760405162461bcd60e51b81526004016104c490612e5e565b60008281526004602052604090206006546001600160a01b0316331480610a165750600281015460018201546040516331a7bc4160e01b81526001600160a01b03928316926331a7bc41926109c692309290911690436000190190600401612b4a565b60206040518083038186803b1580156109de57600080fd5b505afa1580156109f2573d6000803e3d6000fd5b505050506040513d601f19601f82011682018060405250810190610a169190612600565b610a325760405162461bcd60e51b81526004016104c490612e29565b600d8101805461ff00191661010017905560005b6003820154811015610b8f5760028201546003830180546001600160a01b0390921691631dc40b51919084908110610a7a57fe5b6000918252602090912001546004850180546001600160a01b039092169185908110610aa257fe5b9060005260206000200154856005018581548110610abc57fe5b90600052602060002001866006018681548110610ad557fe5b9060005260206000200187600a0154886007018881548110610af357fe5b90600052602060002090602091828204019190069054906101000a900460ff166040518763ffffffff1660e01b8152600401610b3496959493929190612aa3565b602060405180830381600087803b158015610b4e57600080fd5b505af1158015610b62573d6000803e3d6000fd5b505050506040513d601f19601f82011682018060405250810190610b86919061261c565b50600101610a46565b507f789cf55be980739dad1d0699b93b58e806b51c9d96619bfa8fe0a28abaa7b30c83604051610bbf9190612ae7565b60405180910390a1505050565b610bd461205c565b5060008281526004602090815260408083206001600160a01b0385168452600f0182529182902082518084019093525460ff81161515835261010090046001600160f81b0316908201525b92915050565b6001600160a01b031660009081526005602052604090205460ff1690565b6104fd338383611b8f565b610c56611b30565b6001600160a01b0316610c67610dcd565b6001600160a01b031614610c8d5760405162461bcd60e51b81526004016104c490612dbd565b60005b81518110156104fd57610cb5828281518110610ca857fe5b6020026020010151611d49565b600101610c90565b610cc5611b30565b6001600160a01b0316610cd6610dcd565b6001600160a01b031614610cfc5760405162461bcd60e51b81526004016104c490612dbd565b610d0581611d9c565b50565b610d10611b30565b6001600160a01b0316610d21610dcd565b6001600160a01b031614610d475760405162461bcd60e51b81526004016104c490612dbd565b600080546040516001600160a01b03909116907f8be0079c531659141344cd1fd0a4f28419497f9722a3daafe3b4186f6b6457e0908390a3600080546001600160a01b0319169055565b6006546001600160a01b03163314610dbb5760405162461bcd60e51b81526004016104c490612d93565b600680546001600160a01b0319169055565b6000546001600160a01b031690565b6000816003541015610e005760405162461bcd60e51b81526004016104c490612e8c565b6000828152600460205260409020600d810154610100900460ff1615610e2a5760019150506108f5565b80600801544311610e3f5760009150506108f5565b80600901544311610e545760029150506108f5565b60028101546040516306fbb3ab60e01b81526001600160a01b03909116906306fbb3ab90610e889030908790600401612a36565b60206040518083038186803b158015610ea057600080fd5b505afa158015610eb4573d6000803e3d6000fd5b505050506040513d601f19601f82011682018060405250810190610ed89190612600565b610ee65760039150506108f5565b600a810154610ef95760049150506108f5565b600d81015460ff1615610f105760079150506108f5565b600281015460405163f670a5f960e01b81526001600160a01b039091169063f670a5f990610f449030908790600401612a36565b60206040518083038186803b158015610f5c57600080fd5b505afa158015610f70573d6000803e3d6000fd5b505050506040513d601f19601f82011682018060405250810190610f949190612600565b15610fa35760069150506108f5565b60059150506108f5565b60035490565b610fbb611b30565b6001600160a01b0316610fcc610dcd565b6001600160a01b031614610ff25760405162461bcd60e51b81526004016104c490612dbd565b610d0581611dde565b60025490565b6040518060400160405280601881526020017729bab832b925b0b936b09023b7bb32b93730b731b2903b1960411b81525081565b6006546001600160a01b031690565b60408051808201909152601881527729bab832b925b0b936b09023b7bb32b93730b731b2903b1960411b60209091015260007f8cad95687ba82c2ce50e74f7b754645e5117c3a5bec8151c0726d5857980a8667f7527c31b29d6e46a4c8bb52a28592a5ea56afb30e131aa41bcc4f661ad31a1736110c0611e2b565b306040516020016110d49493929190612af0565b604051602081830303815290604052805190602001207f4e031542a9553ed1c4e810c54674ab4b984243e335b246aa3de73663bf4c11ee878760405160200161111f93929190612b14565b60405160208183030381529060405280519060200120604051602001611146929190612a07565b6040516020818303038152906040528051906020012090506000600182868686604051600081526020016040526040516111839493929190612b2c565b6020604051602081039080840390855afa1580156111a5573d6000803e3d6000fd5b5050604051601f1901519150506001600160a01b0381166111d85760405162461bcd60e51b81526004016104c490612d01565b6111e3818888611b8f565b50505050505050565b60046111f782610ddc565b600781111561120257fe5b1461121f5760405162461bcd60e51b81526004016104c490612c70565b60008181526004602081815260408084206002810154825163675e4d4160e11b815292519195946112b6946001600160a01b039092169363cebc9a829381830193929091829003018186803b15801561127757600080fd5b505afa15801561128b573d6000803e3d6000fd5b505050506040513d601f19601f820116820180604052508101906112af919061261c565b4290611e2f565b905060005b600383015481101561149f576002830154600384018054611497926001600160a01b03169190849081106112eb57fe5b6000918252602090912001546004860180546001600160a01b03909216918590811061131357fe5b906000526020600020015486600501858154811061132d57fe5b600091825260209182902001805460408051601f60026000196101006001871615020190941693909304928301859004850281018501909152818152928301828280156113bb5780601f10611390576101008083540402835291602001916113bb565b820191906000526020600020905b81548152906001019060200180831161139e57829003601f168201915b50505050508760060186815481106113cf57fe5b600091825260209182902001805460408051601f600260001961010060018716150201909416939093049283018590048502810185019091528181529283018282801561145d5780601f106114325761010080835404028352916020019161145d565b820191906000526020600020905b81548152906001019060200180831161144057829003601f168201915b50505050508789600701888154811061147257fe5b90600052602060002090602091828204019190069054906101000a900460ff16611e5b565b6001016112bb565b50600a820181905560405133907f11a0b38e70585e4b09b794bd1d9f9b1a51a802eb8ee2101eeee178d0349e73fe906114db9086908590613119565b60405180910390a2505050565b6114f0611b30565b6001600160a01b0316611501610dcd565b6001600160a01b0316146115275760405162461bcd60e51b81526004016104c490612dbd565b6001600160a01b03811661154d5760405162461bcd60e51b81526004016104c490612b95565b600080546040516001600160a01b03808516939216917f8be0079c531659141344cd1fd0a4f28419497f9722a3daafe3b4186f6b6457e091a3600080546001600160a01b0319166001600160a01b0392909216919091179055565b60008651600014156115cc5760405162461bcd60e51b81526004016104c490612cd2565b855187511480156115de575084518751145b80156115eb575083518751145b80156115f8575082518751145b6116145760405162461bcd60e51b81526004016104c490612df2565b61161d88610c25565b6116395760405162461bcd60e51b81526004016104c490612d5c565b604051631a1b205360e31b81526001600160a01b0389169063d0d902989061166d9030903390600019430190600401612b4a565b60206040518083038186803b15801561168557600080fd5b505afa158015611699573d6000803e3d6000fd5b505050506040513d601f19601f820116820180604052508101906116bd9190612600565b6116d95760405162461bcd60e51b81526004016104c490612bdb565b6116e1612073565b6002546116ef904390611e2f565b816000018181525050611774896001600160a01b031663a438d2086040518163ffffffff1660e01b815260040160206040518083038186803b15801561173457600080fd5b505afa158015611748573d6000803e3d6000fd5b505050506040513d601f19601f8201168201806040525081019061176c919061261c565b825190611e2f565b602082810191909152600380546040808501828152600092835260048552912090518155600181018054336001600160a01b0319918216179091556002820180549091166001600160a01b038e161790558a5190926117d992840191908c0190612094565b5087516117ef90600483019060208b01906120f9565b50865161180590600583019060208a0190612140565b50855161181b9060068301906020890190612199565b50845161183190600783019060208801906121f2565b508160000151816008018190555081602001518160090181905550600160009054906101000a90046001600160a01b031681600d0160026101000a8154816001600160a01b0302191690836001600160a01b031602179055508381600e0181905550600360008154809291906001019190505550896001600160a01b0316336001600160a01b03167fd272d67d2c8c66de43c1d2515abb064978a5020c173e15903b6a2ab3bf7440ec84604001518c8c8c8c8c8a600001518b60200151600160009054906101000a90046001600160a01b03168f60405161191b9a99989796959493929190613064565b60405180910390a3549998505050505050505050565b600561193c82610ddc565b600781111561194757fe5b146119645760405162461bcd60e51b81526004016104c490612eb9565b6000818152600460205260408120600d8101805460ff19166001179055905b6003820154811015611aea5760028201546004830180546001600160a01b0390921691638902ab659190849081106119b757fe5b90600052602060002001548460030184815481106119d157fe5b6000918252602090912001546004860180546001600160a01b0390921691869081106119f957fe5b9060005260206000200154866005018681548110611a1357fe5b90600052602060002001876006018781548110611a2c57fe5b9060005260206000200188600a0154896007018981548110611a4a57fe5b90600052602060002090602091828204019190069054906101000a900460ff166040518863ffffffff1660e01b8152600401611a8b96959493929190612aa3565b6000604051808303818588803b158015611aa457600080fd5b505af1158015611ab8573d6000803e3d6000fd5b50505050506040513d6000823e601f3d908101601f19168201604052611ae19190810190612634565b50600101611983565b50336001600160a01b03167f9c85b616f29fca57a17eafe71cf9ff82ffef41766e2cf01ea7f8f7878dd3ec2483604051611b249190612ae7565b60405180910390a25050565b3390565b6001600160a01b03811660009081526005602052604090819020805460ff19169055517f5e8105a2af24345971359d2289f43efa80d093f4a7123561b8d63836b98724f490611b84908390612a22565b60405180910390a150565b6002611b9a83610ddc565b6007811115611ba557fe5b14611bc25760405162461bcd60e51b81526004016104c490612c49565b60008281526004602090815260408083206001600160a01b0387168452600f8101909252909120805461010090046001600160f81b031615611c165760405162461bcd60e51b81526004016104c490612d2c565b600d820154600883015460405163eaeded5f60e01b81526000926201000090046001600160a01b03169163eaeded5f91611c54918a91600401612a36565b60206040518083038186803b158015611c6c57600080fd5b505afa158015611c80573d6000803e3d6000fd5b505050506040513d601f19601f82011682018060405250810190611ca4919061261c565b90508315611cc557600b830154611cbb9082611e2f565b600b840155611cda565b600c830154611cd49082611e2f565b600c8401555b815460ff60ff1990911685151517166101006001600160f81b038316021782556040516001600160a01b038716907f0c611e7b6ae0de26f4772260e1bbdb5f58cbb7c275fe2de14671968d29add8d690611d3990889088908690613103565b60405180910390a2505050505050565b6001600160a01b03811660009081526005602052604090819020805460ff19166001179055517f52762435f58790076157ea2a4914a5a4d0aa0eb421588891377692f7fd3bc08290611b84908390612a22565b600281905560405133907fc46fc23e244f0720a98ddbac6efb5bb40d212cf15e6478fc4b3017648715289d90611dd3908490612ae7565b60405180910390a250565b600180546001600160a01b0319166001600160a01b0383169081179091556040513391907f9e8e9f668db69a2cefb172dabe284d0d3aea2b7ee64212a205bd033bd03a3d5590600090a350565b4690565b600082820183811015611e545760405162461bcd60e51b81526004016104c490612c12565b9392505050565b866001600160a01b031663b1fc8796878787878787604051602001611e8596959493929190612a4f565b604051602081830303815290604052805190602001206040518263ffffffff1660e01b8152600401611eb79190612ae7565b60206040518083038186803b158015611ecf57600080fd5b505afa158015611ee3573d6000803e3d6000fd5b505050506040513d601f19601f82011682018060405250810190611f079190612600565b15611f245760405162461bcd60e51b81526004016104c490612ca7565b604051638d8fe2e360e01b81526001600160a01b03881690638d8fe2e390611f5a90899089908990899089908990600401612a4f565b602060405180830381600087803b158015611f7457600080fd5b505af1158015611f88573d6000803e3d6000fd5b505050506040513d601f19601f82011682018060405250810190611fac919061261c565b5050505050505050565b6040518061022001604052806000815260200160006001600160a01b0316815260200160006001600160a01b031681526020016060815260200160608152602001606081526020016060815260200160608152602001600081526020016000815260200160008152602001600081526020016000815260200160001515815260200160001515815260200160006001600160a01b03168152602001600080191681525090565b604080518082019091526000808252602082015290565b60405180606001604052806000815260200160008152602001600081525090565b8280548282559060005260206000209081019282156120e9579160200282015b828111156120e957825182546001600160a01b0319166001600160a01b039091161782556020909201916001909101906120b4565b506120f5929150612293565b5090565b828054828255906000526020600020908101928215612134579160200282015b82811115612134578251825591602001919060010190612119565b506120f59291506122b2565b82805482825590600052602060002090810192821561218d579160200282015b8281111561218d578251805161217d9184916020909101906122c7565b5091602001919060010190612160565b506120f5929150612334565b8280548282559060005260206000209081019282156121e6579160200282015b828111156121e657825180516121d69184916020909101906122c7565b50916020019190600101906121b9565b506120f5929150612351565b82805482825590600052602060002090601f016020900481019282156122875791602002820160005b8382111561225857835183826101000a81548160ff021916908315150217905550926020019260010160208160000104928301926001030261221b565b80156122855782816101000a81549060ff0219169055600101602081600001049283019260010302612258565b505b506120f592915061236e565b5b808211156120f55780546001600160a01b0319168155600101612294565b5b808211156120f557600081556001016122b3565b828054600181600116156101000203166002900490600052602060002090601f016020900481019282601f1061230857805160ff1916838001178555612134565b828001600101855582156121345791820182811115612134578251825591602001919060010190612119565b808211156120f55760006123488282612387565b50600101612334565b808211156120f55760006123658282612387565b50600101612351565b5b808211156120f557805460ff1916815560010161236f565b50805460018160011615610100020316600290046000825580601f106123ad5750610d05565b601f016020900490600052602060002090810190610d0591906122b2565b600082601f8301126123db578081fd5b81356123ee6123e98261314e565b613127565b81815291506020808301908481018184028601820187101561240f57600080fd5b60005b84811015612437578135612425816131ce565b84529282019290820190600101612412565b505050505092915050565b600082601f830112612452578081fd5b81356124606123e98261314e565b81815291506020808301908481018184028601820187101561248157600080fd5b60005b84811015612437578135612497816131e3565b84529282019290820190600101612484565b600082601f8301126124b9578081fd5b81356124c76123e98261314e565b818152915060208083019084810160005b84811015612437578135870188603f8201126124f357600080fd5b838101356125036123e98261316e565b81815260408b8184860101111561251957600080fd5b828185018884013750600091810186019190915285525092820192908201906001016124d8565b600082601f830112612550578081fd5b813561255e6123e98261314e565b81815291506020808301908481018184028601820187101561257f57600080fd5b60005b8481101561243757813584529282019290820190600101612582565b8035610c1f816131ce565b6000602082840312156125ba578081fd5b8135611e54816131ce565b6000602082840312156125d6578081fd5b813567ffffffffffffffff8111156125ec578182fd5b6125f8848285016123cb565b949350505050565b600060208284031215612611578081fd5b8151611e54816131e3565b60006020828403121561262d578081fd5b5051919050565b600060208284031215612645578081fd5b815167ffffffffffffffff81111561265b578182fd5b8201601f8101841361266b578182fd5b80516126796123e98261316e565b81815285602083850101111561268d578384fd5b61269e82602083016020860161319e565b95945050505050565b600080600080600080600060e0888a0312156126c1578283fd5b6126cb898961259e565b9650602088013567ffffffffffffffff808211156126e7578485fd5b6126f38b838c016123cb565b975060408a0135915080821115612708578485fd5b6127148b838c01612540565b965060608a0135915080821115612729578485fd5b6127358b838c016124a9565b955060808a013591508082111561274a578485fd5b6127568b838c016124a9565b945060a08a013591508082111561276b578384fd5b506127788a828b01612442565b92505060c0880135905092959891949750929550565b60006020828403121561279f578081fd5b5035919050565b600080604083850312156127b8578182fd5b8235915060208301356127ca816131ce565b809150509250929050565b600080604083850312156127e7578182fd5b8235915060208301356127ca816131e3565b600080600080600060a08688031215612810578283fd5b853594506020860135612822816131e3565b9350604086013560ff81168114612837578384fd5b94979396509394606081013594506080013592915050565b6001600160a01b03169052565b6000815180845260208085019450808401835b838110156128945781516001600160a01b03168752958201959082019060010161286f565b509495945050505050565b6000815180845260208085019450808401835b838110156128945781511515875295820195908201906001016128b2565b6000815180845260208085018081965082840281019150828601855b85811015612916578284038952612904848351612958565b988501989350908401906001016128ec565b5091979650505050505050565b6000815180845260208085019450808401835b8381101561289457815187529582019590820190600101612936565b15159052565b6000815180845261297081602086016020860161319e565b601f01601f19169290920160200192915050565b600081546001808216600081146129a257600181146129c0576129fe565b60028304607f16865260ff19831660208701526040860193506129fe565b600283048087526129d086613192565b60005b828110156129f45781546020828b01015284820191506020810190506129d3565b8801602001955050505b50505092915050565b61190160f01b81526002810192909252602282015260420190565b6001600160a01b0391909116815260200190565b6001600160a01b03929092168252602082015260400190565b600060018060a01b038816825286602083015260c06040830152612a7660c0830187612958565b8281036060840152612a888187612958565b6080840195909552505090151560a090910152949350505050565b600060018060a01b038816825286602083015260c06040830152612aca60c0830187612984565b8281036060840152612a888187612984565b901515815260200190565b90815260200190565b938452602084019290925260408301526001600160a01b0316606082015260800190565b92835260208301919091521515604082015260600190565b93845260ff9290921660208401526040830152606082015260800190565b6001600160a01b039384168152919092166020820152604081019190915260600190565b6020810160088310612b7c57fe5b91905290565b600060208252611e546020830184612958565b60208082526026908201527f4f776e61626c653a206e6577206f776e657220697320746865207a65726f206160408201526564647265737360d01b606082015260800190565b6020808252601c908201527f50524f504f534954494f4e5f4352454154494f4e5f494e56414c494400000000604082015260600190565b6020808252601b908201527f536166654d6174683a206164646974696f6e206f766572666c6f770000000000604082015260600190565b6020808252600d908201526c1593d5125391d7d0d313d4d151609a1b604082015260600190565b60208082526017908201527f494e56414c49445f53544154455f464f525f5155455545000000000000000000604082015260600190565b602080825260119082015270222aa82624a1a0aa22a22fa0a1aa24a7a760791b604082015260600190565b602080825260159082015274494e56414c49445f454d5054595f5441524745545360581b604082015260600190565b602080825260119082015270494e56414c49445f5349474e415455524560781b604082015260600190565b6020808252601690820152751593d51157d053149150511657d4d55093525515115160521b604082015260600190565b60208082526017908201527f4558454355544f525f4e4f545f415554484f52495a4544000000000000000000604082015260600190565b60208082526010908201526f27a7262cafa12cafa3aaa0a92224a0a760811b604082015260600190565b6020808252818101527f4f776e61626c653a2063616c6c6572206973206e6f7420746865206f776e6572604082015260600190565b6020808252601a908201527f494e434f4e53495354454e545f504152414d535f4c454e475448000000000000604082015260600190565b6020808252818101527f50524f504f534954494f4e5f43414e43454c4c4154494f4e5f494e56414c4944604082015260600190565b60208082526014908201527313d3931657d0915193d49157d1561150d555115160621b604082015260600190565b6020808252601390820152721253959053125117d41493d413d4d05317d251606a1b604082015260600190565b6020808252601590820152744f4e4c595f5155455545445f50524f504f53414c5360581b604082015260600190565b600060208252825160208301526020830151612f07604084018261284f565b506040830151612f1a606084018261284f565b506060830151610220806080850152612f3761024085018361285c565b91506080850151601f19808685030160a0870152612f558483612923565b935060a08701519150808685030160c0870152612f7284836128d0565b935060c08701519150808685030160e0870152612f8f84836128d0565b935060e08701519150610100818786030181880152612fae858461289f565b90880151610120888101919091528801516101408089019190915288015161016080890191909152880151610180808901919091528801516101a08089019190915288015190945091506101c0905061300981870183612952565b86015190506101e061301d86820183612952565b86015190506102006130318682018361284f565b959095015193019290925250919050565b8151151581526020918201516001600160f81b03169181019190915260400190565b60006101408c835280602084015261307e8184018d61285c565b90508281036040840152613092818c612923565b905082810360608401526130a6818b6128d0565b905082810360808401526130ba818a6128d0565b905082810360a08401526130ce818961289f565b60c0840197909752505060e08101939093526001600160a01b0391909116610100830152610120909101529695505050505050565b9283529015156020830152604082015260600190565b918252602082015260400190565b60405181810167ffffffffffffffff8111828210171561314657600080fd5b604052919050565b600067ffffffffffffffff821115613164578081fd5b5060209081020190565b600067ffffffffffffffff821115613184578081fd5b50601f01601f191660200190565b60009081526020902090565b60005b838110156131b95781810151838201526020016131a1565b838111156131c8576000848401525b50505050565b6001600160a01b0381168114610d0557600080fd5b8015158114610d0557600080fdfea2646970667358221220fe7aec0058f0026a1f541f1892bba80eb56ccbf2cb33ff0aa4cc74f5ff6a728364736f6c63430007000033",
  "immutableReferences": {},
  "source": "// SPDX-License-Identifier: agpl-3.0\r\npragma solidity 0.7.0;\r\npragma experimental ABIEncoderV2;\r\nimport {IVotingStrategy} from './interfaces/IVotingStrategy.sol';\r\nimport {IExecutorWithTimelock} from './interfaces/IExecutorWithTimelock.sol';\r\nimport {IProposalValidator} from './interfaces/IProposalValidator.sol';\r\nimport {IGovernanceStrategy} from './interfaces/IGovernanceStrategy.sol';\r\nimport '@openzeppelin/contracts/access/Ownable.sol';\r\nimport '@openzeppelin/contracts/math/SafeMath.sol';\r\nimport {Helpers} from './misc/Helpers.sol';\r\nimport {ISuperKarmaGovernance} from './interfaces/ISuperKarmaGovernance.sol';\r\n\r\n/**\r\n * @title Governance V2 contract\r\n * @dev Main point of interaction with SuperKarma protocol's governance\r\n * - Create a Proposal\r\n * - Cancel a Proposal\r\n * - Queue a Proposal\r\n * - Execute a Proposal\r\n * - Submit Vote to a Proposal\r\n * Proposal States : Pending => Active => Succeeded(/Failed) => Queued => Executed(/Expired)\r\n *                   The transition to \"Canceled\" can appear in multiple states\r\n * @author SuperKarma\r\n **/\r\ncontract SuperKarmaGovernanceV2 is Ownable {\r\n    using SafeMath for uint256;\r\n\r\n    enum ProposalState {\r\n        Pending,\r\n        Canceled,\r\n        Active,\r\n        Failed,\r\n        Succeeded,\r\n        Queued,\r\n        Expired,\r\n        Executed\r\n    }\r\n\r\n    struct Vote {\r\n        bool support;\r\n        uint248 votingPower;\r\n    }\r\n\r\n    struct Proposal {\r\n        uint256 id;\r\n        address creator;\r\n        IExecutorWithTimelock executor;\r\n        address[] targets;\r\n        uint256[] values;\r\n        string[] signatures;\r\n        bytes[] calldatas;\r\n        bool[] withDelegatecalls;\r\n        uint256 startBlock;\r\n        uint256 endBlock;\r\n        uint256 executionTime;\r\n        uint256 forVotes;\r\n        uint256 againstVotes;\r\n        bool executed;\r\n        bool canceled;\r\n        address strategy;\r\n        bytes32 ipfsHash;\r\n        mapping(address => Vote) votes;\r\n    }\r\n\r\n    struct ProposalWithoutVotes {\r\n        uint256 id;\r\n        address creator;\r\n        IExecutorWithTimelock executor;\r\n        address[] targets;\r\n        uint256[] values;\r\n        string[] signatures;\r\n        bytes[] calldatas;\r\n        bool[] withDelegatecalls;\r\n        uint256 startBlock;\r\n        uint256 endBlock;\r\n        uint256 executionTime;\r\n        uint256 forVotes;\r\n        uint256 againstVotes;\r\n        bool executed;\r\n        bool canceled;\r\n        address strategy;\r\n        bytes32 ipfsHash;\r\n    }\r\n\r\n    event ProposalCreated(\r\n        uint256 id,\r\n        address indexed creator,\r\n        IExecutorWithTimelock indexed executor,\r\n        address[] targets,\r\n        uint256[] values,\r\n        string[] signatures,\r\n        bytes[] calldatas,\r\n        bool[] withDelegatecalls,\r\n        uint256 startBlock,\r\n        uint256 endBlock,\r\n        address strategy,\r\n        bytes32 ipfsHash\r\n    );\r\n\r\n    /**\r\n     * @dev emitted when a proposal is canceled\r\n     * @param id Id of the proposal\r\n     **/\r\n    event ProposalCanceled(uint256 id);\r\n\r\n    /**\r\n     * @dev emitted when a proposal is queued\r\n     * @param id Id of the proposal\r\n     * @param executionTime time when proposal underlying transactions can be executed\r\n     * @param initiatorQueueing address of the initiator of the queuing transaction\r\n     **/\r\n    event ProposalQueued(uint256 id, uint256 executionTime, address indexed initiatorQueueing);\r\n    /**\r\n     * @dev emitted when a proposal is executed\r\n     * @param id Id of the proposal\r\n     * @param initiatorExecution address of the initiator of the execution transaction\r\n     **/\r\n    event ProposalExecuted(uint256 id, address indexed initiatorExecution);\r\n    /**\r\n     * @dev emitted when a vote is registered\r\n     * @param id Id of the proposal\r\n     * @param voter address of the voter\r\n     * @param support boolean, true = vote for, false = vote against\r\n     * @param votingPower Power of the voter/vote\r\n     **/\r\n    event VoteEmitted(uint256 id, address indexed voter, bool support, uint256 votingPower);\r\n\r\n    event GovernanceStrategyChanged(address indexed newStrategy, address indexed initiatorChange);\r\n\r\n    event VotingDelayChanged(uint256 newVotingDelay, address indexed initiatorChange);\r\n\r\n    event ExecutorAuthorized(address executor);\r\n\r\n    event ExecutorUnauthorized(address executor);\r\n\r\n    address private _governanceStrategy;\r\n    uint256 private _votingDelay;\r\n\r\n    uint256 private _proposalsCount;\r\n    mapping(uint256 => Proposal) private _proposals;\r\n    mapping(address => bool) private _authorizedExecutors;\r\n\r\n    address private _guardian;\r\n\r\n    bytes32 public constant DOMAIN_TYPEHASH =\r\n        keccak256('EIP712Domain(string name,uint256 chainId,address verifyingContract)');\r\n    bytes32 public constant VOTE_EMITTED_TYPEHASH = keccak256('VoteEmitted(uint256 id,bool support)');\r\n    string public constant NAME = 'SuperKarma Governance v2';\r\n\r\n    modifier onlyGuardian() {\r\n        require(msg.sender == _guardian, 'ONLY_BY_GUARDIAN');\r\n        _;\r\n    }\r\n\r\n    constructor(\r\n        address governanceStrategy,\r\n        uint256 votingDelay,\r\n        address guardian,\r\n        address[] memory executors\r\n    ) public {\r\n        _setGovernanceStrategy(governanceStrategy);\r\n        _setVotingDelay(votingDelay);\r\n        _guardian = guardian;\r\n\r\n        authorizeExecutors(executors);\r\n    }\r\n\r\n    struct CreateVars {\r\n        uint256 startBlock;\r\n        uint256 endBlock;\r\n        uint256 previousProposalsCount;\r\n    }\r\n\r\n    /**\r\n     * @dev Creates a Proposal (needs to be validated by the Proposal Validator)\r\n     * @param executor The ExecutorWithTimelock contract that will execute the proposal\r\n     * @param targets list of contracts called by proposal's associated transactions\r\n     * @param values list of value in wei for each propoposal's associated transaction\r\n     * @param signatures list of function signatures (can be empty) to be used when created the callData\r\n     * @param calldatas list of calldatas: if associated signature empty, calldata ready, else calldata is arguments\r\n     * @param withDelegatecalls boolean, true = transaction delegatecalls the taget, else calls the target\r\n     * @param ipfsHash IPFS hash of the proposal\r\n     **/\r\n    function create(\r\n        IExecutorWithTimelock executor,\r\n        address[] memory targets,\r\n        uint256[] memory values,\r\n        string[] memory signatures,\r\n        bytes[] memory calldatas,\r\n        bool[] memory withDelegatecalls,\r\n        bytes32 ipfsHash\r\n    ) external returns (uint256) {\r\n        require(targets.length != 0, 'INVALID_EMPTY_TARGETS');\r\n        require(\r\n            targets.length == values.length &&\r\n                targets.length == signatures.length &&\r\n                targets.length == calldatas.length &&\r\n                targets.length == withDelegatecalls.length,\r\n            'INCONSISTENT_PARAMS_LENGTH'\r\n        );\r\n\r\n        require(isExecutorAuthorized(address(executor)), 'EXECUTOR_NOT_AUTHORIZED');\r\n\r\n        require(\r\n            IProposalValidator(address(executor)).validateCreatorOfProposal(\r\n                ISuperKarmaGovernance(address(this)),\r\n                msg.sender,\r\n                block.number - 1\r\n            ),\r\n            'PROPOSITION_CREATION_INVALID'\r\n        );\r\n\r\n        CreateVars memory vars;\r\n\r\n        vars.startBlock = block.number.add(_votingDelay);\r\n        vars.endBlock = vars.startBlock.add(IProposalValidator(address(executor)).VOTING_DURATION());\r\n\r\n        vars.previousProposalsCount = _proposalsCount;\r\n\r\n        Proposal storage newProposal = _proposals[vars.previousProposalsCount];\r\n        newProposal.id = vars.previousProposalsCount;\r\n        newProposal.creator = msg.sender;\r\n        newProposal.executor = executor;\r\n        newProposal.targets = targets;\r\n        newProposal.values = values;\r\n        newProposal.signatures = signatures;\r\n        newProposal.calldatas = calldatas;\r\n        newProposal.withDelegatecalls = withDelegatecalls;\r\n        newProposal.startBlock = vars.startBlock;\r\n        newProposal.endBlock = vars.endBlock;\r\n        newProposal.strategy = _governanceStrategy;\r\n        newProposal.ipfsHash = ipfsHash;\r\n        _proposalsCount++;\r\n\r\n        emit ProposalCreated(\r\n            vars.previousProposalsCount,\r\n            msg.sender,\r\n            executor,\r\n            targets,\r\n            values,\r\n            signatures,\r\n            calldatas,\r\n            withDelegatecalls,\r\n            vars.startBlock,\r\n            vars.endBlock,\r\n            _governanceStrategy,\r\n            ipfsHash\r\n        );\r\n\r\n        return newProposal.id;\r\n    }\r\n\r\n    /**\r\n     * @dev Cancels a Proposal.\r\n     * - Callable by the _guardian with relaxed conditions, or by anybody if the conditions of\r\n     *   cancellation on the executor are fulfilled\r\n     * @param proposalId id of the proposal\r\n     **/\r\n    function cancel(uint256 proposalId) external {\r\n        ProposalState state = getProposalState(proposalId);\r\n        require(\r\n            state != ProposalState.Executed &&\r\n                state != ProposalState.Canceled &&\r\n                state != ProposalState.Expired,\r\n            'ONLY_BEFORE_EXECUTED'\r\n        );\r\n\r\n        Proposal storage proposal = _proposals[proposalId];\r\n        require(\r\n            msg.sender == _guardian ||\r\n                IProposalValidator(address(proposal.executor)).validateProposalCancellation(\r\n                    ISuperKarmaGovernance(address(this)),\r\n                    proposal.creator,\r\n                    block.number - 1\r\n                ),\r\n            'PROPOSITION_CANCELLATION_INVALID'\r\n        );\r\n        proposal.canceled = true;\r\n        for (uint256 i = 0; i < proposal.targets.length; i++) {\r\n            proposal.executor.cancelTransaction(\r\n                proposal.targets[i],\r\n                proposal.values[i],\r\n                proposal.signatures[i],\r\n                proposal.calldatas[i],\r\n                proposal.executionTime,\r\n                proposal.withDelegatecalls[i]\r\n            );\r\n        }\r\n\r\n        emit ProposalCanceled(proposalId);\r\n    }\r\n\r\n    /**\r\n     * @dev Queue the proposal (If Proposal Succeeded)\r\n     * @param proposalId id of the proposal to queue\r\n     **/\r\n    function queue(uint256 proposalId) external {\r\n        require(getProposalState(proposalId) == ProposalState.Succeeded, 'INVALID_STATE_FOR_QUEUE');\r\n        Proposal storage proposal = _proposals[proposalId];\r\n        uint256 executionTime = block.timestamp.add(proposal.executor.getDelay());\r\n        for (uint256 i = 0; i < proposal.targets.length; i++) {\r\n            _queueOrRevert(\r\n                proposal.executor,\r\n                proposal.targets[i],\r\n                proposal.values[i],\r\n                proposal.signatures[i],\r\n                proposal.calldatas[i],\r\n                executionTime,\r\n                proposal.withDelegatecalls[i]\r\n            );\r\n        }\r\n        proposal.executionTime = executionTime;\r\n\r\n        emit ProposalQueued(proposalId, executionTime, msg.sender);\r\n    }\r\n\r\n    /**\r\n     * @dev Execute the proposal (If Proposal Queued)\r\n     * @param proposalId id of the proposal to execute\r\n     **/\r\n    function execute(uint256 proposalId) external payable {\r\n        require(getProposalState(proposalId) == ProposalState.Queued, 'ONLY_QUEUED_PROPOSALS');\r\n        Proposal storage proposal = _proposals[proposalId];\r\n        proposal.executed = true;\r\n        for (uint256 i = 0; i < proposal.targets.length; i++) {\r\n            proposal.executor.executeTransaction{value: proposal.values[i]}(\r\n                proposal.targets[i],\r\n                proposal.values[i],\r\n                proposal.signatures[i],\r\n                proposal.calldatas[i],\r\n                proposal.executionTime,\r\n                proposal.withDelegatecalls[i]\r\n            );\r\n        }\r\n        emit ProposalExecuted(proposalId, msg.sender);\r\n    }\r\n\r\n    /**\r\n     * @dev Function allowing msg.sender to vote for/against a proposal\r\n     * @param proposalId id of the proposal\r\n     * @param support boolean, true = vote for, false = vote against\r\n     **/\r\n    function submitVote(uint256 proposalId, bool support) external {\r\n        return _submitVote(msg.sender, proposalId, support);\r\n    }\r\n\r\n    /**\r\n     * @dev Function to register the vote of user that has voted offchain via signature\r\n     * @param proposalId id of the proposal\r\n     * @param support boolean, true = vote for, false = vote against\r\n     * @param v v part of the voter signature\r\n     * @param r r part of the voter signature\r\n     * @param s s part of the voter signature\r\n     **/\r\n    function submitVoteBySignature(\r\n        uint256 proposalId,\r\n        bool support,\r\n        uint8 v,\r\n        bytes32 r,\r\n        bytes32 s\r\n    ) external {\r\n        bytes32 digest = keccak256(\r\n            abi.encodePacked(\r\n                '\\x19\\x01',\r\n                keccak256(\r\n                    abi.encode(DOMAIN_TYPEHASH, keccak256(bytes(NAME)), Helpers.getChainId(), address(this))\r\n                ),\r\n                keccak256(abi.encode(VOTE_EMITTED_TYPEHASH, proposalId, support))\r\n            )\r\n        );\r\n        address signer = ecrecover(digest, v, r, s);\r\n        require(signer != address(0), 'INVALID_SIGNATURE');\r\n        return _submitVote(signer, proposalId, support);\r\n    }\r\n\r\n    /**\r\n     * @dev Set new GovernanceStrategy\r\n     * Note: owner should be a timelocked executor, so needs to make a proposal\r\n     * @param governanceStrategy new Address of the GovernanceStrategy contract\r\n     **/\r\n    function setGovernanceStrategy(address governanceStrategy) external onlyOwner {\r\n        _setGovernanceStrategy(governanceStrategy);\r\n    }\r\n\r\n    /**\r\n     * @dev Set new Voting Delay (delay before a newly created proposal can be voted on)\r\n     * Note: owner should be a timelocked executor, so needs to make a proposal\r\n     * @param votingDelay new voting delay in terms of blocks\r\n     **/\r\n    function setVotingDelay(uint256 votingDelay) external onlyOwner {\r\n        _setVotingDelay(votingDelay);\r\n    }\r\n\r\n    /**\r\n     * @dev Add new addresses to the list of authorized executors\r\n     * @param executors list of new addresses to be authorized executors\r\n     **/\r\n    function authorizeExecutors(address[] memory executors) public onlyOwner {\r\n        for (uint256 i = 0; i < executors.length; i++) {\r\n            _authorizeExecutor(executors[i]);\r\n        }\r\n    }\r\n\r\n    /**\r\n     * @dev Remove addresses to the list of authorized executors\r\n     * @param executors list of addresses to be removed as authorized executors\r\n     **/\r\n    function unauthorizeExecutors(address[] memory executors) public onlyOwner {\r\n        for (uint256 i = 0; i < executors.length; i++) {\r\n            _unauthorizeExecutor(executors[i]);\r\n        }\r\n    }\r\n\r\n    /**\r\n     * @dev Let the guardian abdicate from its priviledged rights\r\n     **/\r\n    function __abdicate() external onlyGuardian {\r\n        _guardian = address(0);\r\n    }\r\n\r\n    /**\r\n     * @dev Getter of the current GovernanceStrategy address\r\n     * @return The address of the current GovernanceStrategy contracts\r\n     **/\r\n    function getGovernanceStrategy() external view returns (address) {\r\n        return _governanceStrategy;\r\n    }\r\n\r\n    /**\r\n     * @dev Getter of the current Voting Delay (delay before a created proposal can be voted on)\r\n     * Different from the voting duration\r\n     * @return The voting delay in number of blocks\r\n     **/\r\n    function getVotingDelay() external view returns (uint256) {\r\n        return _votingDelay;\r\n    }\r\n\r\n    /**\r\n     * @dev Returns whether an address is an authorized executor\r\n     * @param executor address to evaluate as authorized executor\r\n     * @return true if authorized\r\n     **/\r\n    function isExecutorAuthorized(address executor) public view returns (bool) {\r\n        return _authorizedExecutors[executor];\r\n    }\r\n\r\n    /**\r\n     * @dev Getter the address of the guardian, that can mainly cancel proposals\r\n     * @return The address of the guardian\r\n     **/\r\n    function getGuardian() external view returns (address) {\r\n        return _guardian;\r\n    }\r\n\r\n    /**\r\n     * @dev Getter of the proposal count (the current number of proposals ever created)\r\n     * @return the proposal count\r\n     **/\r\n    function getProposalsCount() external view returns (uint256) {\r\n        return _proposalsCount;\r\n    }\r\n\r\n    /**\r\n     * @dev Getter of a proposal by id\r\n     * @param proposalId id of the proposal to get\r\n     * @return the proposal as ProposalWithoutVotes memory object\r\n     **/\r\n    function getProposalById(uint256 proposalId) external view returns (ProposalWithoutVotes memory) {\r\n        Proposal storage proposal = _proposals[proposalId];\r\n        ProposalWithoutVotes memory proposalWithoutVotes = ProposalWithoutVotes({\r\n            id: proposal.id,\r\n            creator: proposal.creator,\r\n            executor: proposal.executor,\r\n            targets: proposal.targets,\r\n            values: proposal.values,\r\n            signatures: proposal.signatures,\r\n            calldatas: proposal.calldatas,\r\n            withDelegatecalls: proposal.withDelegatecalls,\r\n            startBlock: proposal.startBlock,\r\n            endBlock: proposal.endBlock,\r\n            executionTime: proposal.executionTime,\r\n            forVotes: proposal.forVotes,\r\n            againstVotes: proposal.againstVotes,\r\n            executed: proposal.executed,\r\n            canceled: proposal.canceled,\r\n            strategy: proposal.strategy,\r\n            ipfsHash: proposal.ipfsHash\r\n        });\r\n\r\n        return proposalWithoutVotes;\r\n    }\r\n\r\n    /**\r\n     * @dev Getter of the Vote of a voter about a proposal\r\n     * Note: Vote is a struct: ({bool support, uint248 votingPower})\r\n     * @param proposalId id of the proposal\r\n     * @param voter address of the voter\r\n     * @return The associated Vote memory object\r\n     **/\r\n    function getVoteOnProposal(uint256 proposalId, address voter) external view returns (Vote memory) {\r\n        return _proposals[proposalId].votes[voter];\r\n    }\r\n\r\n    /**\r\n     * @dev Get the current state of a proposal\r\n     * @param proposalId id of the proposal\r\n     * @return The current state if the proposal\r\n     **/\r\n    function getProposalState(uint256 proposalId) public view returns (ProposalState) {\r\n        require(_proposalsCount >= proposalId, 'INVALID_PROPOSAL_ID');\r\n        Proposal storage proposal = _proposals[proposalId];\r\n        if (proposal.canceled) {\r\n            return ProposalState.Canceled;\r\n        } else if (block.number <= proposal.startBlock) {\r\n            return ProposalState.Pending;\r\n        } else if (block.number <= proposal.endBlock) {\r\n            return ProposalState.Active;\r\n        } else if (\r\n            !IProposalValidator(address(proposal.executor)).isProposalPassed(\r\n                ISuperKarmaGovernance(address(this)),\r\n                proposalId\r\n            )\r\n        ) {\r\n            return ProposalState.Failed;\r\n        } else if (proposal.executionTime == 0) {\r\n            return ProposalState.Succeeded;\r\n        } else if (proposal.executed) {\r\n            return ProposalState.Executed;\r\n        } else if (\r\n            proposal.executor.isProposalOverGracePeriod(ISuperKarmaGovernance(address(this)), proposalId)\r\n        ) {\r\n            return ProposalState.Expired;\r\n        } else {\r\n            return ProposalState.Queued;\r\n        }\r\n    }\r\n\r\n    function _queueOrRevert(\r\n        IExecutorWithTimelock executor,\r\n        address target,\r\n        uint256 value,\r\n        string memory signature,\r\n        bytes memory callData,\r\n        uint256 executionTime,\r\n        bool withDelegatecall\r\n    ) internal {\r\n        require(\r\n            !executor.isActionQueued(\r\n                keccak256(abi.encode(target, value, signature, callData, executionTime, withDelegatecall))\r\n            ),\r\n            'DUPLICATED_ACTION'\r\n        );\r\n        executor.queueTransaction(target, value, signature, callData, executionTime, withDelegatecall);\r\n    }\r\n\r\n    function _submitVote(\r\n        address voter,\r\n        uint256 proposalId,\r\n        bool support\r\n    ) internal {\r\n        require(getProposalState(proposalId) == ProposalState.Active, 'VOTING_CLOSED');\r\n        Proposal storage proposal = _proposals[proposalId];\r\n        Vote storage vote = proposal.votes[voter];\r\n\r\n        require(vote.votingPower == 0, 'VOTE_ALREADY_SUBMITTED');\r\n\r\n        uint256 votingPower = IVotingStrategy(proposal.strategy).getVotingPowerAt(voter, proposal.startBlock);\r\n\r\n        if (support) {\r\n            proposal.forVotes = proposal.forVotes.add(votingPower);\r\n        } else {\r\n            proposal.againstVotes = proposal.againstVotes.add(votingPower);\r\n        }\r\n\r\n        vote.support = support;\r\n        vote.votingPower = uint248(votingPower);\r\n\r\n        emit VoteEmitted(proposalId, voter, support, votingPower);\r\n    }\r\n\r\n    function _setGovernanceStrategy(address governanceStrategy) internal {\r\n        _governanceStrategy = governanceStrategy;\r\n\r\n        emit GovernanceStrategyChanged(governanceStrategy, msg.sender);\r\n    }\r\n\r\n    function _setVotingDelay(uint256 votingDelay) internal {\r\n        _votingDelay = votingDelay;\r\n\r\n        emit VotingDelayChanged(votingDelay, msg.sender);\r\n    }\r\n\r\n    function _authorizeExecutor(address executor) internal {\r\n        _authorizedExecutors[executor] = true;\r\n        emit ExecutorAuthorized(executor);\r\n    }\r\n\r\n    function _unauthorizeExecutor(address executor) internal {\r\n        _authorizedExecutors[executor] = false;\r\n        emit ExecutorUnauthorized(executor);\r\n    }\r\n}\r\n",
  "sourcePath": "C:/Users/James/projects/erc20-vue-template/blockchain/contracts/governance/SuperKarmaGovernanceV2.sol",
  "compiler": {
    "name": "solc",
    "version": "0.7.0+commit.9e61f92b.Emscripten.clang"
  },
  "schemaVersion": "3.3.2",
  "updatedAt": "2021-07-05T19:32:25.637Z",
  "networkType": "ethereum",
  "devdoc": {
    "author": "SuperKarma*",
    "details": "Main point of interaction with SuperKarma protocol's governance - Create a Proposal - Cancel a Proposal - Queue a Proposal - Execute a Proposal - Submit Vote to a Proposal Proposal States : Pending => Active => Succeeded(/Failed) => Queued => Executed(/Expired)                   The transition to \"Canceled\" can appear in multiple states",
    "events": {
      "ProposalCanceled(uint256)": {
        "details": "emitted when a proposal is canceled",
        "params": {
          "id": "Id of the proposal*"
        }
      },
      "ProposalExecuted(uint256,address)": {
        "details": "emitted when a proposal is executed",
        "params": {
          "id": "Id of the proposal",
          "initiatorExecution": "address of the initiator of the execution transaction*"
        }
      },
      "ProposalQueued(uint256,uint256,address)": {
        "details": "emitted when a proposal is queued",
        "params": {
          "executionTime": "time when proposal underlying transactions can be executed",
          "id": "Id of the proposal",
          "initiatorQueueing": "address of the initiator of the queuing transaction*"
        }
      },
      "VoteEmitted(uint256,address,bool,uint256)": {
        "details": "emitted when a vote is registered",
        "params": {
          "id": "Id of the proposal",
          "support": "boolean, true = vote for, false = vote against",
          "voter": "address of the voter",
          "votingPower": "Power of the voter/vote*"
        }
      }
    },
    "kind": "dev",
    "methods": {
      "__abdicate()": {
        "details": "Let the guardian abdicate from its priviledged rights*"
      },
      "authorizeExecutors(address[])": {
        "details": "Add new addresses to the list of authorized executors",
        "params": {
          "executors": "list of new addresses to be authorized executors*"
        }
      },
      "cancel(uint256)": {
        "details": "Cancels a Proposal. - Callable by the _guardian with relaxed conditions, or by anybody if the conditions of   cancellation on the executor are fulfilled",
        "params": {
          "proposalId": "id of the proposal*"
        }
      },
      "create(address,address[],uint256[],string[],bytes[],bool[],bytes32)": {
        "details": "Creates a Proposal (needs to be validated by the Proposal Validator)",
        "params": {
          "calldatas": "list of calldatas: if associated signature empty, calldata ready, else calldata is arguments",
          "executor": "The ExecutorWithTimelock contract that will execute the proposal",
          "ipfsHash": "IPFS hash of the proposal*",
          "signatures": "list of function signatures (can be empty) to be used when created the callData",
          "targets": "list of contracts called by proposal's associated transactions",
          "values": "list of value in wei for each propoposal's associated transaction",
          "withDelegatecalls": "boolean, true = transaction delegatecalls the taget, else calls the target"
        }
      },
      "execute(uint256)": {
        "details": "Execute the proposal (If Proposal Queued)",
        "params": {
          "proposalId": "id of the proposal to execute*"
        }
      },
      "getGovernanceStrategy()": {
        "details": "Getter of the current GovernanceStrategy address",
        "returns": {
          "_0": "The address of the current GovernanceStrategy contracts*"
        }
      },
      "getGuardian()": {
        "details": "Getter the address of the guardian, that can mainly cancel proposals",
        "returns": {
          "_0": "The address of the guardian*"
        }
      },
      "getProposalById(uint256)": {
        "details": "Getter of a proposal by id",
        "params": {
          "proposalId": "id of the proposal to get"
        },
        "returns": {
          "_0": "the proposal as ProposalWithoutVotes memory object*"
        }
      },
      "getProposalState(uint256)": {
        "details": "Get the current state of a proposal",
        "params": {
          "proposalId": "id of the proposal"
        },
        "returns": {
          "_0": "The current state if the proposal*"
        }
      },
      "getProposalsCount()": {
        "details": "Getter of the proposal count (the current number of proposals ever created)",
        "returns": {
          "_0": "the proposal count*"
        }
      },
      "getVoteOnProposal(uint256,address)": {
        "details": "Getter of the Vote of a voter about a proposal Note: Vote is a struct: ({bool support, uint248 votingPower})",
        "params": {
          "proposalId": "id of the proposal",
          "voter": "address of the voter"
        },
        "returns": {
          "_0": "The associated Vote memory object*"
        }
      },
      "getVotingDelay()": {
        "details": "Getter of the current Voting Delay (delay before a created proposal can be voted on) Different from the voting duration",
        "returns": {
          "_0": "The voting delay in number of blocks*"
        }
      },
      "isExecutorAuthorized(address)": {
        "details": "Returns whether an address is an authorized executor",
        "params": {
          "executor": "address to evaluate as authorized executor"
        },
        "returns": {
          "_0": "true if authorized*"
        }
      },
      "owner()": {
        "details": "Returns the address of the current owner."
      },
      "queue(uint256)": {
        "details": "Queue the proposal (If Proposal Succeeded)",
        "params": {
          "proposalId": "id of the proposal to queue*"
        }
      },
      "renounceOwnership()": {
        "details": "Leaves the contract without owner. It will not be possible to call `onlyOwner` functions anymore. Can only be called by the current owner. NOTE: Renouncing ownership will leave the contract without an owner, thereby removing any functionality that is only available to the owner."
      },
      "setGovernanceStrategy(address)": {
        "details": "Set new GovernanceStrategy Note: owner should be a timelocked executor, so needs to make a proposal",
        "params": {
          "governanceStrategy": "new Address of the GovernanceStrategy contract*"
        }
      },
      "setVotingDelay(uint256)": {
        "details": "Set new Voting Delay (delay before a newly created proposal can be voted on) Note: owner should be a timelocked executor, so needs to make a proposal",
        "params": {
          "votingDelay": "new voting delay in terms of blocks*"
        }
      },
      "submitVote(uint256,bool)": {
        "details": "Function allowing msg.sender to vote for/against a proposal",
        "params": {
          "proposalId": "id of the proposal",
          "support": "boolean, true = vote for, false = vote against*"
        }
      },
      "submitVoteBySignature(uint256,bool,uint8,bytes32,bytes32)": {
        "details": "Function to register the vote of user that has voted offchain via signature",
        "params": {
          "proposalId": "id of the proposal",
          "r": "r part of the voter signature",
          "s": "s part of the voter signature*",
          "support": "boolean, true = vote for, false = vote against",
          "v": "v part of the voter signature"
        }
      },
      "transferOwnership(address)": {
        "details": "Transfers ownership of the contract to a new account (`newOwner`). Can only be called by the current owner."
      },
      "unauthorizeExecutors(address[])": {
        "details": "Remove addresses to the list of authorized executors",
        "params": {
          "executors": "list of addresses to be removed as authorized executors*"
        }
      }
    },
    "title": "Governance V2 contract",
    "version": 1
  },
  "userdoc": {
    "kind": "user",
    "methods": {},
    "version": 1
  }
}