{
  "contractName": "SuperKarma",
  "abi": [
    {
      "anonymous": false,
      "inputs": [
        {
          "indexed": true,
          "internalType": "address",
          "name": "owner",
          "type": "address"
        },
        {
          "indexed": true,
          "internalType": "address",
          "name": "spender",
          "type": "address"
        },
        {
          "indexed": false,
          "internalType": "uint256",
          "name": "value",
          "type": "uint256"
        }
      ],
      "name": "Approval",
      "type": "event"
    },
    {
      "anonymous": false,
      "inputs": [
        {
          "indexed": true,
          "internalType": "address",
          "name": "delegator",
          "type": "address"
        },
        {
          "indexed": true,
          "internalType": "address",
          "name": "delegatee",
          "type": "address"
        },
        {
          "indexed": false,
          "internalType": "enum SuperKarma.DelegationType",
          "name": "delegationType",
          "type": "uint8"
        }
      ],
      "name": "DelegateChanged",
      "type": "event"
    },
    {
      "anonymous": false,
      "inputs": [
        {
          "indexed": true,
          "internalType": "address",
          "name": "user",
          "type": "address"
        },
        {
          "indexed": false,
          "internalType": "uint256",
          "name": "amount",
          "type": "uint256"
        },
        {
          "indexed": false,
          "internalType": "enum SuperKarma.DelegationType",
          "name": "delegationType",
          "type": "uint8"
        }
      ],
      "name": "DelegatedPowerChanged",
      "type": "event"
    },
    {
      "anonymous": false,
      "inputs": [
        {
          "indexed": true,
          "internalType": "address",
          "name": "previousOwner",
          "type": "address"
        },
        {
          "indexed": true,
          "internalType": "address",
          "name": "newOwner",
          "type": "address"
        }
      ],
      "name": "OwnershipTransferred",
      "type": "event"
    },
    {
      "anonymous": false,
      "inputs": [
        {
          "indexed": true,
          "internalType": "address",
          "name": "from",
          "type": "address"
        },
        {
          "indexed": true,
          "internalType": "address",
          "name": "to",
          "type": "address"
        },
        {
          "indexed": false,
          "internalType": "uint256",
          "name": "value",
          "type": "uint256"
        }
      ],
      "name": "Transfer",
      "type": "event"
    },
    {
      "inputs": [],
      "name": "DELEGATE_BY_TYPE_TYPEHASH",
      "outputs": [
        {
          "internalType": "bytes32",
          "name": "",
          "type": "bytes32"
        }
      ],
      "stateMutability": "view",
      "type": "function"
    },
    {
      "inputs": [],
      "name": "DELEGATE_TYPEHASH",
      "outputs": [
        {
          "internalType": "bytes32",
          "name": "",
          "type": "bytes32"
        }
      ],
      "stateMutability": "view",
      "type": "function"
    },
    {
      "inputs": [],
      "name": "DOMAIN_SEPARATOR",
      "outputs": [
        {
          "internalType": "bytes32",
          "name": "",
          "type": "bytes32"
        }
      ],
      "stateMutability": "view",
      "type": "function"
    },
    {
      "inputs": [],
      "name": "EIP712_REVISION",
      "outputs": [
        {
          "internalType": "bytes",
          "name": "",
          "type": "bytes"
        }
      ],
      "stateMutability": "view",
      "type": "function"
    },
    {
      "inputs": [],
      "name": "PERMIT_TYPEHASH",
      "outputs": [
        {
          "internalType": "bytes32",
          "name": "",
          "type": "bytes32"
        }
      ],
      "stateMutability": "view",
      "type": "function"
    },
    {
      "inputs": [],
      "name": "REVISION",
      "outputs": [
        {
          "internalType": "uint256",
          "name": "",
          "type": "uint256"
        }
      ],
      "stateMutability": "view",
      "type": "function"
    },
    {
      "inputs": [],
      "name": "_aaveGovernance",
      "outputs": [
        {
          "internalType": "contract ITransferHook",
          "name": "",
          "type": "address"
        }
      ],
      "stateMutability": "view",
      "type": "function"
    },
    {
      "inputs": [
        {
          "internalType": "address",
          "name": "",
          "type": "address"
        }
      ],
      "name": "_nonces",
      "outputs": [
        {
          "internalType": "uint256",
          "name": "",
          "type": "uint256"
        }
      ],
      "stateMutability": "view",
      "type": "function"
    },
    {
      "inputs": [
        {
          "internalType": "address",
          "name": "",
          "type": "address"
        },
        {
          "internalType": "uint256",
          "name": "",
          "type": "uint256"
        }
      ],
      "name": "_votingSnapshots",
      "outputs": [
        {
          "internalType": "uint128",
          "name": "blockNumber",
          "type": "uint128"
        },
        {
          "internalType": "uint128",
          "name": "value",
          "type": "uint128"
        }
      ],
      "stateMutability": "view",
      "type": "function"
    },
    {
      "inputs": [
        {
          "internalType": "address",
          "name": "",
          "type": "address"
        }
      ],
      "name": "_votingSnapshotsCounts",
      "outputs": [
        {
          "internalType": "uint256",
          "name": "",
          "type": "uint256"
        }
      ],
      "stateMutability": "view",
      "type": "function"
    },
    {
      "inputs": [
        {
          "internalType": "address",
          "name": "owner",
          "type": "address"
        },
        {
          "internalType": "address",
          "name": "spender",
          "type": "address"
        }
      ],
      "name": "allowance",
      "outputs": [
        {
          "internalType": "uint256",
          "name": "",
          "type": "uint256"
        }
      ],
      "stateMutability": "view",
      "type": "function"
    },
    {
      "inputs": [
        {
          "internalType": "address",
          "name": "spender",
          "type": "address"
        },
        {
          "internalType": "uint256",
          "name": "amount",
          "type": "uint256"
        }
      ],
      "name": "approve",
      "outputs": [
        {
          "internalType": "bool",
          "name": "",
          "type": "bool"
        }
      ],
      "stateMutability": "nonpayable",
      "type": "function"
    },
    {
      "inputs": [
        {
          "internalType": "address",
          "name": "account",
          "type": "address"
        }
      ],
      "name": "balanceOf",
      "outputs": [
        {
          "internalType": "uint256",
          "name": "",
          "type": "uint256"
        }
      ],
      "stateMutability": "view",
      "type": "function"
    },
    {
      "inputs": [],
      "name": "decimals",
      "outputs": [
        {
          "internalType": "uint8",
          "name": "",
          "type": "uint8"
        }
      ],
      "stateMutability": "view",
      "type": "function"
    },
    {
      "inputs": [
        {
          "internalType": "address",
          "name": "spender",
          "type": "address"
        },
        {
          "internalType": "uint256",
          "name": "subtractedValue",
          "type": "uint256"
        }
      ],
      "name": "decreaseAllowance",
      "outputs": [
        {
          "internalType": "bool",
          "name": "",
          "type": "bool"
        }
      ],
      "stateMutability": "nonpayable",
      "type": "function"
    },
    {
      "inputs": [
        {
          "internalType": "address",
          "name": "spender",
          "type": "address"
        },
        {
          "internalType": "uint256",
          "name": "addedValue",
          "type": "uint256"
        }
      ],
      "name": "increaseAllowance",
      "outputs": [
        {
          "internalType": "bool",
          "name": "",
          "type": "bool"
        }
      ],
      "stateMutability": "nonpayable",
      "type": "function"
    },
    {
      "inputs": [],
      "name": "name",
      "outputs": [
        {
          "internalType": "string",
          "name": "",
          "type": "string"
        }
      ],
      "stateMutability": "view",
      "type": "function"
    },
    {
      "inputs": [],
      "name": "owner",
      "outputs": [
        {
          "internalType": "address",
          "name": "",
          "type": "address"
        }
      ],
      "stateMutability": "view",
      "type": "function"
    },
    {
      "inputs": [],
      "name": "renounceOwnership",
      "outputs": [],
      "stateMutability": "nonpayable",
      "type": "function"
    },
    {
      "inputs": [],
      "name": "symbol",
      "outputs": [
        {
          "internalType": "string",
          "name": "",
          "type": "string"
        }
      ],
      "stateMutability": "view",
      "type": "function"
    },
    {
      "inputs": [],
      "name": "totalSupply",
      "outputs": [
        {
          "internalType": "uint256",
          "name": "",
          "type": "uint256"
        }
      ],
      "stateMutability": "view",
      "type": "function"
    },
    {
      "inputs": [
        {
          "internalType": "address",
          "name": "recipient",
          "type": "address"
        },
        {
          "internalType": "uint256",
          "name": "amount",
          "type": "uint256"
        }
      ],
      "name": "transfer",
      "outputs": [
        {
          "internalType": "bool",
          "name": "",
          "type": "bool"
        }
      ],
      "stateMutability": "nonpayable",
      "type": "function"
    },
    {
      "inputs": [
        {
          "internalType": "address",
          "name": "sender",
          "type": "address"
        },
        {
          "internalType": "address",
          "name": "recipient",
          "type": "address"
        },
        {
          "internalType": "uint256",
          "name": "amount",
          "type": "uint256"
        }
      ],
      "name": "transferFrom",
      "outputs": [
        {
          "internalType": "bool",
          "name": "",
          "type": "bool"
        }
      ],
      "stateMutability": "nonpayable",
      "type": "function"
    },
    {
      "inputs": [
        {
          "internalType": "address",
          "name": "newOwner",
          "type": "address"
        }
      ],
      "name": "transferOwnership",
      "outputs": [],
      "stateMutability": "nonpayable",
      "type": "function"
    },
    {
      "inputs": [
        {
          "internalType": "address",
          "name": "owner",
          "type": "address"
        },
        {
          "internalType": "address",
          "name": "spender",
          "type": "address"
        },
        {
          "internalType": "uint256",
          "name": "value",
          "type": "uint256"
        },
        {
          "internalType": "uint256",
          "name": "deadline",
          "type": "uint256"
        },
        {
          "internalType": "uint8",
          "name": "v",
          "type": "uint8"
        },
        {
          "internalType": "bytes32",
          "name": "r",
          "type": "bytes32"
        },
        {
          "internalType": "bytes32",
          "name": "s",
          "type": "bytes32"
        }
      ],
      "name": "permit",
      "outputs": [],
      "stateMutability": "nonpayable",
      "type": "function"
    },
    {
      "inputs": [
        {
          "internalType": "address",
          "name": "delegatee",
          "type": "address"
        },
        {
          "internalType": "enum SuperKarma.DelegationType",
          "name": "delegationType",
          "type": "uint8"
        },
        {
          "internalType": "uint256",
          "name": "nonce",
          "type": "uint256"
        },
        {
          "internalType": "uint256",
          "name": "expiry",
          "type": "uint256"
        },
        {
          "internalType": "uint8",
          "name": "v",
          "type": "uint8"
        },
        {
          "internalType": "bytes32",
          "name": "r",
          "type": "bytes32"
        },
        {
          "internalType": "bytes32",
          "name": "s",
          "type": "bytes32"
        }
      ],
      "name": "delegateByTypeBySig",
      "outputs": [],
      "stateMutability": "nonpayable",
      "type": "function"
    },
    {
      "inputs": [
        {
          "internalType": "address",
          "name": "delegatee",
          "type": "address"
        },
        {
          "internalType": "uint256",
          "name": "nonce",
          "type": "uint256"
        },
        {
          "internalType": "uint256",
          "name": "expiry",
          "type": "uint256"
        },
        {
          "internalType": "uint8",
          "name": "v",
          "type": "uint8"
        },
        {
          "internalType": "bytes32",
          "name": "r",
          "type": "bytes32"
        },
        {
          "internalType": "bytes32",
          "name": "s",
          "type": "bytes32"
        }
      ],
      "name": "delegateBySig",
      "outputs": [],
      "stateMutability": "nonpayable",
      "type": "function"
    },
    {
      "inputs": [
        {
          "internalType": "address",
          "name": "delegatee",
          "type": "address"
        },
        {
          "internalType": "enum SuperKarma.DelegationType",
          "name": "delegationType",
          "type": "uint8"
        }
      ],
      "name": "delegateByType",
      "outputs": [],
      "stateMutability": "nonpayable",
      "type": "function"
    },
    {
      "inputs": [
        {
          "internalType": "address",
          "name": "delegatee",
          "type": "address"
        }
      ],
      "name": "delegate",
      "outputs": [],
      "stateMutability": "nonpayable",
      "type": "function"
    },
    {
      "inputs": [
        {
          "internalType": "address",
          "name": "delegator",
          "type": "address"
        },
        {
          "internalType": "enum SuperKarma.DelegationType",
          "name": "delegationType",
          "type": "uint8"
        }
      ],
      "name": "getDelegateeByType",
      "outputs": [
        {
          "internalType": "address",
          "name": "",
          "type": "address"
        }
      ],
      "stateMutability": "view",
      "type": "function"
    },
    {
      "inputs": [
        {
          "internalType": "address",
          "name": "user",
          "type": "address"
        },
        {
          "internalType": "enum SuperKarma.DelegationType",
          "name": "delegationType",
          "type": "uint8"
        }
      ],
      "name": "getPowerCurrent",
      "outputs": [
        {
          "internalType": "uint256",
          "name": "",
          "type": "uint256"
        }
      ],
      "stateMutability": "view",
      "type": "function"
    },
    {
      "inputs": [
        {
          "internalType": "address",
          "name": "user",
          "type": "address"
        },
        {
          "internalType": "uint256",
          "name": "blockNumber",
          "type": "uint256"
        },
        {
          "internalType": "enum SuperKarma.DelegationType",
          "name": "delegationType",
          "type": "uint8"
        }
      ],
      "name": "getPowerAtBlock",
      "outputs": [
        {
          "internalType": "uint256",
          "name": "",
          "type": "uint256"
        }
      ],
      "stateMutability": "view",
      "type": "function"
    },
    {
      "inputs": [
        {
          "internalType": "uint256",
          "name": "blockNumber",
          "type": "uint256"
        }
      ],
      "name": "totalSupplyAt",
      "outputs": [
        {
          "internalType": "uint256",
          "name": "",
          "type": "uint256"
        }
      ],
      "stateMutability": "view",
      "type": "function"
    },
    {
      "inputs": [
        {
          "internalType": "address",
          "name": "_to",
          "type": "address"
        },
        {
          "internalType": "uint256",
          "name": "_amount",
          "type": "uint256"
        }
      ],
      "name": "mint",
      "outputs": [],
      "stateMutability": "nonpayable",
      "type": "function"
    }
  ],
  "bytecode": "0x60806040523480156200001157600080fd5b50604080518082018252600b81526a5375706572204b61726d6160a81b602080830191825283518085019094526006845265734b41524d4160d01b9084015281519192916200006391600391620000f5565b50805162000079906004906020840190620000f5565b50506005805460ff1916601217905550600062000095620000f1565b60058054610100600160a81b0319166101006001600160a01b03841690810291909117909155604051919250906000907f8be0079c531659141344cd1fd0a4f28419497f9722a3daafe3b4186f6b6457e0908290a35062000191565b3390565b828054600181600116156101000203166002900490600052602060002090601f016020900481019282601f106200013857805160ff191683800117855562000168565b8280016001018555821562000168579182015b82811115620001685782518255916020019190600101906200014b565b50620001769291506200017a565b5090565b5b808211156200017657600081556001016200017b565b61227e80620001a16000396000f3fe608060405234801561001057600080fd5b50600436106102065760003560e01c80638da5cb5b1161011a578063c2ffbb91116100ad578063dc937e1c1161007c578063dc937e1c14610687578063dd62ed3e146106b6578063dde43cba146106e4578063f2fde38b146106ec578063f713d8a81461071257610206565b8063c2ffbb91146105b2578063c3863ada146105e7578063c3cda520146105ef578063d505accf1461063657610206565b8063a9059cbb116100e9578063a9059cbb14610529578063aa9fbe0214610555578063b2f4201d1461055d578063b9844d8d1461058c57610206565b80638da5cb5b146104d057806395d89b41146104d8578063981b24d0146104e0578063a457c2d7146104fd57610206565b806340c10f191161019d5780636f50458d1161016c5780636f50458d1461042957806370a0823114610474578063715018a61461049a57806378160376146104a25780637bb73c97146104aa57610206565b806340c10f191461037257806341cbf54a146103a05780635b3cc0cf146103a85780635c19a95c1461040357610206565b806330adf81f116101d957806330adf81f14610318578063313ce567146103205780633644e5151461033e578063395093511461034657610206565b806306fdde031461020b578063095ea7b31461028857806318160ddd146102c857806323b872dd146102e2575b600080fd5b610213610763565b6040805160208082528351818301528351919283929083019185019080838360005b8381101561024d578181015183820152602001610235565b50505050905090810190601f16801561027a5780820380516001836020036101000a031916815260200191505b509250505060405180910390f35b6102b46004803603604081101561029e57600080fd5b506001600160a01b0381351690602001356107f9565b604080519115158252519081900360200190f35b6102d0610817565b60408051918252519081900360200190f35b6102b4600480360360608110156102f857600080fd5b506001600160a01b0381358116916020810135909116906040013561081d565b6102d06108a4565b6103286108c8565b6040805160ff9092168252519081900360200190f35b6102d06108d1565b6102b46004803603604081101561035c57600080fd5b506001600160a01b0381351690602001356108d7565b61039e6004803603604081101561038857600080fd5b506001600160a01b038135169060200135610925565b005b6102d06109c3565b6103d4600480360360408110156103be57600080fd5b506001600160a01b0381351690602001356109e7565b60405180836001600160801b03168152602001826001600160801b031681526020019250505060405180910390f35b61039e6004803603602081101561041957600080fd5b50356001600160a01b0316610a18565b6104586004803603604081101561043f57600080fd5b5080356001600160a01b0316906020013560ff16610a33565b604080516001600160a01b039092168252519081900360200190f35b6102d06004803603602081101561048a57600080fd5b50356001600160a01b0316610a55565b61039e610a70565b610213610b34565b6102d0600480360360208110156104c057600080fd5b50356001600160a01b0316610b51565b610458610b63565b610213610b77565b6102d0600480360360208110156104f657600080fd5b5035610bd8565b6102b46004803603604081101561051357600080fd5b506001600160a01b038135169060200135610be2565b6102b46004803603604081101561053f57600080fd5b506001600160a01b038135169060200135610c4a565b6102d0610c5e565b6102d06004803603604081101561057357600080fd5b5080356001600160a01b0316906020013560ff16610c82565b6102d0600480360360208110156105a257600080fd5b50356001600160a01b0316610caa565b6102d0600480360360608110156105c857600080fd5b5080356001600160a01b0316906020810135906040013560ff16610cbc565b610458610ce5565b61039e600480360360c081101561060557600080fd5b506001600160a01b038135169060208101359060408101359060ff6060820135169060808101359060a00135610cf4565b61039e600480360360e081101561064c57600080fd5b506001600160a01b03813581169160208101359091169060408101359060608101359060ff6080820135169060a08101359060c00135610f16565b61039e6004803603604081101561069d57600080fd5b5080356001600160a01b0316906020013560ff16611152565b6102d0600480360360408110156106cc57600080fd5b506001600160a01b038135811691602001351661115d565b6102d0611188565b61039e6004803603602081101561070257600080fd5b50356001600160a01b031661118d565b61039e600480360360e081101561072857600080fd5b506001600160a01b038135169060ff602082013581169160408101359160608201359160808101359091169060a08101359060c001356112ad565b60038054604080516020601f60026000196101006001881615020190951694909404938401819004810282018101909252828152606093909290918301828280156107ef5780601f106107c4576101008083540402835291602001916107ef565b820191906000526020600020905b8154815290600101906020018083116107d257829003601f168201915b5050505050905090565b600061080d6108066114e0565b84846114e4565b5060015b92915050565b60025490565b600061082a8484846115d0565b61089a846108366114e0565b610895856040518060600160405280602881526020016121b3602891396001600160a01b038a166000908152600160205260408120906108746114e0565b6001600160a01b03168152602081019190915260400160002054919061172b565b6114e4565b5060019392505050565b7f6e71edae12b1b97f4d1f60370fef10105fa2faae0126114a169c64845d6126c981565b60055460ff1690565b600a5481565b600061080d6108e46114e0565b8461089585600160006108f56114e0565b6001600160a01b03908116825260208083019390935260409182016000908120918c1681529252902054906117c2565b61092d6114e0565b6001600160a01b031661093e610b63565b6001600160a01b031614610999576040805162461bcd60e51b815260206004820181905260248201527f4f776e61626c653a2063616c6c6572206973206e6f7420746865206f776e6572604482015290519081900360640190fd5b6109a38282611823565b6109b1600083836000611913565b6109bf600083836001611913565b5050565b7f9a9a49b990ba9bb39f8048c490a40ab25c18f55d208d5fbcf958261a9b48716d81565b60076020908152600092835260408084209091529082529020546001600160801b0380821691600160801b90041682565b610a2433826000611b22565b610a3033826001611b22565b50565b600080610a3f83611c33565b92505050610a4d8482611c6d565b949350505050565b6001600160a01b031660009081526020819052604090205490565b610a786114e0565b6001600160a01b0316610a89610b63565b6001600160a01b031614610ae4576040805162461bcd60e51b815260206004820181905260248201527f4f776e61626c653a2063616c6c6572206973206e6f7420746865206f776e6572604482015290519081900360640190fd5b60055460405160009161010090046001600160a01b0316907f8be0079c531659141344cd1fd0a4f28419497f9722a3daafe3b4186f6b6457e0908390a360058054610100600160a81b0319169055565b604051806040016040528060018152602001603160f81b81525081565b60086020526000908152604090205481565b60055461010090046001600160a01b031690565b60048054604080516020601f60026000196101006001881615020190951694909404938401819004810282018101909252828152606093909290918301828280156107ef5780601f106107c4576101008083540402835291602001916107ef565b6000610811610817565b600061080d610bef6114e0565b84610895856040518060600160405280602581526020016122246025913960016000610c196114e0565b6001600160a01b03908116825260208083019390935260409182016000908120918d1681529252902054919061172b565b600061080d610c576114e0565b84846115d0565b7f10d8d059343739efce7dad10d09f0806da52b252b3e6a7951920d2d6ec4102e581565b6000806000610c9084611c33565b5091509150610ca182828743611c98565b95945050505050565b60066020526000908152604090205481565b6000806000610cca84611c33565b5091509150610cdb82828888611c98565b9695505050505050565b6009546001600160a01b031681565b604080517f9a9a49b990ba9bb39f8048c490a40ab25c18f55d208d5fbcf958261a9b48716d6020808301919091526001600160a01b038916828401526060820188905260808083018890528351808403909101815260a083018452805190820120600a5461190160f01b60c085015260c284015260e2808401829052845180850390910181526101028401808652815191840191909120600091829052610122850180875281905260ff891661014286015261016285018890526101828501879052945191949390926001926101a280840193601f198301929081900390910190855afa158015610de9573d6000803e3d6000fd5b5050604051601f1901519150506001600160a01b038116610e45576040805162461bcd60e51b8152602060048201526011602482015270494e56414c49445f5349474e415455524560781b604482015290519081900360640190fd5b6001600160a01b03811660009081526006602052604090208054600181019091558814610ea9576040805162461bcd60e51b815260206004820152600d60248201526c494e56414c49445f4e4f4e434560981b604482015290519081900360640190fd5b86421115610ef3576040805162461bcd60e51b815260206004820152601260248201527124a72b20a624a22fa2ac2824a920aa24a7a760711b604482015290519081900360640190fd5b610eff818a6000611b22565b610f0b818a6001611b22565b505050505050505050565b6001600160a01b038716610f61576040805162461bcd60e51b815260206004820152600d60248201526c24a72b20a624a22fa7aba722a960991b604482015290519081900360640190fd5b83421115610fab576040805162461bcd60e51b815260206004820152601260248201527124a72b20a624a22fa2ac2824a920aa24a7a760711b604482015290519081900360640190fd5b6001600160a01b03808816600081815260066020908152604080832054600a5482517f6e71edae12b1b97f4d1f60370fef10105fa2faae0126114a169c64845d6126c98186015280840196909652958c166060860152608085018b905260a0850181905260c08086018b90528251808703909101815260e08601835280519084012061190160f01b6101008701526101028601969096526101228086019690965281518086039096018652610142850180835286519684019690962093909552610162840180825283905260ff88166101828501526101a284018790526101c284018690525191926001926101e28083019392601f198301929081900390910190855afa1580156110c0573d6000803e3d6000fd5b505050602060405103516001600160a01b0316896001600160a01b031614611123576040805162461bcd60e51b8152602060048201526011602482015270494e56414c49445f5349474e415455524560781b604482015290519081900360640190fd5b61112e8260016117c2565b6001600160a01b038a16600090815260066020526040902055610f0b8989896114e4565b6109bf338383611b22565b6001600160a01b03918216600090815260016020908152604080832093909416825291909152205490565b600281565b6111956114e0565b6001600160a01b03166111a6610b63565b6001600160a01b031614611201576040805162461bcd60e51b815260206004820181905260248201527f4f776e61626c653a2063616c6c6572206973206e6f7420746865206f776e6572604482015290519081900360640190fd5b6001600160a01b0381166112465760405162461bcd60e51b81526004018080602001828103825260268152602001806121456026913960400191505060405180910390fd5b6005546040516001600160a01b0380841692610100900416907f8be0079c531659141344cd1fd0a4f28419497f9722a3daafe3b4186f6b6457e090600090a3600580546001600160a01b0390921661010002610100600160a81b0319909216919091179055565b60007f10d8d059343739efce7dad10d09f0806da52b252b3e6a7951920d2d6ec4102e5888860018111156112dd57fe5b604080516020808201959095526001600160a01b039093168382015260608301919091526080820189905260a08083018990528151808403909101815260c083018252805190840120600a5461190160f01b60e085015260e2840152610102808401829052825180850390910181526101228401808452815191860191909120600091829052610142850180855281905260ff8a1661016286015261018285018990526101a285018890529251919550919391926001926101c2808301939192601f198301929081900390910190855afa1580156113bf573d6000803e3d6000fd5b5050604051601f1901519150506001600160a01b03811661141b576040805162461bcd60e51b8152602060048201526011602482015270494e56414c49445f5349474e415455524560781b604482015290519081900360640190fd5b6001600160a01b0381166000908152600660205260409020805460018101909155881461147f576040805162461bcd60e51b815260206004820152600d60248201526c494e56414c49445f4e4f4e434560981b604482015290519081900360640190fd5b864211156114c9576040805162461bcd60e51b815260206004820152601260248201527124a72b20a624a22fa2ac2824a920aa24a7a760711b604482015290519081900360640190fd5b6114d4818b8b611b22565b50505050505050505050565b3390565b6001600160a01b0383166115295760405162461bcd60e51b81526004018080602001828103825260248152602001806122006024913960400191505060405180910390fd5b6001600160a01b03821661156e5760405162461bcd60e51b815260040180806020018281038252602281526020018061216b6022913960400191505060405180910390fd5b6001600160a01b03808416600081815260016020908152604080832094871680845294825291829020859055815185815291517f8c5be1e5ebec7d5bd14f71427d1e84f3dd0314c0f7b2291e5b200ac8c7c3b9259281900390910190a3505050565b6001600160a01b0383166116155760405162461bcd60e51b81526004018080602001828103825260258152602001806121db6025913960400191505060405180910390fd5b6001600160a01b03821661165a5760405162461bcd60e51b81526004018080602001828103825260238152602001806121226023913960400191505060405180910390fd5b611665838383611eb3565b6116a28160405180606001604052806026815260200161218d602691396001600160a01b038616600090815260208190526040902054919061172b565b6001600160a01b0380851660009081526020819052604080822093909355908416815220546116d190826117c2565b6001600160a01b038084166000818152602081815260409182902094909455805185815290519193928716927fddf252ad1be2c89b69c2b068fc378daa952ba7f163c4a11628f55a4df523b3ef92918290030190a3505050565b600081848411156117ba5760405162461bcd60e51b81526004018080602001828103825283818151815260200191508051906020019080838360005b8381101561177f578181015183820152602001611767565b50505050905090810190601f1680156117ac5780820380516001836020036101000a031916815260200191505b509250505060405180910390fd5b505050900390565b60008282018381101561181c576040805162461bcd60e51b815260206004820152601b60248201527f536166654d6174683a206164646974696f6e206f766572666c6f770000000000604482015290519081900360640190fd5b9392505050565b6001600160a01b03821661187e576040805162461bcd60e51b815260206004820152601f60248201527f45524332303a206d696e7420746f20746865207a65726f206164647265737300604482015290519081900360640190fd5b61188a60008383611eb3565b60025461189790826117c2565b6002556001600160a01b0382166000908152602081905260409020546118bd90826117c2565b6001600160a01b0383166000818152602081815260408083209490945583518581529351929391927fddf252ad1be2c89b69c2b068fc378daa952ba7f163c4a11628f55a4df523b3ef9281900390910190a35050565b826001600160a01b0316846001600160a01b0316141561193257611b1c565b60008061193e83611c33565b5090925090506001600160a01b03861615611a31576001600160a01b03861660009081526020829052604081205480156119af576001600160a01b03881660009081526020858152604080832060001985018452909152902054600160801b90046001600160801b031691506119bb565b6119b888610a55565b91505b6119d184848a856119cc818c611fa6565b612003565b6001600160a01b0388167fa0a19463ee116110c9b282012d9b65cc5522dc38a9520340cbaf3142e550127f611a068489611fa6565b8760405180838152602001826001811115611a1d57fe5b81526020019250505060405180910390a250505b6001600160a01b03851615611b19576001600160a01b0385166000908152602082905260408120548015611a9c576001600160a01b03871660009081526020858152604080832060001985018452909152902054600160801b90046001600160801b03169150611aa8565b611aa587610a55565b91505b611ab9848489856119cc818c6117c2565b6001600160a01b0387167fa0a19463ee116110c9b282012d9b65cc5522dc38a9520340cbaf3142e550127f611aee84896117c2565b8760405180838152602001826001811115611b0557fe5b81526020019250505060405180910390a250505b50505b50505050565b6001600160a01b038216611b71576040805162461bcd60e51b8152602060048201526011602482015270494e56414c49445f44454c45474154454560781b604482015290519081900360640190fd5b6000611b7c82611c33565b925050506000611b8b85610a55565b90506000611b998684611c6d565b6001600160a01b03878116600090815260208690526040902080546001600160a01b0319169188169190911790559050611bd581868487611913565b846001600160a01b0316866001600160a01b03167fe8d51c8e11bd570db1734c8ec775785330e77007feed45c43b608ef33ff914bd8660405180826001811115611c1b57fe5b815260200191505060405180910390a3505050505050565b6000808080846001811115611c4457fe5b1415611c5a57506007915060089050600b611c66565b50600c9150600d9050600e5b9193909250565b6001600160a01b038083166000908152602083905260408120549091168061181c5783915050610811565b600043821115611ce6576040805162461bcd60e51b815260206004820152601460248201527324a72b20a624a22fa12627a1a5afa72aa6a122a960611b604482015290519081900360640190fd5b6001600160a01b03831660009081526020859052604090205480611d1557611d0d84610a55565b915050610a4d565b6001600160a01b038416600090815260208781526040808320600019850184529091529020546001600160801b03168310611d88576001600160a01b038416600090815260208781526040808320600019909401835292905220546001600160801b03600160801b909104169050610a4d565b6001600160a01b0384166000908152602087815260408083208380529091529020546001600160801b0316831015611dc4576000915050610a4d565b600060001982015b81811115611e76576002828203048103611de461210a565b506001600160a01b038716600090815260208a815260408083208484528252918290208251808401909352546001600160801b03808216808552600160801b9092041691830191909152871415611e4e57602001516001600160801b03169450610a4d9350505050565b80516001600160801b0316871115611e6857819350611e6f565b6001820392505b5050611dcc565b506001600160a01b0385166000908152602088815260408083209383529290522054600160801b90046001600160801b0316915050949350505050565b6000611ec084600b611c6d565b90506000611ecf84600b611c6d565b9050611ede8282856000611913565b6000611eeb86600e611c6d565b90506000611efa86600e611c6d565b9050611f098282876001611913565b6009546001600160a01b03168015611f9c57806001600160a01b0316634a3931498989896040518463ffffffff1660e01b815260040180846001600160a01b03168152602001836001600160a01b031681526020018281526020019350505050600060405180830381600087803b158015611f8357600080fd5b505af1158015611f97573d6000803e3d6000fd5b505050505b5050505050505050565b600082821115611ffd576040805162461bcd60e51b815260206004820152601e60248201527f536166654d6174683a207375627472616374696f6e206f766572666c6f770000604482015290519081900360640190fd5b50900390565b6001600160a01b03831660009081526020858152604080832054918890529091204391908115801590612054575060001982016000908152602082905260409020546001600160801b038481169116145b15612089576000198201600090815260208290526040902080546001600160801b03808716600160801b029116179055611f9c565b6040805180820182526001600160801b038086168252868116602080840191825260008781528682528581209451855493518516600160801b029085166fffffffffffffffffffffffffffffffff1990941693909317909316919091179092556001600160a01b038916815290899052206001830190555050505050505050565b60408051808201909152600080825260208201529056fe45524332303a207472616e7366657220746f20746865207a65726f20616464726573734f776e61626c653a206e6577206f776e657220697320746865207a65726f206164647265737345524332303a20617070726f766520746f20746865207a65726f206164647265737345524332303a207472616e7366657220616d6f756e7420657863656564732062616c616e636545524332303a207472616e7366657220616d6f756e74206578636565647320616c6c6f77616e636545524332303a207472616e736665722066726f6d20746865207a65726f206164647265737345524332303a20617070726f76652066726f6d20746865207a65726f206164647265737345524332303a2064656372656173656420616c6c6f77616e63652062656c6f77207a65726fa2646970667358221220adaa893689fa613c541f9cd6cf74fd5389be3e3fc1aa0539a11d1d1417ec7c4864736f6c63430007000033",
  "immutableReferences": {},
  "source": "pragma solidity 0.7.0;\n\nimport '@openzeppelin/contracts/token/ERC20/ERC20.sol';\nimport '@openzeppelin/contracts/access/Ownable.sol';\nimport './interfaces/ITransferHook.sol';\n\n// SushiToken with Governance.\ncontract SuperKarma is ERC20('Super Karma', 'sKARMA'), Ownable {\n    using SafeMath for uint256;\n\n    string internal constant NAME = 'Super Karma';\n    string internal constant SYMBOL = 'sKARMA';\n    uint8 internal constant DECIMALS = 18;\n\n    uint256 public constant REVISION = 2;\n    enum DelegationType {\n        VOTING_POWER,\n        PROPOSITION_POWER\n    }\n    event DelegateChanged(\n        address indexed delegator,\n        address indexed delegatee,\n        DelegationType delegationType\n    );\n    event DelegatedPowerChanged(address indexed user, uint256 amount, DelegationType delegationType);\n    /// @dev owner => next valid nonce to submit with permit()\n    mapping(address => uint256) public _nonces;\n\n    mapping(address => mapping(uint256 => Snapshot)) public _votingSnapshots;\n\n    mapping(address => uint256) public _votingSnapshotsCounts;\n\n    /// @dev reference to the Aave governance contract to call (if initialized) on _beforeTokenTransfer\n    /// !!! IMPORTANT The Aave governance is considered a trustable contract, being its responsibility\n    /// to control all potential reentrancies by calling back the AaveToken\n    ITransferHook public _aaveGovernance;\n\n    bytes32 public DOMAIN_SEPARATOR;\n    bytes public constant EIP712_REVISION = bytes('1');\n    bytes32 internal constant EIP712_DOMAIN =\n        keccak256('EIP712Domain(string name,string version,uint256 chainId,address verifyingContract)');\n    bytes32 public constant PERMIT_TYPEHASH =\n        keccak256('Permit(address owner,address spender,uint256 value,uint256 nonce,uint256 deadline)');\n\n    mapping(address => address) internal _votingDelegates;\n    mapping(address => mapping(uint256 => Snapshot)) internal _propositionPowerSnapshots;\n    mapping(address => uint256) internal _propositionPowerSnapshotsCounts;\n    mapping(address => address) internal _propositionPowerDelegates;\n\n    /**\n     * @dev implements the permit function as for https://github.com/ethereum/EIPs/blob/8a34d644aacf0f9f8f00815307fd7dd5da07655f/EIPS/eip-2612.md\n     * @param owner the owner of the funds\n     * @param spender the spender\n     * @param value the amount\n     * @param deadline the deadline timestamp, type(uint256).max for no deadline\n     * @param v signature param\n     * @param s signature param\n     * @param r signature param\n     */\n\n    function permit(\n        address owner,\n        address spender,\n        uint256 value,\n        uint256 deadline,\n        uint8 v,\n        bytes32 r,\n        bytes32 s\n    ) external {\n        require(owner != address(0), 'INVALID_OWNER');\n        //solium-disable-next-line\n        require(block.timestamp <= deadline, 'INVALID_EXPIRATION');\n        uint256 currentValidNonce = _nonces[owner];\n        bytes32 digest = keccak256(\n            abi.encodePacked(\n                '\\x19\\x01',\n                DOMAIN_SEPARATOR,\n                keccak256(abi.encode(PERMIT_TYPEHASH, owner, spender, value, currentValidNonce, deadline))\n            )\n        );\n\n        require(owner == ecrecover(digest, v, r, s), 'INVALID_SIGNATURE');\n        _nonces[owner] = currentValidNonce.add(1);\n        _approve(owner, spender, value);\n    }\n\n    /**\n     * @dev returns the revision of the implementation contract\n     */\n    function getRevision() internal pure returns (uint256) {\n        return REVISION;\n    }\n\n    /**\n     * @dev Writes a snapshot before any operation involving transfer of value: _transfer, _mint and _burn\n     * - On _transfer, it writes snapshots for both \"from\" and \"to\"\n     * - On _mint, only for _to\n     * - On _burn, only for _from\n     * @param from the from address\n     * @param to the to address\n     * @param amount the amount to transfer\n     */\n    function _beforeTokenTransfer(\n        address from,\n        address to,\n        uint256 amount\n    ) internal override {\n        address votingFromDelegatee = _getDelegatee(from, _votingDelegates);\n        address votingToDelegatee = _getDelegatee(to, _votingDelegates);\n\n        _moveDelegatesByType(votingFromDelegatee, votingToDelegatee, amount, DelegationType.VOTING_POWER);\n\n        address propPowerFromDelegatee = _getDelegatee(from, _propositionPowerDelegates);\n        address propPowerToDelegatee = _getDelegatee(to, _propositionPowerDelegates);\n\n        _moveDelegatesByType(\n            propPowerFromDelegatee,\n            propPowerToDelegatee,\n            amount,\n            DelegationType.PROPOSITION_POWER\n        );\n\n        // caching the aave governance address to avoid multiple state loads\n        ITransferHook aaveGovernance = _aaveGovernance;\n        if (aaveGovernance != ITransferHook(0)) {\n            aaveGovernance.onTransfer(from, to, amount);\n        }\n    }\n\n    function _getDelegationDataByType(DelegationType delegationType)\n        internal\n        view\n        returns (\n            mapping(address => mapping(uint256 => Snapshot)) storage, //snapshots\n            mapping(address => uint256) storage, //snapshots count\n            mapping(address => address) storage //delegatees list\n        )\n    {\n        if (delegationType == DelegationType.VOTING_POWER) {\n            return (_votingSnapshots, _votingSnapshotsCounts, _votingDelegates);\n        } else {\n            return (_propositionPowerSnapshots, _propositionPowerSnapshotsCounts, _propositionPowerDelegates);\n        }\n    }\n\n    /**\n     * @dev Delegates power from signatory to `delegatee`\n     * @param delegatee The address to delegate votes to\n     * @param delegationType the type of delegation (VOTING_POWER, PROPOSITION_POWER)\n     * @param nonce The contract state required to match the signature\n     * @param expiry The time at which to expire the signature\n     * @param v The recovery byte of the signature\n     * @param r Half of the ECDSA signature pair\n     * @param s Half of the ECDSA signature pair\n     */\n    function delegateByTypeBySig(\n        address delegatee,\n        DelegationType delegationType,\n        uint256 nonce,\n        uint256 expiry,\n        uint8 v,\n        bytes32 r,\n        bytes32 s\n    ) public {\n        bytes32 structHash = keccak256(\n            abi.encode(DELEGATE_BY_TYPE_TYPEHASH, delegatee, uint256(delegationType), nonce, expiry)\n        );\n        bytes32 digest = keccak256(abi.encodePacked('\\x19\\x01', DOMAIN_SEPARATOR, structHash));\n        address signatory = ecrecover(digest, v, r, s);\n        require(signatory != address(0), 'INVALID_SIGNATURE');\n        require(nonce == _nonces[signatory]++, 'INVALID_NONCE');\n        require(block.timestamp <= expiry, 'INVALID_EXPIRATION');\n        _delegateByType(signatory, delegatee, delegationType);\n    }\n\n    /**\n     * @dev Delegates power from signatory to `delegatee`\n     * @param delegatee The address to delegate votes to\n     * @param nonce The contract state required to match the signature\n     * @param expiry The time at which to expire the signature\n     * @param v The recovery byte of the signature\n     * @param r Half of the ECDSA signature pair\n     * @param s Half of the ECDSA signature pair\n     */\n    function delegateBySig(\n        address delegatee,\n        uint256 nonce,\n        uint256 expiry,\n        uint8 v,\n        bytes32 r,\n        bytes32 s\n    ) public {\n        bytes32 structHash = keccak256(abi.encode(DELEGATE_TYPEHASH, delegatee, nonce, expiry));\n        bytes32 digest = keccak256(abi.encodePacked('\\x19\\x01', DOMAIN_SEPARATOR, structHash));\n        address signatory = ecrecover(digest, v, r, s);\n        require(signatory != address(0), 'INVALID_SIGNATURE');\n        require(nonce == _nonces[signatory]++, 'INVALID_NONCE');\n        require(block.timestamp <= expiry, 'INVALID_EXPIRATION');\n        _delegateByType(signatory, delegatee, DelegationType.VOTING_POWER);\n        _delegateByType(signatory, delegatee, DelegationType.PROPOSITION_POWER);\n    }\n\n    bytes32 public constant DELEGATE_BY_TYPE_TYPEHASH =\n        keccak256('DelegateByType(address delegatee,uint256 type,uint256 nonce,uint256 expiry)');\n\n    bytes32 public constant DELEGATE_TYPEHASH =\n        keccak256('Delegate(address delegatee,uint256 nonce,uint256 expiry)');\n\n    /// @dev snapshot of a value on a specific block, used for votes\n    struct Snapshot {\n        uint128 blockNumber;\n        uint128 value;\n    }\n\n    /**\n     * @dev delegates one specific power to a delegatee\n     * @param delegatee the user which delegated power has changed\n     * @param delegationType the type of delegation (VOTING_POWER, PROPOSITION_POWER)\n     **/\n    function delegateByType(address delegatee, DelegationType delegationType) external {\n        _delegateByType(msg.sender, delegatee, delegationType);\n    }\n\n    /**\n     * @dev delegates all the powers to a specific user\n     * @param delegatee the user to which the power will be delegated\n     **/\n    function delegate(address delegatee) external {\n        _delegateByType(msg.sender, delegatee, DelegationType.VOTING_POWER);\n        _delegateByType(msg.sender, delegatee, DelegationType.PROPOSITION_POWER);\n    }\n\n    /**\n     * @dev returns the delegatee of an user\n     * @param delegator the address of the delegator\n     **/\n    function getDelegateeByType(address delegator, DelegationType delegationType)\n        external\n        view\n        returns (address)\n    {\n        (, , mapping(address => address) storage delegates) = _getDelegationDataByType(delegationType);\n\n        return _getDelegatee(delegator, delegates);\n    }\n\n    /**\n     * @dev returns the current delegated power of a user. The current power is the\n     * power delegated at the time of the last snapshot\n     * @param user the user\n     **/\n    function getPowerCurrent(address user, DelegationType delegationType) external view returns (uint256) {\n        (\n            mapping(address => mapping(uint256 => Snapshot)) storage snapshots,\n            mapping(address => uint256) storage snapshotsCounts,\n\n        ) = _getDelegationDataByType(delegationType);\n\n        return _searchByBlockNumber(snapshots, snapshotsCounts, user, block.number);\n    }\n\n    /**\n     * @dev returns the delegated power of a user at a certain block\n     * @param user the user\n     **/\n    function getPowerAtBlock(\n        address user,\n        uint256 blockNumber,\n        DelegationType delegationType\n    ) external view returns (uint256) {\n        (\n            mapping(address => mapping(uint256 => Snapshot)) storage snapshots,\n            mapping(address => uint256) storage snapshotsCounts,\n\n        ) = _getDelegationDataByType(delegationType);\n\n        return _searchByBlockNumber(snapshots, snapshotsCounts, user, blockNumber);\n    }\n\n    /**\n     * @dev returns the total supply at a certain block number\n     * used by the voting strategy contracts to calculate the total votes needed for threshold/quorum\n     * In this initial implementation with no AAVE minting, simply returns the current supply\n     * A snapshots mapping will need to be added in case a mint function is added to the AAVE token in the future\n     **/\n    function totalSupplyAt(uint256 blockNumber) external view returns (uint256) {\n        return super.totalSupply();\n    }\n\n    /**\n     * @dev delegates the specific power to a delegatee\n     * @param delegatee the user which delegated power has changed\n     * @param delegationType the type of delegation (VOTING_POWER, PROPOSITION_POWER)\n     **/\n    function _delegateByType(\n        address delegator,\n        address delegatee,\n        DelegationType delegationType\n    ) internal {\n        require(delegatee != address(0), 'INVALID_DELEGATEE');\n\n        (, , mapping(address => address) storage delegates) = _getDelegationDataByType(delegationType);\n\n        uint256 delegatorBalance = balanceOf(delegator);\n\n        address previousDelegatee = _getDelegatee(delegator, delegates);\n\n        delegates[delegator] = delegatee;\n\n        _moveDelegatesByType(previousDelegatee, delegatee, delegatorBalance, delegationType);\n        emit DelegateChanged(delegator, delegatee, delegationType);\n    }\n\n    /**\n     * @dev moves delegated power from one user to another\n     * @param from the user from which delegated power is moved\n     * @param to the user that will receive the delegated power\n     * @param amount the amount of delegated power to be moved\n     * @param delegationType the type of delegation (VOTING_POWER, PROPOSITION_POWER)\n     **/\n    function _moveDelegatesByType(\n        address from,\n        address to,\n        uint256 amount,\n        DelegationType delegationType\n    ) internal {\n        if (from == to) {\n            return;\n        }\n\n        (\n            mapping(address => mapping(uint256 => Snapshot)) storage snapshots,\n            mapping(address => uint256) storage snapshotsCounts,\n\n        ) = _getDelegationDataByType(delegationType);\n\n        if (from != address(0)) {\n            uint256 previous = 0;\n            uint256 fromSnapshotsCount = snapshotsCounts[from];\n\n            if (fromSnapshotsCount != 0) {\n                previous = snapshots[from][fromSnapshotsCount - 1].value;\n            } else {\n                previous = balanceOf(from);\n            }\n\n            _writeSnapshot(\n                snapshots,\n                snapshotsCounts,\n                from,\n                uint128(previous),\n                uint128(previous.sub(amount))\n            );\n\n            emit DelegatedPowerChanged(from, previous.sub(amount), delegationType);\n        }\n        if (to != address(0)) {\n            uint256 previous = 0;\n            uint256 toSnapshotsCount = snapshotsCounts[to];\n            if (toSnapshotsCount != 0) {\n                previous = snapshots[to][toSnapshotsCount - 1].value;\n            } else {\n                previous = balanceOf(to);\n            }\n\n            _writeSnapshot(snapshots, snapshotsCounts, to, uint128(previous), uint128(previous.add(amount)));\n\n            emit DelegatedPowerChanged(to, previous.add(amount), delegationType);\n        }\n    }\n\n    /**\n     * @dev searches a snapshot by block number. Uses binary search.\n     * @param snapshots the snapshots mapping\n     * @param snapshotsCounts the number of snapshots\n     * @param user the user for which the snapshot is being searched\n     * @param blockNumber the block number being searched\n     **/\n    function _searchByBlockNumber(\n        mapping(address => mapping(uint256 => Snapshot)) storage snapshots,\n        mapping(address => uint256) storage snapshotsCounts,\n        address user,\n        uint256 blockNumber\n    ) internal view returns (uint256) {\n        require(blockNumber <= block.number, 'INVALID_BLOCK_NUMBER');\n\n        uint256 snapshotsCount = snapshotsCounts[user];\n\n        if (snapshotsCount == 0) {\n            return balanceOf(user);\n        }\n\n        // First check most recent balance\n        if (snapshots[user][snapshotsCount - 1].blockNumber <= blockNumber) {\n            return snapshots[user][snapshotsCount - 1].value;\n        }\n\n        // Next check implicit zero balance\n        if (snapshots[user][0].blockNumber > blockNumber) {\n            return 0;\n        }\n\n        uint256 lower = 0;\n        uint256 upper = snapshotsCount - 1;\n        while (upper > lower) {\n            uint256 center = upper - (upper - lower) / 2; // ceil, avoiding overflow\n            Snapshot memory snapshot = snapshots[user][center];\n            if (snapshot.blockNumber == blockNumber) {\n                return snapshot.value;\n            } else if (snapshot.blockNumber < blockNumber) {\n                lower = center;\n            } else {\n                upper = center - 1;\n            }\n        }\n        return snapshots[user][lower].value;\n    }\n\n    /**\n     * @dev Writes a snapshot for an owner of tokens\n     * @param owner The owner of the tokens\n     * @param oldValue The value before the operation that is gonna be executed after the snapshot\n     * @param newValue The value after the operation\n     */\n    function _writeSnapshot(\n        mapping(address => mapping(uint256 => Snapshot)) storage snapshots,\n        mapping(address => uint256) storage snapshotsCounts,\n        address owner,\n        uint128 oldValue,\n        uint128 newValue\n    ) internal {\n        uint128 currentBlock = uint128(block.number);\n\n        uint256 ownerSnapshotsCount = snapshotsCounts[owner];\n        mapping(uint256 => Snapshot) storage snapshotsOwner = snapshots[owner];\n\n        // Doing multiple operations in the same block\n        if (ownerSnapshotsCount != 0 && snapshotsOwner[ownerSnapshotsCount - 1].blockNumber == currentBlock) {\n            snapshotsOwner[ownerSnapshotsCount - 1].value = newValue;\n        } else {\n            snapshotsOwner[ownerSnapshotsCount] = Snapshot(currentBlock, newValue);\n            snapshotsCounts[owner] = ownerSnapshotsCount + 1;\n        }\n    }\n\n    /**\n     * @dev returns the user delegatee. If a user never performed any delegation,\n     * his delegated address will be 0x0. In that case we simply return the user itself\n     * @param delegator the address of the user for which return the delegatee\n     * @param delegates the array of delegates for a particular type of delegation\n     **/\n    function _getDelegatee(address delegator, mapping(address => address) storage delegates)\n        internal\n        view\n        returns (address)\n    {\n        address previousDelegatee = delegates[delegator];\n\n        if (previousDelegatee == address(0)) {\n            return delegator;\n        }\n\n        return previousDelegatee;\n    }\n\n    function mint(address _to, uint256 _amount) public onlyOwner {\n        _mint(_to, _amount);\n        _moveDelegatesByType(address(0), _to, _amount, DelegationType.VOTING_POWER);\n        _moveDelegatesByType(address(0), _to, _amount, DelegationType.PROPOSITION_POWER);\n    }\n}\n",
  "sourcePath": "C:/Users/James/projects/erc20-vue-template/blockchain/contracts/SuperKarmaToken.sol",
  "compiler": {
    "name": "solc",
    "version": "0.7.0+commit.9e61f92b.Emscripten.clang"
  },
  "schemaVersion": "3.3.2",
  "updatedAt": "2021-07-05T14:15:52.701Z",
  "devdoc": {
    "kind": "dev",
    "methods": {
      "allowance(address,address)": {
        "details": "See {IERC20-allowance}."
      },
      "approve(address,uint256)": {
        "details": "See {IERC20-approve}. Requirements: - `spender` cannot be the zero address."
      },
      "balanceOf(address)": {
        "details": "See {IERC20-balanceOf}."
      },
      "decimals()": {
        "details": "Returns the number of decimals used to get its user representation. For example, if `decimals` equals `2`, a balance of `505` tokens should be displayed to a user as `5,05` (`505 / 10 ** 2`). Tokens usually opt for a value of 18, imitating the relationship between Ether and Wei. This is the value {ERC20} uses, unless {_setupDecimals} is called. NOTE: This information is only used for _display_ purposes: it in no way affects any of the arithmetic of the contract, including {IERC20-balanceOf} and {IERC20-transfer}."
      },
      "decreaseAllowance(address,uint256)": {
        "details": "Atomically decreases the allowance granted to `spender` by the caller. This is an alternative to {approve} that can be used as a mitigation for problems described in {IERC20-approve}. Emits an {Approval} event indicating the updated allowance. Requirements: - `spender` cannot be the zero address. - `spender` must have allowance for the caller of at least `subtractedValue`."
      },
      "delegate(address)": {
        "details": "delegates all the powers to a specific user",
        "params": {
          "delegatee": "the user to which the power will be delegated*"
        }
      },
      "delegateBySig(address,uint256,uint256,uint8,bytes32,bytes32)": {
        "details": "Delegates power from signatory to `delegatee`",
        "params": {
          "delegatee": "The address to delegate votes to",
          "expiry": "The time at which to expire the signature",
          "nonce": "The contract state required to match the signature",
          "r": "Half of the ECDSA signature pair",
          "s": "Half of the ECDSA signature pair",
          "v": "The recovery byte of the signature"
        }
      },
      "delegateByType(address,uint8)": {
        "details": "delegates one specific power to a delegatee",
        "params": {
          "delegatee": "the user which delegated power has changed",
          "delegationType": "the type of delegation (VOTING_POWER, PROPOSITION_POWER)*"
        }
      },
      "delegateByTypeBySig(address,uint8,uint256,uint256,uint8,bytes32,bytes32)": {
        "details": "Delegates power from signatory to `delegatee`",
        "params": {
          "delegatee": "The address to delegate votes to",
          "delegationType": "the type of delegation (VOTING_POWER, PROPOSITION_POWER)",
          "expiry": "The time at which to expire the signature",
          "nonce": "The contract state required to match the signature",
          "r": "Half of the ECDSA signature pair",
          "s": "Half of the ECDSA signature pair",
          "v": "The recovery byte of the signature"
        }
      },
      "getDelegateeByType(address,uint8)": {
        "details": "returns the delegatee of an user",
        "params": {
          "delegator": "the address of the delegator*"
        }
      },
      "getPowerAtBlock(address,uint256,uint8)": {
        "details": "returns the delegated power of a user at a certain block",
        "params": {
          "user": "the user*"
        }
      },
      "getPowerCurrent(address,uint8)": {
        "details": "returns the current delegated power of a user. The current power is the power delegated at the time of the last snapshot",
        "params": {
          "user": "the user*"
        }
      },
      "increaseAllowance(address,uint256)": {
        "details": "Atomically increases the allowance granted to `spender` by the caller. This is an alternative to {approve} that can be used as a mitigation for problems described in {IERC20-approve}. Emits an {Approval} event indicating the updated allowance. Requirements: - `spender` cannot be the zero address."
      },
      "name()": {
        "details": "Returns the name of the token."
      },
      "owner()": {
        "details": "Returns the address of the current owner."
      },
      "permit(address,address,uint256,uint256,uint8,bytes32,bytes32)": {
        "details": "implements the permit function as for https://github.com/ethereum/EIPs/blob/8a34d644aacf0f9f8f00815307fd7dd5da07655f/EIPS/eip-2612.md",
        "params": {
          "deadline": "the deadline timestamp, type(uint256).max for no deadline",
          "owner": "the owner of the funds",
          "r": "signature param",
          "s": "signature param",
          "spender": "the spender",
          "v": "signature param",
          "value": "the amount"
        }
      },
      "renounceOwnership()": {
        "details": "Leaves the contract without owner. It will not be possible to call `onlyOwner` functions anymore. Can only be called by the current owner. NOTE: Renouncing ownership will leave the contract without an owner, thereby removing any functionality that is only available to the owner."
      },
      "symbol()": {
        "details": "Returns the symbol of the token, usually a shorter version of the name."
      },
      "totalSupply()": {
        "details": "See {IERC20-totalSupply}."
      },
      "totalSupplyAt(uint256)": {
        "details": "returns the total supply at a certain block number used by the voting strategy contracts to calculate the total votes needed for threshold/quorum In this initial implementation with no AAVE minting, simply returns the current supply A snapshots mapping will need to be added in case a mint function is added to the AAVE token in the future*"
      },
      "transfer(address,uint256)": {
        "details": "See {IERC20-transfer}. Requirements: - `recipient` cannot be the zero address. - the caller must have a balance of at least `amount`."
      },
      "transferFrom(address,address,uint256)": {
        "details": "See {IERC20-transferFrom}. Emits an {Approval} event indicating the updated allowance. This is not required by the EIP. See the note at the beginning of {ERC20}. Requirements: - `sender` and `recipient` cannot be the zero address. - `sender` must have a balance of at least `amount`. - the caller must have allowance for ``sender``'s tokens of at least `amount`."
      },
      "transferOwnership(address)": {
        "details": "Transfers ownership of the contract to a new account (`newOwner`). Can only be called by the current owner."
      }
    },
    "stateVariables": {
      "_aaveGovernance": {
        "details": "reference to the Aave governance contract to call (if initialized) on _beforeTokenTransfer !!! IMPORTANT The Aave governance is considered a trustable contract, being its responsibility to control all potential reentrancies by calling back the AaveToken"
      },
      "_nonces": {
        "details": "owner => next valid nonce to submit with permit()"
      }
    },
    "version": 1
  },
  "userdoc": {
    "kind": "user",
    "methods": {},
    "version": 1
  }
}