{
  "contractName": "SuperKarmaPool",
  "abi": [
    {
      "inputs": [
        {
          "internalType": "contract ISuperfluid",
          "name": "host",
          "type": "address"
        },
        {
          "internalType": "contract IConstantFlowAgreementV1",
          "name": "cfa",
          "type": "address"
        },
        {
          "internalType": "contract ILendingPool",
          "name": "aave",
          "type": "address"
        },
        {
          "internalType": "string",
          "name": "name",
          "type": "string"
        },
        {
          "internalType": "string",
          "name": "symbol",
          "type": "string"
        }
      ],
      "stateMutability": "nonpayable",
      "type": "constructor"
    },
    {
      "anonymous": false,
      "inputs": [
        {
          "indexed": false,
          "internalType": "uint256",
          "name": "superTokenBalance",
          "type": "uint256"
        },
        {
          "indexed": false,
          "internalType": "uint256",
          "name": "underlyingBalance",
          "type": "uint256"
        }
      ],
      "name": "AgreementCreated",
      "type": "event"
    },
    {
      "anonymous": false,
      "inputs": [
        {
          "indexed": true,
          "internalType": "address",
          "name": "owner",
          "type": "address"
        },
        {
          "indexed": true,
          "internalType": "address",
          "name": "spender",
          "type": "address"
        },
        {
          "indexed": false,
          "internalType": "uint256",
          "name": "value",
          "type": "uint256"
        }
      ],
      "name": "Approval",
      "type": "event"
    },
    {
      "anonymous": false,
      "inputs": [
        {
          "indexed": true,
          "internalType": "address",
          "name": "delegator",
          "type": "address"
        },
        {
          "indexed": true,
          "internalType": "address",
          "name": "delegatee",
          "type": "address"
        },
        {
          "indexed": false,
          "internalType": "enum SuperKarmaPoolToken.DelegationType",
          "name": "delegationType",
          "type": "uint8"
        }
      ],
      "name": "DelegateChanged",
      "type": "event"
    },
    {
      "anonymous": false,
      "inputs": [
        {
          "indexed": true,
          "internalType": "address",
          "name": "user",
          "type": "address"
        },
        {
          "indexed": false,
          "internalType": "uint256",
          "name": "amount",
          "type": "uint256"
        },
        {
          "indexed": false,
          "internalType": "enum SuperKarmaPoolToken.DelegationType",
          "name": "delegationType",
          "type": "uint8"
        }
      ],
      "name": "DelegatedPowerChanged",
      "type": "event"
    },
    {
      "anonymous": false,
      "inputs": [
        {
          "indexed": true,
          "internalType": "address",
          "name": "previousOwner",
          "type": "address"
        },
        {
          "indexed": true,
          "internalType": "address",
          "name": "newOwner",
          "type": "address"
        }
      ],
      "name": "OwnershipTransferred",
      "type": "event"
    },
    {
      "anonymous": false,
      "inputs": [
        {
          "indexed": true,
          "internalType": "address",
          "name": "from",
          "type": "address"
        },
        {
          "indexed": true,
          "internalType": "address",
          "name": "to",
          "type": "address"
        },
        {
          "indexed": false,
          "internalType": "uint256",
          "name": "value",
          "type": "uint256"
        }
      ],
      "name": "Transfer",
      "type": "event"
    },
    {
      "inputs": [],
      "name": "DELEGATE_BY_TYPE_TYPEHASH",
      "outputs": [
        {
          "internalType": "bytes32",
          "name": "",
          "type": "bytes32"
        }
      ],
      "stateMutability": "view",
      "type": "function",
      "constant": true
    },
    {
      "inputs": [],
      "name": "DELEGATE_TYPEHASH",
      "outputs": [
        {
          "internalType": "bytes32",
          "name": "",
          "type": "bytes32"
        }
      ],
      "stateMutability": "view",
      "type": "function",
      "constant": true
    },
    {
      "inputs": [],
      "name": "DOMAIN_SEPARATOR",
      "outputs": [
        {
          "internalType": "bytes32",
          "name": "",
          "type": "bytes32"
        }
      ],
      "stateMutability": "view",
      "type": "function",
      "constant": true
    },
    {
      "inputs": [],
      "name": "EIP712_REVISION",
      "outputs": [
        {
          "internalType": "bytes",
          "name": "",
          "type": "bytes"
        }
      ],
      "stateMutability": "view",
      "type": "function",
      "constant": true
    },
    {
      "inputs": [],
      "name": "PERMIT_TYPEHASH",
      "outputs": [
        {
          "internalType": "bytes32",
          "name": "",
          "type": "bytes32"
        }
      ],
      "stateMutability": "view",
      "type": "function",
      "constant": true
    },
    {
      "inputs": [],
      "name": "REVISION",
      "outputs": [
        {
          "internalType": "uint256",
          "name": "",
          "type": "uint256"
        }
      ],
      "stateMutability": "view",
      "type": "function",
      "constant": true
    },
    {
      "inputs": [],
      "name": "_aaveGovernance",
      "outputs": [
        {
          "internalType": "contract ITransferHook",
          "name": "",
          "type": "address"
        }
      ],
      "stateMutability": "view",
      "type": "function",
      "constant": true
    },
    {
      "inputs": [],
      "name": "_name",
      "outputs": [
        {
          "internalType": "string",
          "name": "",
          "type": "string"
        }
      ],
      "stateMutability": "view",
      "type": "function",
      "constant": true
    },
    {
      "inputs": [
        {
          "internalType": "address",
          "name": "",
          "type": "address"
        }
      ],
      "name": "_nonces",
      "outputs": [
        {
          "internalType": "uint256",
          "name": "",
          "type": "uint256"
        }
      ],
      "stateMutability": "view",
      "type": "function",
      "constant": true
    },
    {
      "inputs": [
        {
          "internalType": "address",
          "name": "",
          "type": "address"
        },
        {
          "internalType": "uint256",
          "name": "",
          "type": "uint256"
        }
      ],
      "name": "_votingSnapshots",
      "outputs": [
        {
          "internalType": "uint128",
          "name": "blockNumber",
          "type": "uint128"
        },
        {
          "internalType": "uint128",
          "name": "value",
          "type": "uint128"
        }
      ],
      "stateMutability": "view",
      "type": "function",
      "constant": true
    },
    {
      "inputs": [
        {
          "internalType": "address",
          "name": "",
          "type": "address"
        }
      ],
      "name": "_votingSnapshotsCounts",
      "outputs": [
        {
          "internalType": "uint256",
          "name": "",
          "type": "uint256"
        }
      ],
      "stateMutability": "view",
      "type": "function",
      "constant": true
    },
    {
      "inputs": [
        {
          "internalType": "address",
          "name": "owner",
          "type": "address"
        },
        {
          "internalType": "address",
          "name": "spender",
          "type": "address"
        }
      ],
      "name": "allowance",
      "outputs": [
        {
          "internalType": "uint256",
          "name": "",
          "type": "uint256"
        }
      ],
      "stateMutability": "view",
      "type": "function",
      "constant": true
    },
    {
      "inputs": [
        {
          "internalType": "address",
          "name": "spender",
          "type": "address"
        },
        {
          "internalType": "uint256",
          "name": "amount",
          "type": "uint256"
        }
      ],
      "name": "approve",
      "outputs": [
        {
          "internalType": "bool",
          "name": "",
          "type": "bool"
        }
      ],
      "stateMutability": "nonpayable",
      "type": "function"
    },
    {
      "inputs": [
        {
          "internalType": "address",
          "name": "account",
          "type": "address"
        }
      ],
      "name": "balanceOf",
      "outputs": [
        {
          "internalType": "uint256",
          "name": "",
          "type": "uint256"
        }
      ],
      "stateMutability": "view",
      "type": "function",
      "constant": true
    },
    {
      "inputs": [
        {
          "internalType": "contract ISuperToken",
          "name": "",
          "type": "address"
        },
        {
          "internalType": "address",
          "name": "",
          "type": "address"
        },
        {
          "internalType": "bytes32",
          "name": "",
          "type": "bytes32"
        },
        {
          "internalType": "bytes",
          "name": "",
          "type": "bytes"
        },
        {
          "internalType": "bytes",
          "name": "",
          "type": "bytes"
        }
      ],
      "name": "beforeAgreementCreated",
      "outputs": [
        {
          "internalType": "bytes",
          "name": "",
          "type": "bytes"
        }
      ],
      "stateMutability": "view",
      "type": "function",
      "constant": true
    },
    {
      "inputs": [
        {
          "internalType": "contract ISuperToken",
          "name": "",
          "type": "address"
        },
        {
          "internalType": "address",
          "name": "",
          "type": "address"
        },
        {
          "internalType": "bytes32",
          "name": "",
          "type": "bytes32"
        },
        {
          "internalType": "bytes",
          "name": "",
          "type": "bytes"
        },
        {
          "internalType": "bytes",
          "name": "",
          "type": "bytes"
        }
      ],
      "name": "beforeAgreementTerminated",
      "outputs": [
        {
          "internalType": "bytes",
          "name": "",
          "type": "bytes"
        }
      ],
      "stateMutability": "view",
      "type": "function",
      "constant": true
    },
    {
      "inputs": [
        {
          "internalType": "contract ISuperToken",
          "name": "",
          "type": "address"
        },
        {
          "internalType": "address",
          "name": "",
          "type": "address"
        },
        {
          "internalType": "bytes32",
          "name": "",
          "type": "bytes32"
        },
        {
          "internalType": "bytes",
          "name": "",
          "type": "bytes"
        },
        {
          "internalType": "bytes",
          "name": "",
          "type": "bytes"
        }
      ],
      "name": "beforeAgreementUpdated",
      "outputs": [
        {
          "internalType": "bytes",
          "name": "",
          "type": "bytes"
        }
      ],
      "stateMutability": "view",
      "type": "function",
      "constant": true
    },
    {
      "inputs": [],
      "name": "decimals",
      "outputs": [
        {
          "internalType": "uint8",
          "name": "",
          "type": "uint8"
        }
      ],
      "stateMutability": "view",
      "type": "function",
      "constant": true
    },
    {
      "inputs": [
        {
          "internalType": "address",
          "name": "spender",
          "type": "address"
        },
        {
          "internalType": "uint256",
          "name": "subtractedValue",
          "type": "uint256"
        }
      ],
      "name": "decreaseAllowance",
      "outputs": [
        {
          "internalType": "bool",
          "name": "",
          "type": "bool"
        }
      ],
      "stateMutability": "nonpayable",
      "type": "function"
    },
    {
      "inputs": [
        {
          "internalType": "address",
          "name": "delegatee",
          "type": "address"
        }
      ],
      "name": "delegate",
      "outputs": [],
      "stateMutability": "nonpayable",
      "type": "function"
    },
    {
      "inputs": [
        {
          "internalType": "address",
          "name": "delegatee",
          "type": "address"
        },
        {
          "internalType": "uint256",
          "name": "nonce",
          "type": "uint256"
        },
        {
          "internalType": "uint256",
          "name": "expiry",
          "type": "uint256"
        },
        {
          "internalType": "uint8",
          "name": "v",
          "type": "uint8"
        },
        {
          "internalType": "bytes32",
          "name": "r",
          "type": "bytes32"
        },
        {
          "internalType": "bytes32",
          "name": "s",
          "type": "bytes32"
        }
      ],
      "name": "delegateBySig",
      "outputs": [],
      "stateMutability": "nonpayable",
      "type": "function"
    },
    {
      "inputs": [
        {
          "internalType": "address",
          "name": "delegatee",
          "type": "address"
        },
        {
          "internalType": "enum SuperKarmaPoolToken.DelegationType",
          "name": "delegationType",
          "type": "uint8"
        }
      ],
      "name": "delegateByType",
      "outputs": [],
      "stateMutability": "nonpayable",
      "type": "function"
    },
    {
      "inputs": [
        {
          "internalType": "address",
          "name": "delegatee",
          "type": "address"
        },
        {
          "internalType": "enum SuperKarmaPoolToken.DelegationType",
          "name": "delegationType",
          "type": "uint8"
        },
        {
          "internalType": "uint256",
          "name": "nonce",
          "type": "uint256"
        },
        {
          "internalType": "uint256",
          "name": "expiry",
          "type": "uint256"
        },
        {
          "internalType": "uint8",
          "name": "v",
          "type": "uint8"
        },
        {
          "internalType": "bytes32",
          "name": "r",
          "type": "bytes32"
        },
        {
          "internalType": "bytes32",
          "name": "s",
          "type": "bytes32"
        }
      ],
      "name": "delegateByTypeBySig",
      "outputs": [],
      "stateMutability": "nonpayable",
      "type": "function"
    },
    {
      "inputs": [
        {
          "internalType": "address",
          "name": "",
          "type": "address"
        }
      ],
      "name": "flowInfos",
      "outputs": [
        {
          "internalType": "uint256",
          "name": "lastClaim",
          "type": "uint256"
        },
        {
          "internalType": "int96",
          "name": "flowRate",
          "type": "int96"
        }
      ],
      "stateMutability": "view",
      "type": "function",
      "constant": true
    },
    {
      "inputs": [
        {
          "internalType": "address",
          "name": "delegator",
          "type": "address"
        },
        {
          "internalType": "enum SuperKarmaPoolToken.DelegationType",
          "name": "delegationType",
          "type": "uint8"
        }
      ],
      "name": "getDelegateeByType",
      "outputs": [
        {
          "internalType": "address",
          "name": "",
          "type": "address"
        }
      ],
      "stateMutability": "view",
      "type": "function",
      "constant": true
    },
    {
      "inputs": [
        {
          "internalType": "address",
          "name": "user",
          "type": "address"
        },
        {
          "internalType": "uint256",
          "name": "blockNumber",
          "type": "uint256"
        },
        {
          "internalType": "enum SuperKarmaPoolToken.DelegationType",
          "name": "delegationType",
          "type": "uint8"
        }
      ],
      "name": "getPowerAtBlock",
      "outputs": [
        {
          "internalType": "uint256",
          "name": "",
          "type": "uint256"
        }
      ],
      "stateMutability": "view",
      "type": "function",
      "constant": true
    },
    {
      "inputs": [
        {
          "internalType": "address",
          "name": "user",
          "type": "address"
        },
        {
          "internalType": "enum SuperKarmaPoolToken.DelegationType",
          "name": "delegationType",
          "type": "uint8"
        }
      ],
      "name": "getPowerCurrent",
      "outputs": [
        {
          "internalType": "uint256",
          "name": "",
          "type": "uint256"
        }
      ],
      "stateMutability": "view",
      "type": "function",
      "constant": true
    },
    {
      "inputs": [
        {
          "internalType": "address",
          "name": "spender",
          "type": "address"
        },
        {
          "internalType": "uint256",
          "name": "addedValue",
          "type": "uint256"
        }
      ],
      "name": "increaseAllowance",
      "outputs": [
        {
          "internalType": "bool",
          "name": "",
          "type": "bool"
        }
      ],
      "stateMutability": "nonpayable",
      "type": "function"
    },
    {
      "inputs": [
        {
          "internalType": "address",
          "name": "_to",
          "type": "address"
        },
        {
          "internalType": "uint256",
          "name": "_amount",
          "type": "uint256"
        }
      ],
      "name": "mint",
      "outputs": [],
      "stateMutability": "nonpayable",
      "type": "function"
    },
    {
      "inputs": [],
      "name": "name",
      "outputs": [
        {
          "internalType": "string",
          "name": "",
          "type": "string"
        }
      ],
      "stateMutability": "view",
      "type": "function",
      "constant": true
    },
    {
      "inputs": [],
      "name": "owner",
      "outputs": [
        {
          "internalType": "address",
          "name": "",
          "type": "address"
        }
      ],
      "stateMutability": "view",
      "type": "function",
      "constant": true
    },
    {
      "inputs": [
        {
          "internalType": "address",
          "name": "owner",
          "type": "address"
        },
        {
          "internalType": "address",
          "name": "spender",
          "type": "address"
        },
        {
          "internalType": "uint256",
          "name": "value",
          "type": "uint256"
        },
        {
          "internalType": "uint256",
          "name": "deadline",
          "type": "uint256"
        },
        {
          "internalType": "uint8",
          "name": "v",
          "type": "uint8"
        },
        {
          "internalType": "bytes32",
          "name": "r",
          "type": "bytes32"
        },
        {
          "internalType": "bytes32",
          "name": "s",
          "type": "bytes32"
        }
      ],
      "name": "permit",
      "outputs": [],
      "stateMutability": "nonpayable",
      "type": "function"
    },
    {
      "inputs": [],
      "name": "renounceOwnership",
      "outputs": [],
      "stateMutability": "nonpayable",
      "type": "function"
    },
    {
      "inputs": [],
      "name": "symbol",
      "outputs": [
        {
          "internalType": "string",
          "name": "",
          "type": "string"
        }
      ],
      "stateMutability": "view",
      "type": "function",
      "constant": true
    },
    {
      "inputs": [],
      "name": "totalSupply",
      "outputs": [
        {
          "internalType": "uint256",
          "name": "",
          "type": "uint256"
        }
      ],
      "stateMutability": "view",
      "type": "function",
      "constant": true
    },
    {
      "inputs": [
        {
          "internalType": "uint256",
          "name": "blockNumber",
          "type": "uint256"
        }
      ],
      "name": "totalSupplyAt",
      "outputs": [
        {
          "internalType": "uint256",
          "name": "",
          "type": "uint256"
        }
      ],
      "stateMutability": "view",
      "type": "function",
      "constant": true
    },
    {
      "inputs": [
        {
          "internalType": "address",
          "name": "recipient",
          "type": "address"
        },
        {
          "internalType": "uint256",
          "name": "amount",
          "type": "uint256"
        }
      ],
      "name": "transfer",
      "outputs": [
        {
          "internalType": "bool",
          "name": "",
          "type": "bool"
        }
      ],
      "stateMutability": "nonpayable",
      "type": "function"
    },
    {
      "inputs": [
        {
          "internalType": "address",
          "name": "sender",
          "type": "address"
        },
        {
          "internalType": "address",
          "name": "recipient",
          "type": "address"
        },
        {
          "internalType": "uint256",
          "name": "amount",
          "type": "uint256"
        }
      ],
      "name": "transferFrom",
      "outputs": [
        {
          "internalType": "bool",
          "name": "",
          "type": "bool"
        }
      ],
      "stateMutability": "nonpayable",
      "type": "function"
    },
    {
      "inputs": [
        {
          "internalType": "address",
          "name": "newOwner",
          "type": "address"
        }
      ],
      "name": "transferOwnership",
      "outputs": [],
      "stateMutability": "nonpayable",
      "type": "function"
    },
    {
      "inputs": [
        {
          "internalType": "contract IERC20",
          "name": "_token",
          "type": "address"
        },
        {
          "internalType": "uint256",
          "name": "_amount",
          "type": "uint256"
        }
      ],
      "name": "donateERC20",
      "outputs": [],
      "stateMutability": "nonpayable",
      "type": "function"
    },
    {
      "inputs": [
        {
          "internalType": "contract IERC20",
          "name": "_token",
          "type": "address"
        },
        {
          "internalType": "uint256",
          "name": "_amount",
          "type": "uint256"
        },
        {
          "internalType": "address",
          "name": "_to",
          "type": "address"
        }
      ],
      "name": "withdraw",
      "outputs": [],
      "stateMutability": "nonpayable",
      "type": "function"
    },
    {
      "inputs": [
        {
          "internalType": "contract ISuperToken",
          "name": "_superToken",
          "type": "address"
        }
      ],
      "name": "updateDeposits",
      "outputs": [],
      "stateMutability": "nonpayable",
      "type": "function"
    },
    {
      "inputs": [
        {
          "internalType": "contract ISuperToken",
          "name": "_superToken",
          "type": "address"
        }
      ],
      "name": "claimSuperKarma",
      "outputs": [
        {
          "internalType": "bytes",
          "name": "newCtx",
          "type": "bytes"
        }
      ],
      "stateMutability": "nonpayable",
      "type": "function"
    },
    {
      "inputs": [
        {
          "internalType": "contract ISuperToken",
          "name": "_superToken",
          "type": "address"
        },
        {
          "internalType": "address",
          "name": "_agreementClass",
          "type": "address"
        },
        {
          "internalType": "bytes32",
          "name": "",
          "type": "bytes32"
        },
        {
          "internalType": "bytes",
          "name": "_agreementData",
          "type": "bytes"
        },
        {
          "internalType": "bytes",
          "name": "",
          "type": "bytes"
        },
        {
          "internalType": "bytes",
          "name": "_ctx",
          "type": "bytes"
        }
      ],
      "name": "afterAgreementCreated",
      "outputs": [
        {
          "internalType": "bytes",
          "name": "newCtx",
          "type": "bytes"
        }
      ],
      "stateMutability": "nonpayable",
      "type": "function"
    },
    {
      "inputs": [
        {
          "internalType": "contract ISuperToken",
          "name": "_superToken",
          "type": "address"
        },
        {
          "internalType": "address",
          "name": "_agreementClass",
          "type": "address"
        },
        {
          "internalType": "bytes32",
          "name": "",
          "type": "bytes32"
        },
        {
          "internalType": "bytes",
          "name": "_agreementData",
          "type": "bytes"
        },
        {
          "internalType": "bytes",
          "name": "",
          "type": "bytes"
        },
        {
          "internalType": "bytes",
          "name": "_ctx",
          "type": "bytes"
        }
      ],
      "name": "afterAgreementUpdated",
      "outputs": [
        {
          "internalType": "bytes",
          "name": "newCtx",
          "type": "bytes"
        }
      ],
      "stateMutability": "nonpayable",
      "type": "function"
    },
    {
      "inputs": [
        {
          "internalType": "contract ISuperToken",
          "name": "_superToken",
          "type": "address"
        },
        {
          "internalType": "address",
          "name": "_agreementClass",
          "type": "address"
        },
        {
          "internalType": "bytes32",
          "name": "",
          "type": "bytes32"
        },
        {
          "internalType": "bytes",
          "name": "",
          "type": "bytes"
        },
        {
          "internalType": "bytes",
          "name": "",
          "type": "bytes"
        },
        {
          "internalType": "bytes",
          "name": "_ctx",
          "type": "bytes"
        }
      ],
      "name": "afterAgreementTerminated",
      "outputs": [
        {
          "internalType": "bytes",
          "name": "newCtx",
          "type": "bytes"
        }
      ],
      "stateMutability": "nonpayable",
      "type": "function"
    }
  ],
  "bytecode": "0x60806040523480156200001157600080fd5b506040516200392638038062003926833981810160405260a08110156200003757600080fd5b8151602083015160408085015160608601805192519496939591949391820192846401000000008211156200006b57600080fd5b9083019060208201858111156200008157600080fd5b82516401000000008111828201881017156200009c57600080fd5b82525081516020918201929091019080838360005b83811015620000cb578181015183820152602001620000b1565b50505050905090810190601f168015620000f95780820380516001836020036101000a031916815260200191505b50604052602001805160405193929190846401000000008211156200011d57600080fd5b9083019060208201858111156200013357600080fd5b82516401000000008111828201881017156200014e57600080fd5b82525081516020918201929091019080838360005b838110156200017d57818101518382015260200162000163565b50505050905090810190601f168015620001ab5780820380516001836020036101000a031916815260200191505b50604052505050818181818160039080519060200190620001ce9291906200034a565b508051620001e49060049060208401906200034a565b50506005805460ff191660121790555060006200020062000346565b60058054610100600160a81b0319166101006001600160a01b03841690810291909117909155604051919250906000907f8be0079c531659141344cd1fd0a4f28419497f9722a3daafe3b4186f6b6457e0908290a35050506001600160a01b0385166200026957fe5b6001600160a01b0384166200027a57fe5b600f80546001600160a01b038088166001600160a01b0319928316179092556010805487841690831617905560118054928616929091169190911790558151620002cc9060129060208501906200034a565b50600f54604080516315a722b960e31b815264150000000160048201819052915191926001600160a01b03169163ad3915c89160248082019260009290919082900301818387803b1580156200032157600080fd5b505af115801562000336573d6000803e3d6000fd5b50505050505050505050620003e6565b3390565b828054600181600116156101000203166002900490600052602060002090601f016020900481019282601f106200038d57805160ff1916838001178555620003bd565b82800160010185558215620003bd579182015b82811115620003bd578251825591602001919060010190620003a0565b50620003cb929150620003cf565b5090565b5b80821115620003cb5760008155600101620003d0565b61353080620003f66000396000f3fe608060405234801561001057600080fd5b506004361061028a5760003560e01c8063884d1f401161015c578063c2ffbb91116100ce578063dc937e1c11610087578063dc937e1c14610b9f578063dd62ed3e14610bce578063dde43cba14610bfc578063ef99fb0214610c04578063f2fde38b14610c30578063f713d8a814610c565761028a565b8063c2ffbb9114610ac2578063c3863ada14610af7578063c3cda52014610aff578063d28d885214610b46578063d505accf14610b4e578063d86ed3e51461038e5761028a565b8063a457c2d711610120578063a457c2d7146109e7578063a8ca749c14610a13578063a9059cbb14610a39578063aa9fbe0214610a65578063b2f4201d14610a6d578063b9844d8d14610a9c5761028a565b8063884d1f401461089a5780638da5cb5b1461097857806395d89b4114610980578063962a74e114610988578063981b24d0146109ca5761028a565b806340c10f191161020057806369328dec116101b957806369328dec146107bd5780636f50458d146107f357806370a082311461083e578063715018a614610864578063781603761461086c5780637bb73c97146108745761028a565b806340c10f191461062a57806341cbf54a1461065657806353c11f991461038e5780635b3cc0cf1461065e5780635c19a95c146106b95780635f9e7d77146106df5761028a565b806323b872dd1161025257806323b872dd146104bc57806330adf81f146104f257806330d9c915146104fa578063313ce567146105d85780633644e515146105f657806339509351146105fe5761028a565b806306fdde031461028f578063095ea7b31461030c5780630fa7d2001461034c57806318160ddd14610374578063230dbd291461038e575b600080fd5b610297610ca7565b6040805160208082528351818301528351919283929083019185019080838360005b838110156102d15781810151838201526020016102b9565b50505050905090810190601f1680156102fe5780820380516001836020036101000a031916815260200191505b509250505060405180910390f35b6103386004803603604081101561032257600080fd5b506001600160a01b038135169060200135610d3d565b604080519115158252519081900360200190f35b6103726004803603602081101561036257600080fd5b50356001600160a01b0316610d5b565b005b61037c6112d5565b60408051918252519081900360200190f35b610297600480360360c08110156103a457600080fd5b6001600160a01b03823581169260208101359091169160408201359190810190608081016060820135600160201b8111156103de57600080fd5b8201836020820111156103f057600080fd5b803590602001918460018302840111600160201b8311171561041157600080fd5b919390929091602081019035600160201b81111561042e57600080fd5b82018360208201111561044057600080fd5b803590602001918460018302840111600160201b8311171561046157600080fd5b919390929091602081019035600160201b81111561047e57600080fd5b82018360208201111561049057600080fd5b803590602001918460018302840111600160201b831117156104b157600080fd5b5090925090506112db565b610338600480360360608110156104d257600080fd5b506001600160a01b03813581169160208101359091169060400135611375565b61037c6113fc565b610297600480360360a081101561051057600080fd5b6001600160a01b03823581169260208101359091169160408201359190810190608081016060820135600160201b81111561054a57600080fd5b82018360208201111561055c57600080fd5b803590602001918460018302840111600160201b8311171561057d57600080fd5b919390929091602081019035600160201b81111561059a57600080fd5b8201836020820111156105ac57600080fd5b803590602001918460018302840111600160201b831117156105cd57600080fd5b509092509050611420565b6105e0611459565b6040805160ff9092168252519081900360200190f35b61037c611462565b6103386004803603604081101561061457600080fd5b506001600160a01b038135169060200135611468565b6103726004803603604081101561064057600080fd5b506001600160a01b0381351690602001356114b6565b61037c611554565b61068a6004803603604081101561067457600080fd5b506001600160a01b038135169060200135611578565b60405180836001600160801b03168152602001826001600160801b031681526020019250505060405180910390f35b610372600480360360208110156106cf57600080fd5b50356001600160a01b03166115a9565b610297600480360360a08110156106f557600080fd5b6001600160a01b03823581169260208101359091169160408201359190810190608081016060820135600160201b81111561072f57600080fd5b82018360208201111561074157600080fd5b803590602001918460018302840111600160201b8311171561076257600080fd5b919390929091602081019035600160201b81111561077f57600080fd5b82018360208201111561079157600080fd5b803590602001918460018302840111600160201b831117156107b257600080fd5b5090925090506115c1565b610372600480360360608110156107d357600080fd5b506001600160a01b038135811691602081013591604090910135166115fa565b6108226004803603604081101561080957600080fd5b5080356001600160a01b0316906020013560ff16611682565b604080516001600160a01b039092168252519081900360200190f35b61037c6004803603602081101561085457600080fd5b50356001600160a01b03166116a4565b6103726116bf565b610297611783565b61037c6004803603602081101561088a57600080fd5b50356001600160a01b03166117a0565b610297600480360360a08110156108b057600080fd5b6001600160a01b03823581169260208101359091169160408201359190810190608081016060820135600160201b8111156108ea57600080fd5b8201836020820111156108fc57600080fd5b803590602001918460018302840111600160201b8311171561091d57600080fd5b919390929091602081019035600160201b81111561093a57600080fd5b82018360208201111561094c57600080fd5b803590602001918460018302840111600160201b8311171561096d57600080fd5b5090925090506117b2565b6108226117eb565b6102976117ff565b6109ae6004803603602081101561099e57600080fd5b50356001600160a01b0316611860565b60408051928352600b9190910b60208301528051918290030190f35b61037c600480360360208110156109e057600080fd5b503561187c565b610338600480360360408110156109fd57600080fd5b506001600160a01b038135169060200135611886565b61029760048036036020811015610a2957600080fd5b50356001600160a01b03166118ee565b61033860048036036040811015610a4f57600080fd5b506001600160a01b038135169060200135611bcc565b61037c611be0565b61037c60048036036040811015610a8357600080fd5b5080356001600160a01b0316906020013560ff16611c04565b61037c60048036036020811015610ab257600080fd5b50356001600160a01b0316611c2c565b61037c60048036036060811015610ad857600080fd5b5080356001600160a01b0316906020810135906040013560ff16611c3e565b610822611c67565b610372600480360360c0811015610b1557600080fd5b506001600160a01b038135169060208101359060408101359060ff6060820135169060808101359060a00135611c76565b610297611e98565b610372600480360360e0811015610b6457600080fd5b506001600160a01b03813581169160208101359091169060408101359060608101359060ff6080820135169060a08101359060c00135611f26565b61037260048036036040811015610bb557600080fd5b5080356001600160a01b0316906020013560ff16612162565b61037c60048036036040811015610be457600080fd5b506001600160a01b038135811691602001351661216d565b61037c612198565b61037260048036036040811015610c1a57600080fd5b506001600160a01b03813516906020013561219d565b61037260048036036020811015610c4657600080fd5b50356001600160a01b0316612324565b610372600480360360e0811015610c6c57600080fd5b506001600160a01b038135169060ff602082013581169160408101359160608201359160808101359091169060a08101359060c00135612444565b60038054604080516020601f6002600019610100600188161502019095169490940493840181900481028201810190925282815260609390929091830182828015610d335780601f10610d0857610100808354040283529160200191610d33565b820191906000526020600020905b815481529060010190602001808311610d1657829003601f168201915b5050505050905090565b6000610d51610d4a612677565b848461267b565b5060015b92915050565b6000816001600160a01b03166370a08231306040518263ffffffff1660e01b815260040180826001600160a01b0316815260200191505060206040518083038186803b158015610daa57600080fd5b505afa158015610dbe573d6000803e3d6000fd5b505050506040513d6020811015610dd457600080fd5b505111156112d257604080516370a0823160e01b815230600482015290516001600160a01b038316916311bcc81e9183916370a08231916024808301926020929190829003018186803b158015610e2a57600080fd5b505afa158015610e3e573d6000803e3d6000fd5b505050506040513d6020811015610e5457600080fd5b5051604080516001600160e01b031960e085901b168152600481019290925251602480830192600092919082900301818387803b158015610e9457600080fd5b505af1158015610ea8573d6000803e3d6000fd5b505050506000816001600160a01b031663ee719bc86040518163ffffffff1660e01b815260040160206040518083038186803b158015610ee757600080fd5b505afa158015610efb573d6000803e3d6000fd5b505050506040513d6020811015610f1157600080fd5b505160115460408051636eb1769f60e11b81523060048201526001600160a01b0392831660248201529051919092169163dd62ed3e916044808301926020929190829003018186803b158015610f6657600080fd5b505afa158015610f7a573d6000803e3d6000fd5b505050506040513d6020811015610f9057600080fd5b5051141561108157806001600160a01b031663ee719bc86040518163ffffffff1660e01b815260040160206040518083038186803b158015610fd157600080fd5b505afa158015610fe5573d6000803e3d6000fd5b505050506040513d6020811015610ffb57600080fd5b50516011546040805163095ea7b360e01b81526001600160a01b03928316600482015260001960248201529051919092169163095ea7b39160448083019260209291908290030181600087803b15801561105457600080fd5b505af1158015611068573d6000803e3d6000fd5b505050506040513d602081101561107e57600080fd5b50505b604080516370a0823160e01b815230600482015290516001600160a01b038316916370a08231916024808301926020929190829003018186803b1580156110c757600080fd5b505afa1580156110db573d6000803e3d6000fd5b505050506040513d60208110156110f157600080fd5b50516001600160a01b0380831660008181526013602090815260409182902080549095019094556011548151631dce337960e31b8152915193169363e8eda9df9363ee719bc8926004808201939291829003018186803b15801561115457600080fd5b505afa158015611168573d6000803e3d6000fd5b505050506040513d602081101561117e57600080fd5b505160408051631dce337960e31b815290516001600160a01b0386169163ee719bc8916004808301926020929190829003018186803b1580156111c057600080fd5b505afa1580156111d4573d6000803e3d6000fd5b505050506040513d60208110156111ea57600080fd5b5051604080516370a0823160e01b815230600482015290516001600160a01b03909216916370a0823191602480820192602092909190829003018186803b15801561123457600080fd5b505afa158015611248573d6000803e3d6000fd5b505050506040513d602081101561125e57600080fd5b5051604080516001600160e01b031960e086901b1681526001600160a01b0390931660048401526024830191909152306044830152600060648301819052905160848084019382900301818387803b1580156112b957600080fd5b505af11580156112cd573d6000803e3d6000fd5b505050505b50565b60025490565b600f546060906001600160a01b031633146113275760405162461bcd60e51b81526004018080602001828103825260228152602001806133796022913960400191505060405180910390fd5b6113308a610d5b565b82828080601f016020809104026020016040519081016040528093929190818152602001838380828437600092019190915250929d9c50505050505050505050505050565b6000611382848484612767565b6113f28461138e612677565b6113ed856040518060600160405280602881526020016133e2602891396001600160a01b038a166000908152600160205260408120906113cc612677565b6001600160a01b0316815260208101919091526040016000205491906128c2565b61267b565b5060019392505050565b7f6e71edae12b1b97f4d1f60370fef10105fa2faae0126114a169c64845d6126c981565b606060405162461bcd60e51b815260040180806020018281038252602f815260200180613482602f913960400191505060405180910390fd5b60055460ff1690565b600a5481565b6000610d51611475612677565b846113ed8560016000611486612677565b6001600160a01b03908116825260208083019390935260409182016000908120918c168152925290205490612959565b6114be612677565b6001600160a01b03166114cf6117eb565b6001600160a01b03161461152a576040805162461bcd60e51b815260206004820181905260248201527f4f776e61626c653a2063616c6c6572206973206e6f7420746865206f776e6572604482015290519081900360640190fd5b61153482826129ba565b611542600083836000612aaa565b611550600083836001612aaa565b5050565b7f9a9a49b990ba9bb39f8048c490a40ab25c18f55d208d5fbcf958261a9b48716d81565b60076020908152600092835260408084209091529082529020546001600160801b0380821691600160801b90041682565b6115b533826000612cb9565b6112d233826001612cb9565b606060405162461bcd60e51b81526004018080602001828103825260338152602001806133466033913960400191505060405180910390fd5b60115460408051631a4ca37b60e21b81526001600160a01b038681166004830152602482018690528481166044830152915191909216916369328dec9160648083019260209291908290030181600087803b15801561165857600080fd5b505af115801561166c573d6000803e3d6000fd5b505050506040513d60208110156112cd57600080fd5b60008061168e83612dca565b9250505061169c8482612e04565b949350505050565b6001600160a01b031660009081526020819052604090205490565b6116c7612677565b6001600160a01b03166116d86117eb565b6001600160a01b031614611733576040805162461bcd60e51b815260206004820181905260248201527f4f776e61626c653a2063616c6c6572206973206e6f7420746865206f776e6572604482015290519081900360640190fd5b60055460405160009161010090046001600160a01b0316907f8be0079c531659141344cd1fd0a4f28419497f9722a3daafe3b4186f6b6457e0908390a360058054610100600160a81b0319169055565b604051806040016040528060018152602001603160f81b81525081565b60086020526000908152604090205481565b606060405162461bcd60e51b815260040180806020018281038252602f81526020018061342f602f913960400191505060405180910390fd5b60055461010090046001600160a01b031690565b60048054604080516020601f6002600019610100600188161502019095169490940493840181900481028201810190925282815260609390929091830182828015610d335780601f10610d0857610100808354040283529160200191610d33565b60146020526000908152604090208054600190910154600b0b82565b6000610d556112d5565b6000610d51611893612677565b846113ed856040518060600160405280602581526020016134d660259139600160006118bd612677565b6001600160a01b03908116825260208083019390935260409182016000908120918d168152925290205491906128c2565b3360009081526014602052604090205460609062093a800142116119435760405162461bcd60e51b81526004018080602001828103825260228152602001806132dc6022913960400191505060405180910390fd5b60105460408051631cd43d1160e31b81526001600160a01b0385811660048301523060248301523360448301529151600093929092169163e6a1e88891606480820192608092909190829003018186803b1580156119a057600080fd5b505afa1580156119b4573d6000803e3d6000fd5b505050506040513d60808110156119ca57600080fd5b506020015190506000600b82900b13611a145760405162461bcd60e51b81526004018080602001828103825260258152602001806134b16025913960400191505060405180910390fd5b6000836001600160a01b03166370a08231336040518263ffffffff1660e01b815260040180826001600160a01b0316815260200191505060206040518083038186803b158015611a6357600080fd5b505afa158015611a77573d6000803e3d6000fd5b505050506040513d6020811015611a8d57600080fd5b505111611acb5760405162461bcd60e51b81526004018080602001828103825260218152602001806133c16021913960400191505060405180910390fd5b611add33670de0b6b3a76400006129ba565b60105460408051631cd43d1160e31b81526001600160a01b0386811660048301523360248301523060448301529151600093929092169163e6a1e88891606480820192608092909190829003018186803b158015611b3a57600080fd5b505afa158015611b4e573d6000803e3d6000fd5b505050506040513d6080811015611b6457600080fd5b50602090810151604080518082018252428152600b92830b8185019081523360009081526014909552919093209251835551600190920180546bffffffffffffffffffffffff19166bffffffffffffffffffffffff9390920b92909216179055509092915050565b6000610d51611bd9612677565b8484612767565b7f10d8d059343739efce7dad10d09f0806da52b252b3e6a7951920d2d6ec4102e581565b6000806000611c1284612dca565b5091509150611c2382828743612e2f565b95945050505050565b60066020526000908152604090205481565b6000806000611c4c84612dca565b5091509150611c5d82828888612e2f565b9695505050505050565b6009546001600160a01b031681565b604080517f9a9a49b990ba9bb39f8048c490a40ab25c18f55d208d5fbcf958261a9b48716d6020808301919091526001600160a01b038916828401526060820188905260808083018890528351808403909101815260a083018452805190820120600a5461190160f01b60c085015260c284015260e2808401829052845180850390910181526101028401808652815191840191909120600091829052610122850180875281905260ff891661014286015261016285018890526101828501879052945191949390926001926101a280840193601f198301929081900390910190855afa158015611d6b573d6000803e3d6000fd5b5050604051601f1901519150506001600160a01b038116611dc7576040805162461bcd60e51b8152602060048201526011602482015270494e56414c49445f5349474e415455524560781b604482015290519081900360640190fd5b6001600160a01b03811660009081526006602052604090208054600181019091558814611e2b576040805162461bcd60e51b815260206004820152600d60248201526c494e56414c49445f4e4f4e434560981b604482015290519081900360640190fd5b86421115611e75576040805162461bcd60e51b815260206004820152601260248201527124a72b20a624a22fa2ac2824a920aa24a7a760711b604482015290519081900360640190fd5b611e81818a6000612cb9565b611e8d818a6001612cb9565b505050505050505050565b6012805460408051602060026001851615610100026000190190941693909304601f81018490048402820184019092528181529291830182828015611f1e5780601f10611ef357610100808354040283529160200191611f1e565b820191906000526020600020905b815481529060010190602001808311611f0157829003601f168201915b505050505081565b6001600160a01b038716611f71576040805162461bcd60e51b815260206004820152600d60248201526c24a72b20a624a22fa7aba722a960991b604482015290519081900360640190fd5b83421115611fbb576040805162461bcd60e51b815260206004820152601260248201527124a72b20a624a22fa2ac2824a920aa24a7a760711b604482015290519081900360640190fd5b6001600160a01b03808816600081815260066020908152604080832054600a5482517f6e71edae12b1b97f4d1f60370fef10105fa2faae0126114a169c64845d6126c98186015280840196909652958c166060860152608085018b905260a0850181905260c08086018b90528251808703909101815260e08601835280519084012061190160f01b6101008701526101028601969096526101228086019690965281518086039096018652610142850180835286519684019690962093909552610162840180825283905260ff88166101828501526101a284018790526101c284018690525191926001926101e28083019392601f198301929081900390910190855afa1580156120d0573d6000803e3d6000fd5b505050602060405103516001600160a01b0316896001600160a01b031614612133576040805162461bcd60e51b8152602060048201526011602482015270494e56414c49445f5349474e415455524560781b604482015290519081900360640190fd5b61213e826001612959565b6001600160a01b038a16600090815260066020526040902055611e8d89898961267b565b611550338383612cb9565b6001600160a01b03918216600090815260016020908152604080832093909416825291909152205490565b600281565b604080516323b872dd60e01b81523360048201523060248201526044810183905290516001600160a01b038416916323b872dd9160648083019260209291908290030181600087803b1580156121f257600080fd5b505af1158015612206573d6000803e3d6000fd5b505050506040513d602081101561221c57600080fd5b5050601154604080516370a0823160e01b815230600482015290516001600160a01b039283169263e8eda9df928692918316916370a0823191602480820192602092909190829003018186803b15801561227557600080fd5b505afa158015612289573d6000803e3d6000fd5b505050506040513d602081101561229f57600080fd5b5051604080516001600160e01b031960e086901b1681526001600160a01b0390931660048401526024830191909152306044830152600060648301819052905160848084019382900301818387803b1580156122fa57600080fd5b505af115801561230e573d6000803e3d6000fd5b5050505061155033670de0b6b3a76400006129ba565b61232c612677565b6001600160a01b031661233d6117eb565b6001600160a01b031614612398576040805162461bcd60e51b815260206004820181905260248201527f4f776e61626c653a2063616c6c6572206973206e6f7420746865206f776e6572604482015290519081900360640190fd5b6001600160a01b0381166123dd5760405162461bcd60e51b81526004018080602001828103825260268152602001806132fe6026913960400191505060405180910390fd5b6005546040516001600160a01b0380841692610100900416907f8be0079c531659141344cd1fd0a4f28419497f9722a3daafe3b4186f6b6457e090600090a3600580546001600160a01b0390921661010002610100600160a81b0319909216919091179055565b60007f10d8d059343739efce7dad10d09f0806da52b252b3e6a7951920d2d6ec4102e58888600181111561247457fe5b604080516020808201959095526001600160a01b039093168382015260608301919091526080820189905260a08083018990528151808403909101815260c083018252805190840120600a5461190160f01b60e085015260e2840152610102808401829052825180850390910181526101228401808452815191860191909120600091829052610142850180855281905260ff8a1661016286015261018285018990526101a285018890529251919550919391926001926101c2808301939192601f198301929081900390910190855afa158015612556573d6000803e3d6000fd5b5050604051601f1901519150506001600160a01b0381166125b2576040805162461bcd60e51b8152602060048201526011602482015270494e56414c49445f5349474e415455524560781b604482015290519081900360640190fd5b6001600160a01b03811660009081526006602052604090208054600181019091558814612616576040805162461bcd60e51b815260206004820152600d60248201526c494e56414c49445f4e4f4e434560981b604482015290519081900360640190fd5b86421115612660576040805162461bcd60e51b815260206004820152601260248201527124a72b20a624a22fa2ac2824a920aa24a7a760711b604482015290519081900360640190fd5b61266b818b8b612cb9565b50505050505050505050565b3390565b6001600160a01b0383166126c05760405162461bcd60e51b815260040180806020018281038252602481526020018061345e6024913960400191505060405180910390fd5b6001600160a01b0382166127055760405162461bcd60e51b81526004018080602001828103825260228152602001806133246022913960400191505060405180910390fd5b6001600160a01b03808416600081815260016020908152604080832094871680845294825291829020859055815185815291517f8c5be1e5ebec7d5bd14f71427d1e84f3dd0314c0f7b2291e5b200ac8c7c3b9259281900390910190a3505050565b6001600160a01b0383166127ac5760405162461bcd60e51b815260040180806020018281038252602581526020018061340a6025913960400191505060405180910390fd5b6001600160a01b0382166127f15760405162461bcd60e51b81526004018080602001828103825260238152602001806132b96023913960400191505060405180910390fd5b6127fc83838361304a565b6128398160405180606001604052806026815260200161339b602691396001600160a01b03861660009081526020819052604090205491906128c2565b6001600160a01b0380851660009081526020819052604080822093909355908416815220546128689082612959565b6001600160a01b038084166000818152602081815260409182902094909455805185815290519193928716927fddf252ad1be2c89b69c2b068fc378daa952ba7f163c4a11628f55a4df523b3ef92918290030190a3505050565b600081848411156129515760405162461bcd60e51b81526004018080602001828103825283818151815260200191508051906020019080838360005b838110156129165781810151838201526020016128fe565b50505050905090810190601f1680156129435780820380516001836020036101000a031916815260200191505b509250505060405180910390fd5b505050900390565b6000828201838110156129b3576040805162461bcd60e51b815260206004820152601b60248201527f536166654d6174683a206164646974696f6e206f766572666c6f770000000000604482015290519081900360640190fd5b9392505050565b6001600160a01b038216612a15576040805162461bcd60e51b815260206004820152601f60248201527f45524332303a206d696e7420746f20746865207a65726f206164647265737300604482015290519081900360640190fd5b612a216000838361304a565b600254612a2e9082612959565b6002556001600160a01b038216600090815260208190526040902054612a549082612959565b6001600160a01b0383166000818152602081815260408083209490945583518581529351929391927fddf252ad1be2c89b69c2b068fc378daa952ba7f163c4a11628f55a4df523b3ef9281900390910190a35050565b826001600160a01b0316846001600160a01b03161415612ac957612cb3565b600080612ad583612dca565b5090925090506001600160a01b03861615612bc8576001600160a01b0386166000908152602082905260408120548015612b46576001600160a01b03881660009081526020858152604080832060001985018452909152902054600160801b90046001600160801b03169150612b52565b612b4f886116a4565b91505b612b6884848a85612b63818c61313d565b61319a565b6001600160a01b0388167fa0a19463ee116110c9b282012d9b65cc5522dc38a9520340cbaf3142e550127f612b9d848961313d565b8760405180838152602001826001811115612bb457fe5b81526020019250505060405180910390a250505b6001600160a01b03851615612cb0576001600160a01b0385166000908152602082905260408120548015612c33576001600160a01b03871660009081526020858152604080832060001985018452909152902054600160801b90046001600160801b03169150612c3f565b612c3c876116a4565b91505b612c5084848985612b63818c612959565b6001600160a01b0387167fa0a19463ee116110c9b282012d9b65cc5522dc38a9520340cbaf3142e550127f612c858489612959565b8760405180838152602001826001811115612c9c57fe5b81526020019250505060405180910390a250505b50505b50505050565b6001600160a01b038216612d08576040805162461bcd60e51b8152602060048201526011602482015270494e56414c49445f44454c45474154454560781b604482015290519081900360640190fd5b6000612d1382612dca565b925050506000612d22856116a4565b90506000612d308684612e04565b6001600160a01b03878116600090815260208690526040902080546001600160a01b0319169188169190911790559050612d6c81868487612aaa565b846001600160a01b0316866001600160a01b03167fe8d51c8e11bd570db1734c8ec775785330e77007feed45c43b608ef33ff914bd8660405180826001811115612db257fe5b815260200191505060405180910390a3505050505050565b6000808080846001811115612ddb57fe5b1415612df157506007915060089050600b612dfd565b50600c9150600d9050600e5b9193909250565b6001600160a01b03808316600090815260208390526040812054909116806129b35783915050610d55565b600043821115612e7d576040805162461bcd60e51b815260206004820152601460248201527324a72b20a624a22fa12627a1a5afa72aa6a122a960611b604482015290519081900360640190fd5b6001600160a01b03831660009081526020859052604090205480612eac57612ea4846116a4565b91505061169c565b6001600160a01b038416600090815260208781526040808320600019850184529091529020546001600160801b03168310612f1f576001600160a01b038416600090815260208781526040808320600019909401835292905220546001600160801b03600160801b90910416905061169c565b6001600160a01b0384166000908152602087815260408083208380529091529020546001600160801b0316831015612f5b57600091505061169c565b600060001982015b8181111561300d576002828203048103612f7b6132a1565b506001600160a01b038716600090815260208a815260408083208484528252918290208251808401909352546001600160801b03808216808552600160801b9092041691830191909152871415612fe557602001516001600160801b0316945061169c9350505050565b80516001600160801b0316871115612fff57819350613006565b6001820392505b5050612f63565b506001600160a01b0385166000908152602088815260408083209383529290522054600160801b90046001600160801b0316915050949350505050565b600061305784600b612e04565b9050600061306684600b612e04565b90506130758282856000612aaa565b600061308286600e612e04565b9050600061309186600e612e04565b90506130a08282876001612aaa565b6009546001600160a01b0316801561313357806001600160a01b0316634a3931498989896040518463ffffffff1660e01b815260040180846001600160a01b03168152602001836001600160a01b031681526020018281526020019350505050600060405180830381600087803b15801561311a57600080fd5b505af115801561312e573d6000803e3d6000fd5b505050505b5050505050505050565b600082821115613194576040805162461bcd60e51b815260206004820152601e60248201527f536166654d6174683a207375627472616374696f6e206f766572666c6f770000604482015290519081900360640190fd5b50900390565b6001600160a01b038316600090815260208581526040808320549188905290912043919081158015906131eb575060001982016000908152602082905260409020546001600160801b038481169116145b15613220576000198201600090815260208290526040902080546001600160801b03808716600160801b029116179055613133565b6040805180820182526001600160801b038086168252868116602080840191825260008781528682528581209451855493518516600160801b029085166fffffffffffffffffffffffffffffffff1990941693909317909316919091179092556001600160a01b038916815290899052206001830190555050505050505050565b60408051808201909152600080825260208201529056fe45524332303a207472616e7366657220746f20746865207a65726f206164647265737343616e206f6e6c7920636c61696d2072657761726473206f6e63652061207765656b4f776e61626c653a206e6577206f776e657220697320746865207a65726f206164647265737345524332303a20617070726f766520746f20746865207a65726f2061646472657373556e737570706f727465642063616c6c6261636b202d20204265666f72652041677265656d656e74205465726d696e617465645265646972656374416c6c3a20737570706f7274206f6e6c79206f6e6520686f737445524332303a207472616e7366657220616d6f756e7420657863656564732062616c616e636542616c616e6365206d7573742062652067726561746572207468616e207a65726f45524332303a207472616e7366657220616d6f756e74206578636565647320616c6c6f77616e636545524332303a207472616e736665722066726f6d20746865207a65726f2061646472657373556e737570706f727465642063616c6c6261636b202d204265666f72652041677265656d656e74207570646174656445524332303a20617070726f76652066726f6d20746865207a65726f2061646472657373556e737570706f727465642063616c6c6261636b202d204265666f72652041677265656d656e742043726561746564596f75206d757374206861766520616e2061637469766520666c6f7720746f20636c61696d45524332303a2064656372656173656420616c6c6f77616e63652062656c6f77207a65726fa26469706673582212202047be7749c62ecf2a7134d57fc4400774d43a050ff3bf1f3aac78e351bec3dc64736f6c63430007000033",
  "immutableReferences": {},
  "source": "// SPDX-License-Identifier: MIT\npragma solidity ^0.7.0;\n\nimport {ISuperfluid, ISuperToken, ISuperApp, ISuperAgreement, SuperAppDefinitions} from './interfaces/superFluidInterfaces/superfluid/ISuperfluid.sol';\n// When ready to move to leave Remix, change imports to follow this pattern:\n// \"@superfluid-finance/ethereum-contracts/contracts/interfaces/superfluid/ISuperfluid.sol\";\n\nimport {IConstantFlowAgreementV1} from './interfaces/superFluidInterfaces/agreements/IConstantFlowAgreementV1.sol';\nimport {ILendingPool} from './interfaces/ILendingPool.sol';\nimport {IERC20} from './interfaces/IERC20.sol';\nimport {SuperKarmaPoolToken} from './SuperKarmaPoolToken.sol';\nimport {SuperAppBase} from './interfaces/superFluidInterfaces/SuperAppBase.sol';\n\ncontract SuperKarmaPool is SuperAppBase, SuperKarmaPoolToken {\n    ISuperfluid private _host; // host\n    IConstantFlowAgreementV1 private _cfa; // the stored constant flow agreement class address\n    ILendingPool _aave;\n    string public _name;\n    mapping(address => uint256) totalDeposits;\n    struct FlowInfo {\n        uint256 lastClaim;\n        int96 flowRate;\n    }\n\n    mapping(address => FlowInfo) public flowInfos;\n\n    constructor(\n        ISuperfluid host,\n        IConstantFlowAgreementV1 cfa,\n        ILendingPool aave,\n        string memory name,\n        string memory symbol\n    ) SuperKarmaPoolToken(name, symbol) {\n        assert(address(host) != address(0));\n        assert(address(cfa) != address(0));\n        //assert(!_host.isApp(ISuperApp(receiver)));\n\n        _host = host;\n        _cfa = cfa;\n        _aave = aave;\n        _name = name;\n\n        uint256 configWord = SuperAppDefinitions.APP_LEVEL_FINAL |\n            SuperAppDefinitions.BEFORE_AGREEMENT_CREATED_NOOP |\n            SuperAppDefinitions.BEFORE_AGREEMENT_UPDATED_NOOP |\n            SuperAppDefinitions.BEFORE_AGREEMENT_TERMINATED_NOOP;\n\n        _host.registerApp(configWord);\n    }\n\n    event AgreementCreated(uint256 superTokenBalance, uint256 underlyingBalance);\n\n    function donateERC20(IERC20 _token, uint256 _amount) external {\n        _token.transferFrom(msg.sender, address(this), _amount);\n        _aave.deposit(address(_token), _token.balanceOf(address(this)), address(this), 0);\n        _mint(msg.sender, 1 ether);\n    }\n\n    function withdraw(\n        IERC20 _token,\n        uint256 _amount,\n        address _to\n    ) external {\n        _aave.withdraw(address(_token), _amount, _to);\n    }\n\n    function updateDeposits(ISuperToken _superToken) public {\n        if (_superToken.balanceOf(address(this)) > 0) {\n            _superToken.downgrade(_superToken.balanceOf(address(this)));\n            if (\n                IERC20(_superToken.getUnderlyingToken()).allowance(address(this), address(_aave)) ==\n                uint256(0)\n            ) {\n                IERC20(_superToken.getUnderlyingToken()).approve(address(_aave), uint256(-1));\n            }\n            totalDeposits[address(_superToken)] =\n                totalDeposits[address(_superToken)] +\n                _superToken.balanceOf(address(this));\n            _aave.deposit(\n                _superToken.getUnderlyingToken(),\n                IERC20(_superToken.getUnderlyingToken()).balanceOf(address(this)),\n                address(this),\n                0\n            );\n        }\n    }\n\n    function claimSuperKarma(ISuperToken _superToken) external returns (bytes memory newCtx) {\n        require(\n            block.timestamp > flowInfos[msg.sender].lastClaim + 1 weeks,\n            'Can only claim rewards once a week'\n        );\n        (, int96 outFlowRate, , ) = _cfa.getFlow(_superToken, address(this), msg.sender);\n        require(outFlowRate > int96(0), 'You must have an active flow to claim');\n        require(_superToken.balanceOf(msg.sender) > uint256(0), 'Balance must be greater than zero');\n        _mint(msg.sender, 1 ether);\n        (, int96 tokenFlowRate, , ) = _cfa.getFlow(_superToken, msg.sender, address(this));\n        flowInfos[msg.sender] = FlowInfo({lastClaim: block.timestamp, flowRate: tokenFlowRate});\n    }\n\n    /**************************************************************************\n     * SuperApp callbacks\n     *************************************************************************/\n\n    function afterAgreementCreated(\n        ISuperToken _superToken,\n        address _agreementClass,\n        bytes32, // _agreementId,\n        bytes calldata _agreementData,\n        bytes calldata, // _cbdata,\n        bytes calldata _ctx\n    ) external override onlyHost returns (bytes memory newCtx) {\n        updateDeposits(_superToken);\n        return _ctx;\n    }\n\n    function afterAgreementUpdated(\n        ISuperToken _superToken,\n        address _agreementClass,\n        bytes32, //_agreementId,\n        bytes calldata _agreementData,\n        bytes calldata, //_cbdata,\n        bytes calldata _ctx\n    ) external override onlyHost returns (bytes memory newCtx) {\n        updateDeposits(_superToken);\n        return _ctx;\n    }\n\n    function afterAgreementTerminated(\n        ISuperToken _superToken,\n        address _agreementClass,\n        bytes32, //_agreementId,\n        bytes calldata, /*_agreementData*/\n        bytes calldata, //_cbdata,\n        bytes calldata _ctx\n    ) external override onlyHost returns (bytes memory newCtx) {\n        updateDeposits(_superToken);\n        return _ctx;\n    }\n\n    function _isCFAv1(address agreementClass) private view returns (bool) {\n        return\n            ISuperAgreement(agreementClass).agreementType() ==\n            keccak256('org.superfluid-finance.agreements.ConstantFlowAgreement.v1');\n    }\n\n    modifier onlyHost() {\n        require(msg.sender == address(_host), 'RedirectAll: support only one host');\n        _;\n    }\n}\n",
  "sourcePath": "C:/Users/James/projects/erc20-vue-template/blockchain/contracts/SuperKarmaPool.sol",
  "compiler": {
    "name": "solc",
    "version": "0.7.0+commit.9e61f92b.Emscripten.clang"
  },
  "schemaVersion": "3.3.2",
  "updatedAt": "2021-07-05T19:32:25.661Z",
  "networkType": "ethereum",
  "devdoc": {
    "kind": "dev",
    "methods": {
      "allowance(address,address)": {
        "details": "See {IERC20-allowance}."
      },
      "approve(address,uint256)": {
        "details": "See {IERC20-approve}. Requirements: - `spender` cannot be the zero address."
      },
      "balanceOf(address)": {
        "details": "See {IERC20-balanceOf}."
      },
      "decimals()": {
        "details": "Returns the number of decimals used to get its user representation. For example, if `decimals` equals `2`, a balance of `505` tokens should be displayed to a user as `5,05` (`505 / 10 ** 2`). Tokens usually opt for a value of 18, imitating the relationship between Ether and Wei. This is the value {ERC20} uses, unless {_setupDecimals} is called. NOTE: This information is only used for _display_ purposes: it in no way affects any of the arithmetic of the contract, including {IERC20-balanceOf} and {IERC20-transfer}."
      },
      "decreaseAllowance(address,uint256)": {
        "details": "Atomically decreases the allowance granted to `spender` by the caller. This is an alternative to {approve} that can be used as a mitigation for problems described in {IERC20-approve}. Emits an {Approval} event indicating the updated allowance. Requirements: - `spender` cannot be the zero address. - `spender` must have allowance for the caller of at least `subtractedValue`."
      },
      "delegate(address)": {
        "details": "delegates all the powers to a specific user",
        "params": {
          "delegatee": "the user to which the power will be delegated*"
        }
      },
      "delegateBySig(address,uint256,uint256,uint8,bytes32,bytes32)": {
        "details": "Delegates power from signatory to `delegatee`",
        "params": {
          "delegatee": "The address to delegate votes to",
          "expiry": "The time at which to expire the signature",
          "nonce": "The contract state required to match the signature",
          "r": "Half of the ECDSA signature pair",
          "s": "Half of the ECDSA signature pair",
          "v": "The recovery byte of the signature"
        }
      },
      "delegateByType(address,uint8)": {
        "details": "delegates one specific power to a delegatee",
        "params": {
          "delegatee": "the user which delegated power has changed",
          "delegationType": "the type of delegation (VOTING_POWER, PROPOSITION_POWER)*"
        }
      },
      "delegateByTypeBySig(address,uint8,uint256,uint256,uint8,bytes32,bytes32)": {
        "details": "Delegates power from signatory to `delegatee`",
        "params": {
          "delegatee": "The address to delegate votes to",
          "delegationType": "the type of delegation (VOTING_POWER, PROPOSITION_POWER)",
          "expiry": "The time at which to expire the signature",
          "nonce": "The contract state required to match the signature",
          "r": "Half of the ECDSA signature pair",
          "s": "Half of the ECDSA signature pair",
          "v": "The recovery byte of the signature"
        }
      },
      "getDelegateeByType(address,uint8)": {
        "details": "returns the delegatee of an user",
        "params": {
          "delegator": "the address of the delegator*"
        }
      },
      "getPowerAtBlock(address,uint256,uint8)": {
        "details": "returns the delegated power of a user at a certain block",
        "params": {
          "user": "the user*"
        }
      },
      "getPowerCurrent(address,uint8)": {
        "details": "returns the current delegated power of a user. The current power is the power delegated at the time of the last snapshot",
        "params": {
          "user": "the user*"
        }
      },
      "increaseAllowance(address,uint256)": {
        "details": "Atomically increases the allowance granted to `spender` by the caller. This is an alternative to {approve} that can be used as a mitigation for problems described in {IERC20-approve}. Emits an {Approval} event indicating the updated allowance. Requirements: - `spender` cannot be the zero address."
      },
      "name()": {
        "details": "Returns the name of the token."
      },
      "owner()": {
        "details": "Returns the address of the current owner."
      },
      "permit(address,address,uint256,uint256,uint8,bytes32,bytes32)": {
        "details": "implements the permit function as for https://github.com/ethereum/EIPs/blob/8a34d644aacf0f9f8f00815307fd7dd5da07655f/EIPS/eip-2612.md",
        "params": {
          "deadline": "the deadline timestamp, type(uint256).max for no deadline",
          "owner": "the owner of the funds",
          "r": "signature param",
          "s": "signature param",
          "spender": "the spender",
          "v": "signature param",
          "value": "the amount"
        }
      },
      "renounceOwnership()": {
        "details": "Leaves the contract without owner. It will not be possible to call `onlyOwner` functions anymore. Can only be called by the current owner. NOTE: Renouncing ownership will leave the contract without an owner, thereby removing any functionality that is only available to the owner."
      },
      "symbol()": {
        "details": "Returns the symbol of the token, usually a shorter version of the name."
      },
      "totalSupply()": {
        "details": "See {IERC20-totalSupply}."
      },
      "totalSupplyAt(uint256)": {
        "details": "returns the total supply at a certain block number used by the voting strategy contracts to calculate the total votes needed for threshold/quorum In this initial implementation with no AAVE minting, simply returns the current supply A snapshots mapping will need to be added in case a mint function is added to the AAVE token in the future*"
      },
      "transfer(address,uint256)": {
        "details": "See {IERC20-transfer}. Requirements: - `recipient` cannot be the zero address. - the caller must have a balance of at least `amount`."
      },
      "transferFrom(address,address,uint256)": {
        "details": "See {IERC20-transferFrom}. Emits an {Approval} event indicating the updated allowance. This is not required by the EIP. See the note at the beginning of {ERC20}. Requirements: - `sender` and `recipient` cannot be the zero address. - `sender` must have a balance of at least `amount`. - the caller must have allowance for ``sender``'s tokens of at least `amount`."
      },
      "transferOwnership(address)": {
        "details": "Transfers ownership of the contract to a new account (`newOwner`). Can only be called by the current owner."
      }
    },
    "version": 1
  },
  "userdoc": {
    "kind": "user",
    "methods": {},
    "version": 1
  }
}