{
  "contractName": "WorldTwoSpace",
  "abi": [
    {
      "anonymous": false,
      "inputs": [
        {
          "indexed": true,
          "internalType": "address",
          "name": "owner",
          "type": "address"
        },
        {
          "indexed": true,
          "internalType": "address",
          "name": "approved",
          "type": "address"
        },
        {
          "indexed": true,
          "internalType": "uint256",
          "name": "tokenId",
          "type": "uint256"
        }
      ],
      "name": "Approval",
      "type": "event"
    },
    {
      "anonymous": false,
      "inputs": [
        {
          "indexed": true,
          "internalType": "address",
          "name": "owner",
          "type": "address"
        },
        {
          "indexed": true,
          "internalType": "address",
          "name": "operator",
          "type": "address"
        },
        {
          "indexed": false,
          "internalType": "bool",
          "name": "approved",
          "type": "bool"
        }
      ],
      "name": "ApprovalForAll",
      "type": "event"
    },
    {
      "anonymous": false,
      "inputs": [
        {
          "indexed": true,
          "internalType": "address",
          "name": "from",
          "type": "address"
        },
        {
          "indexed": true,
          "internalType": "address",
          "name": "to",
          "type": "address"
        },
        {
          "indexed": true,
          "internalType": "uint256",
          "name": "tokenId",
          "type": "uint256"
        }
      ],
      "name": "Transfer",
      "type": "event"
    },
    {
      "inputs": [
        {
          "internalType": "address",
          "name": "to",
          "type": "address"
        },
        {
          "internalType": "uint256",
          "name": "tokenId",
          "type": "uint256"
        }
      ],
      "name": "approve",
      "outputs": [],
      "stateMutability": "nonpayable",
      "type": "function"
    },
    {
      "inputs": [
        {
          "internalType": "address",
          "name": "owner",
          "type": "address"
        }
      ],
      "name": "balanceOf",
      "outputs": [
        {
          "internalType": "uint256",
          "name": "",
          "type": "uint256"
        }
      ],
      "stateMutability": "view",
      "type": "function",
      "constant": true
    },
    {
      "inputs": [],
      "name": "baseURI",
      "outputs": [
        {
          "internalType": "string",
          "name": "",
          "type": "string"
        }
      ],
      "stateMutability": "view",
      "type": "function",
      "constant": true
    },
    {
      "inputs": [
        {
          "internalType": "uint256",
          "name": "tokenId",
          "type": "uint256"
        }
      ],
      "name": "getApproved",
      "outputs": [
        {
          "internalType": "address",
          "name": "",
          "type": "address"
        }
      ],
      "stateMutability": "view",
      "type": "function",
      "constant": true
    },
    {
      "inputs": [
        {
          "internalType": "address",
          "name": "owner",
          "type": "address"
        },
        {
          "internalType": "address",
          "name": "operator",
          "type": "address"
        }
      ],
      "name": "isApprovedForAll",
      "outputs": [
        {
          "internalType": "bool",
          "name": "",
          "type": "bool"
        }
      ],
      "stateMutability": "view",
      "type": "function",
      "constant": true
    },
    {
      "inputs": [
        {
          "internalType": "bytes32",
          "name": "",
          "type": "bytes32"
        }
      ],
      "name": "locations",
      "outputs": [
        {
          "internalType": "bool",
          "name": "",
          "type": "bool"
        }
      ],
      "stateMutability": "view",
      "type": "function",
      "constant": true
    },
    {
      "inputs": [],
      "name": "name",
      "outputs": [
        {
          "internalType": "string",
          "name": "",
          "type": "string"
        }
      ],
      "stateMutability": "view",
      "type": "function",
      "constant": true
    },
    {
      "inputs": [
        {
          "internalType": "uint256",
          "name": "tokenId",
          "type": "uint256"
        }
      ],
      "name": "ownerOf",
      "outputs": [
        {
          "internalType": "address",
          "name": "",
          "type": "address"
        }
      ],
      "stateMutability": "view",
      "type": "function",
      "constant": true
    },
    {
      "inputs": [
        {
          "internalType": "address",
          "name": "from",
          "type": "address"
        },
        {
          "internalType": "address",
          "name": "to",
          "type": "address"
        },
        {
          "internalType": "uint256",
          "name": "tokenId",
          "type": "uint256"
        }
      ],
      "name": "safeTransferFrom",
      "outputs": [],
      "stateMutability": "nonpayable",
      "type": "function"
    },
    {
      "inputs": [
        {
          "internalType": "address",
          "name": "from",
          "type": "address"
        },
        {
          "internalType": "address",
          "name": "to",
          "type": "address"
        },
        {
          "internalType": "uint256",
          "name": "tokenId",
          "type": "uint256"
        },
        {
          "internalType": "bytes",
          "name": "_data",
          "type": "bytes"
        }
      ],
      "name": "safeTransferFrom",
      "outputs": [],
      "stateMutability": "nonpayable",
      "type": "function"
    },
    {
      "inputs": [
        {
          "internalType": "address",
          "name": "operator",
          "type": "address"
        },
        {
          "internalType": "bool",
          "name": "approved",
          "type": "bool"
        }
      ],
      "name": "setApprovalForAll",
      "outputs": [],
      "stateMutability": "nonpayable",
      "type": "function"
    },
    {
      "inputs": [
        {
          "internalType": "bytes4",
          "name": "interfaceId",
          "type": "bytes4"
        }
      ],
      "name": "supportsInterface",
      "outputs": [
        {
          "internalType": "bool",
          "name": "",
          "type": "bool"
        }
      ],
      "stateMutability": "view",
      "type": "function",
      "constant": true
    },
    {
      "inputs": [],
      "name": "symbol",
      "outputs": [
        {
          "internalType": "string",
          "name": "",
          "type": "string"
        }
      ],
      "stateMutability": "view",
      "type": "function",
      "constant": true
    },
    {
      "inputs": [
        {
          "internalType": "uint256",
          "name": "index",
          "type": "uint256"
        }
      ],
      "name": "tokenByIndex",
      "outputs": [
        {
          "internalType": "uint256",
          "name": "",
          "type": "uint256"
        }
      ],
      "stateMutability": "view",
      "type": "function",
      "constant": true
    },
    {
      "inputs": [
        {
          "internalType": "address",
          "name": "owner",
          "type": "address"
        },
        {
          "internalType": "uint256",
          "name": "index",
          "type": "uint256"
        }
      ],
      "name": "tokenOfOwnerByIndex",
      "outputs": [
        {
          "internalType": "uint256",
          "name": "",
          "type": "uint256"
        }
      ],
      "stateMutability": "view",
      "type": "function",
      "constant": true
    },
    {
      "inputs": [
        {
          "internalType": "uint256",
          "name": "",
          "type": "uint256"
        },
        {
          "internalType": "uint256",
          "name": "",
          "type": "uint256"
        }
      ],
      "name": "tokenToLocations",
      "outputs": [
        {
          "internalType": "bytes32",
          "name": "",
          "type": "bytes32"
        }
      ],
      "stateMutability": "view",
      "type": "function",
      "constant": true
    },
    {
      "inputs": [
        {
          "internalType": "uint256",
          "name": "tokenId",
          "type": "uint256"
        }
      ],
      "name": "tokenURI",
      "outputs": [
        {
          "internalType": "string",
          "name": "",
          "type": "string"
        }
      ],
      "stateMutability": "view",
      "type": "function",
      "constant": true
    },
    {
      "inputs": [],
      "name": "totalSupply",
      "outputs": [
        {
          "internalType": "uint256",
          "name": "",
          "type": "uint256"
        }
      ],
      "stateMutability": "view",
      "type": "function",
      "constant": true
    },
    {
      "inputs": [
        {
          "internalType": "address",
          "name": "from",
          "type": "address"
        },
        {
          "internalType": "address",
          "name": "to",
          "type": "address"
        },
        {
          "internalType": "uint256",
          "name": "tokenId",
          "type": "uint256"
        }
      ],
      "name": "transferFrom",
      "outputs": [],
      "stateMutability": "nonpayable",
      "type": "function"
    },
    {
      "inputs": [
        {
          "internalType": "bytes32[]",
          "name": "_locations",
          "type": "bytes32[]"
        }
      ],
      "name": "claim",
      "outputs": [],
      "stateMutability": "nonpayable",
      "type": "function"
    }
  ],
  "bytecode": "0x60806040523480156200001157600080fd5b50604080518082018252600f81526e576f726c642054776f20537061636560881b602080830191909152825180840190935260078352665732537061636560c81b9083015290620000696301ffc9a760e01b620000d3565b81516200007e90600690602085019062000158565b5080516200009490600790602084019062000158565b50620000a76380ac58cd60e01b620000d3565b620000b9635b5e139f60e01b620000d3565b620000cb63780e9d6360e01b620000d3565b5050620001f4565b6001600160e01b0319808216141562000133576040805162461bcd60e51b815260206004820152601c60248201527f4552433136353a20696e76616c696420696e7465726661636520696400000000604482015290519081900360640190fd5b6001600160e01b0319166000908152602081905260409020805460ff19166001179055565b828054600181600116156101000203166002900490600052602060002090601f016020900481019282601f106200019b57805160ff1916838001178555620001cb565b82800160010185558215620001cb579182015b82811115620001cb578251825591602001919060010190620001ae565b50620001d9929150620001dd565b5090565b5b80821115620001d95760008155600101620001de565b611d7080620002046000396000f3fe608060405234801561001057600080fd5b506004361061012c5760003560e01c80636c0360eb116100ad578063b69ea09711610071578063b69ea09714610443578063b88d4fde14610466578063c87b56dd1461052c578063e985e9c514610549578063f9c7e549146105775761012c565b80636c0360eb1461033c57806370a082311461034457806395d89b411461036a578063a22cb46514610372578063b391c508146103a05761012c565b806323b872dd116100f457806323b872dd1461026a5780632f745c59146102a057806342842e0e146102cc5780634f6ccce7146103025780636352211e1461031f5761012c565b806301ffc9a71461013157806306fdde031461016c578063081812fc146101e9578063095ea7b31461022257806318160ddd14610250575b600080fd5b6101586004803603602081101561014757600080fd5b50356001600160e01b031916610594565b604080519115158252519081900360200190f35b6101746105b7565b6040805160208082528351818301528351919283929083019185019080838360005b838110156101ae578181015183820152602001610196565b50505050905090810190601f1680156101db5780820380516001836020036101000a031916815260200191505b509250505060405180910390f35b610206600480360360208110156101ff57600080fd5b503561064d565b604080516001600160a01b039092168252519081900360200190f35b61024e6004803603604081101561023857600080fd5b506001600160a01b0381351690602001356106af565b005b61025861078a565b60408051918252519081900360200190f35b61024e6004803603606081101561028057600080fd5b506001600160a01b0381358116916020810135909116906040013561079b565b610258600480360360408110156102b657600080fd5b506001600160a01b0381351690602001356107f2565b61024e600480360360608110156102e257600080fd5b506001600160a01b0381358116916020810135909116906040013561081d565b6102586004803603602081101561031857600080fd5b5035610838565b6102066004803603602081101561033557600080fd5b503561084e565b610174610876565b6102586004803603602081101561035a57600080fd5b50356001600160a01b03166108d7565b61017461093f565b61024e6004803603604081101561038857600080fd5b506001600160a01b03813516906020013515156109a0565b61024e600480360360208110156103b657600080fd5b8101906020810181356401000000008111156103d157600080fd5b8201836020820111156103e357600080fd5b8035906020019184602083028401116401000000008311171561040557600080fd5b919080806020026020016040519081016040528093929190818152602001838360200280828437600092019190915250929550610aa5945050505050565b6102586004803603604081101561045957600080fd5b5080359060200135610b9d565b61024e6004803603608081101561047c57600080fd5b6001600160a01b038235811692602081013590911691604082013591908101906080810160608201356401000000008111156104b757600080fd5b8201836020820111156104c957600080fd5b803590602001918460018302840111640100000000831117156104eb57600080fd5b91908080601f016020809104026020016040519081016040528093929190818152602001838380828437600092019190915250929550610bcb945050505050565b6101746004803603602081101561054257600080fd5b5035610c29565b6101586004803603604081101561055f57600080fd5b506001600160a01b0381358116916020013516610eac565b6101586004803603602081101561058d57600080fd5b5035610eda565b6001600160e01b0319811660009081526020819052604090205460ff165b919050565b60068054604080516020601f60026000196101006001881615020190951694909404938401819004810282018101909252828152606093909290918301828280156106435780601f1061061857610100808354040283529160200191610643565b820191906000526020600020905b81548152906001019060200180831161062657829003601f168201915b5050505050905090565b600061065882610eef565b6106935760405162461bcd60e51b815260040180806020018281038252602c815260200180611c65602c913960400191505060405180910390fd5b506000908152600460205260409020546001600160a01b031690565b60006106ba8261084e565b9050806001600160a01b0316836001600160a01b0316141561070d5760405162461bcd60e51b8152600401808060200182810382526021815260200180611ce96021913960400191505060405180910390fd5b806001600160a01b031661071f610efc565b6001600160a01b0316148061074057506107408161073b610efc565b610eac565b61077b5760405162461bcd60e51b8152600401808060200182810382526038815260200180611bb86038913960400191505060405180910390fd5b6107858383610f00565b505050565b60006107966002610f6e565b905090565b6107ac6107a6610efc565b82610f79565b6107e75760405162461bcd60e51b8152600401808060200182810382526031815260200180611d0a6031913960400191505060405180910390fd5b61078583838361101d565b6001600160a01b03821660009081526001602052604081206108149083611169565b90505b92915050565b61078583838360405180602001604052806000815250610bcb565b600080610846600284611175565b509392505050565b600061081782604051806060016040528060298152602001611c1a6029913960029190611191565b60098054604080516020601f60026000196101006001881615020190951694909404938401819004810282018101909252828152606093909290918301828280156106435780601f1061061857610100808354040283529160200191610643565b60006001600160a01b03821661091e5760405162461bcd60e51b815260040180806020018281038252602a815260200180611bf0602a913960400191505060405180910390fd5b6001600160a01b038216600090815260016020526040902061081790610f6e565b60078054604080516020601f60026000196101006001881615020190951694909404938401819004810282018101909252828152606093909290918301828280156106435780601f1061061857610100808354040283529160200191610643565b6109a8610efc565b6001600160a01b0316826001600160a01b03161415610a0e576040805162461bcd60e51b815260206004820152601960248201527f4552433732313a20617070726f766520746f2063616c6c657200000000000000604482015290519081900360640190fd5b8060056000610a1b610efc565b6001600160a01b03908116825260208083019390935260409182016000908120918716808252919093529120805460ff191692151592909217909155610a5f610efc565b6001600160a01b03167f17307eab39ab6107e8899845ad3d59bd9653f200f220920489ca2b5937696c318360405180821515815260200191505060405180910390a35050565b601e815110610afb576040805162461bcd60e51b815260206004820152601760248201527f4d75737420626520736d616c6c6572207468616e203330000000000000000000604482015290519081900360640190fd5b60005b8151811015610b88576000600a6000848481518110610b1957fe5b60209081029190910181015182528101919091526040016000205460ff1690508015610b4457600080fd5b6001600a6000858581518110610b5657fe5b6020908102919091018101518252810191909152604001600020805460ff191691151591909117905550600101610afe565b50610b9a33610b9561078a565b6111a8565b50565b600b6020528160005260406000208181548110610bb657fe5b90600052602060002001600091509150505481565b610bdc610bd6610efc565b83610f79565b610c175760405162461bcd60e51b8152600401808060200182810382526031815260200180611d0a6031913960400191505060405180910390fd5b610c23848484846111c6565b50505050565b6060610c3482610eef565b610c6f5760405162461bcd60e51b815260040180806020018281038252602f815260200180611cba602f913960400191505060405180910390fd5b60008281526008602090815260409182902080548351601f6002600019610100600186161502019093169290920491820184900484028101840190945280845260609392830182828015610d045780601f10610cd957610100808354040283529160200191610d04565b820191906000526020600020905b815481529060010190602001808311610ce757829003601f168201915b505050505090506060610d15610876565b9050805160001415610d29575090506105b2565b815115610dea5780826040516020018083805190602001908083835b60208310610d645780518252601f199092019160209182019101610d45565b51815160209384036101000a600019018019909216911617905285519190930192850191508083835b60208310610dac5780518252601f199092019160209182019101610d8d565b6001836020036101000a03801982511681845116808217855250505050505090500192505050604051602081830303815290604052925050506105b2565b80610df485611218565b6040516020018083805190602001908083835b60208310610e265780518252601f199092019160209182019101610e07565b51815160209384036101000a600019018019909216911617905285519190930192850191508083835b60208310610e6e5780518252601f199092019160209182019101610e4f565b6001836020036101000a0380198251168184511680821785525050505050509050019250505060405160208183030381529060405292505050919050565b6001600160a01b03918216600090815260056020908152604080832093909416825291909152205460ff1690565b600a6020526000908152604090205460ff1681565b60006108176002836112f3565b3390565b600081815260046020526040902080546001600160a01b0319166001600160a01b0384169081179091558190610f358261084e565b6001600160a01b03167f8c5be1e5ebec7d5bd14f71427d1e84f3dd0314c0f7b2291e5b200ac8c7c3b92560405160405180910390a45050565b6000610817826112ff565b6000610f8482610eef565b610fbf5760405162461bcd60e51b815260040180806020018281038252602c815260200180611b8c602c913960400191505060405180910390fd5b6000610fca8361084e565b9050806001600160a01b0316846001600160a01b031614806110055750836001600160a01b0316610ffa8461064d565b6001600160a01b0316145b8061101557506110158185610eac565b949350505050565b826001600160a01b03166110308261084e565b6001600160a01b0316146110755760405162461bcd60e51b8152600401808060200182810382526029815260200180611c916029913960400191505060405180910390fd5b6001600160a01b0382166110ba5760405162461bcd60e51b8152600401808060200182810382526024815260200180611b686024913960400191505060405180910390fd5b6110c5838383610785565b6110d0600082610f00565b6001600160a01b03831660009081526001602052604090206110f29082611303565b506001600160a01b0382166000908152600160205260409020611115908261130f565b506111226002828461131b565b5080826001600160a01b0316846001600160a01b03167fddf252ad1be2c89b69c2b068fc378daa952ba7f163c4a11628f55a4df523b3ef60405160405180910390a4505050565b60006108148383611331565b60008080806111848686611395565b9097909650945050505050565b600061119e848484611410565b90505b9392505050565b6111c28282604051806020016040528060008152506114da565b5050565b6111d184848461101d565b6111dd8484848461152c565b610c235760405162461bcd60e51b8152600401808060200182810382526032815260200180611b366032913960400191505060405180910390fd5b60608161123d57506040805180820190915260018152600360fc1b60208201526105b2565b8160005b811561125557600101600a82049150611241565b60608167ffffffffffffffff8111801561126e57600080fd5b506040519080825280601f01601f191660200182016040528015611299576020820181803683370190505b50859350905060001982015b83156112ea57600a840660300160f81b828280600190039350815181106112c857fe5b60200101906001600160f81b031916908160001a905350600a840493506112a5565b50949350505050565b60006108148383611694565b5490565b600061081483836116ac565b60006108148383611772565b600061119e84846001600160a01b0385166117bc565b815460009082106113735760405162461bcd60e51b8152600401808060200182810382526022815260200180611b146022913960400191505060405180910390fd5b82600001828154811061138257fe5b9060005260206000200154905092915050565b8154600090819083106113d95760405162461bcd60e51b8152600401808060200182810382526022815260200180611c436022913960400191505060405180910390fd5b60008460000184815481106113ea57fe5b906000526020600020906002020190508060000154816001015492509250509250929050565b600082815260018401602052604081205482816114ab5760405162461bcd60e51b81526004018080602001828103825283818151815260200191508051906020019080838360005b83811015611470578181015183820152602001611458565b50505050905090810190601f16801561149d5780820380516001836020036101000a031916815260200191505b509250505060405180910390fd5b508460000160018203815481106114be57fe5b9060005260206000209060020201600101549150509392505050565b6114e48383611853565b6114f1600084848461152c565b6107855760405162461bcd60e51b8152600401808060200182810382526032815260200180611b366032913960400191505060405180910390fd5b6000611540846001600160a01b0316611981565b61154c57506001611015565b606061165a630a85bd0160e11b611561610efc565b88878760405160240180856001600160a01b03168152602001846001600160a01b0316815260200183815260200180602001828103825283818151815260200191508051906020019080838360005b838110156115c85781810151838201526020016115b0565b50505050905090810190601f1680156115f55780820380516001836020036101000a031916815260200191505b5095505050505050604051602081830303815290604052906001600160e01b0319166020820180516001600160e01b038381831617835250505050604051806060016040528060328152602001611b36603291396001600160a01b0388169190611987565b9050600081806020019051602081101561167357600080fd5b50516001600160e01b031916630a85bd0160e11b1492505050949350505050565b60009081526001919091016020526040902054151590565b6000818152600183016020526040812054801561176857835460001980830191908101906000908790839081106116df57fe5b90600052602060002001549050808760000184815481106116fc57fe5b60009182526020808320909101929092558281526001898101909252604090209084019055865487908061172c57fe5b60019003818190600052602060002001600090559055866001016000878152602001908152602001600020600090556001945050505050610817565b6000915050610817565b600061177e8383611694565b6117b457508154600181810184556000848152602080822090930184905584548482528286019093526040902091909155610817565b506000610817565b6000828152600184016020526040812054806118215750506040805180820182528381526020808201848152865460018181018955600089815284812095516002909302909501918255915190820155865486845281880190925292909120556111a1565b8285600001600183038154811061183457fe5b90600052602060002090600202016001018190555060009150506111a1565b6001600160a01b0382166118ae576040805162461bcd60e51b815260206004820181905260248201527f4552433732313a206d696e7420746f20746865207a65726f2061646472657373604482015290519081900360640190fd5b6118b781610eef565b15611909576040805162461bcd60e51b815260206004820152601c60248201527f4552433732313a20746f6b656e20616c7265616479206d696e74656400000000604482015290519081900360640190fd5b61191560008383610785565b6001600160a01b0382166000908152600160205260409020611937908261130f565b506119446002828461131b565b5060405181906001600160a01b038416906000907fddf252ad1be2c89b69c2b068fc378daa952ba7f163c4a11628f55a4df523b3ef908290a45050565b3b151590565b606061119e84846000858561199b85611981565b6119ec576040805162461bcd60e51b815260206004820152601d60248201527f416464726573733a2063616c6c20746f206e6f6e2d636f6e7472616374000000604482015290519081900360640190fd5b60006060866001600160a01b031685876040518082805190602001908083835b60208310611a2b5780518252601f199092019160209182019101611a0c565b6001836020036101000a03801982511681845116808217855250505050505090500191505060006040518083038185875af1925050503d8060008114611a8d576040519150601f19603f3d011682016040523d82523d6000602084013e611a92565b606091505b5091509150611aa2828286611aad565b979650505050505050565b60608315611abc5750816111a1565b825115611acc5782518084602001fd5b60405162461bcd60e51b815260206004820181815284516024840152845185939192839260440191908501908083836000831561147057818101518382015260200161145856fe456e756d657261626c655365743a20696e646578206f7574206f6620626f756e64734552433732313a207472616e7366657220746f206e6f6e20455243373231526563656976657220696d706c656d656e7465724552433732313a207472616e7366657220746f20746865207a65726f20616464726573734552433732313a206f70657261746f7220717565727920666f72206e6f6e6578697374656e7420746f6b656e4552433732313a20617070726f76652063616c6c6572206973206e6f74206f776e6572206e6f7220617070726f76656420666f7220616c6c4552433732313a2062616c616e636520717565727920666f7220746865207a65726f20616464726573734552433732313a206f776e657220717565727920666f72206e6f6e6578697374656e7420746f6b656e456e756d657261626c654d61703a20696e646578206f7574206f6620626f756e64734552433732313a20617070726f76656420717565727920666f72206e6f6e6578697374656e7420746f6b656e4552433732313a207472616e73666572206f6620746f6b656e2074686174206973206e6f74206f776e4552433732314d657461646174613a2055524920717565727920666f72206e6f6e6578697374656e7420746f6b656e4552433732313a20617070726f76616c20746f2063757272656e74206f776e65724552433732313a207472616e736665722063616c6c6572206973206e6f74206f776e6572206e6f7220617070726f766564a26469706673582212203e47e8d1b208f2bd03e1eb792e643b42844a5f0b26d085edbab38ef19bba089064736f6c634300060c0033",
  "immutableReferences": {},
  "source": "pragma solidity 0.7.0;\n\nimport '@openzeppelin/contracts/token/ERC721/ERC721.sol';\n\ncontract WorldTwoSpace is ERC721('World Two Space', 'W2Space') {\n    mapping(bytes32 => bool) public locations;\n    mapping(uint256 => bytes32[]) public tokenToLocations;\n\n    function claim(bytes32[] memory _locations) external {\n        require(_locations.length < 30, 'Must be smaller than 30');\n        for (uint256 i = 0; i < _locations.length; i++) {\n            bool exists = locations[_locations[i]];\n            require(!exists);\n            locations[_locations[i]] = true;\n        }\n        _safeMint(msg.sender, totalSupply());\n    }\n}\n",
  "sourcePath": "C:/Users/James/projects/erc20-vue-template/blockchain/contracts/WorldTwoSpace.sol",
  "compiler": {
    "name": "solc",
    "version": "0.7.0+commit.27d51765.Emscripten.clang"
  },
  "schemaVersion": "3.3.2",
  "updatedAt": "2021-06-22T20:49:53.181Z",
  "networkType": "ethereum",
  "devdoc": {
    "kind": "dev",
    "methods": {
      "approve(address,uint256)": {
        "details": "See {IERC721-approve}."
      },
      "balanceOf(address)": {
        "details": "See {IERC721-balanceOf}."
      },
      "baseURI()": {
        "details": "Returns the base URI set via {_setBaseURI}. This will be automatically added as a prefix in {tokenURI} to each token's URI, or to the token ID if no specific URI is set for that token ID."
      },
      "getApproved(uint256)": {
        "details": "See {IERC721-getApproved}."
      },
      "isApprovedForAll(address,address)": {
        "details": "See {IERC721-isApprovedForAll}."
      },
      "name()": {
        "details": "See {IERC721Metadata-name}."
      },
      "ownerOf(uint256)": {
        "details": "See {IERC721-ownerOf}."
      },
      "safeTransferFrom(address,address,uint256)": {
        "details": "See {IERC721-safeTransferFrom}."
      },
      "safeTransferFrom(address,address,uint256,bytes)": {
        "details": "See {IERC721-safeTransferFrom}."
      },
      "setApprovalForAll(address,bool)": {
        "details": "See {IERC721-setApprovalForAll}."
      },
      "supportsInterface(bytes4)": {
        "details": "See {IERC165-supportsInterface}. Time complexity O(1), guaranteed to always use less than 30 000 gas."
      },
      "symbol()": {
        "details": "See {IERC721Metadata-symbol}."
      },
      "tokenByIndex(uint256)": {
        "details": "See {IERC721Enumerable-tokenByIndex}."
      },
      "tokenOfOwnerByIndex(address,uint256)": {
        "details": "See {IERC721Enumerable-tokenOfOwnerByIndex}."
      },
      "tokenURI(uint256)": {
        "details": "See {IERC721Metadata-tokenURI}."
      },
      "totalSupply()": {
        "details": "See {IERC721Enumerable-totalSupply}."
      },
      "transferFrom(address,address,uint256)": {
        "details": "See {IERC721-transferFrom}."
      }
    },
    "version": 1
  },
  "userdoc": {
    "kind": "user",
    "methods": {},
    "version": 1
  }
}